{
  "contractName": "Menace_FullWhitelist",
  "abi": [
    {
      "inputs": [],
      "stateMutability": "nonpayable",
      "type": "constructor"
    },
    {
      "anonymous": false,
      "inputs": [
        {
          "indexed": true,
          "internalType": "address",
          "name": "owner",
          "type": "address"
        },
        {
          "indexed": true,
          "internalType": "address",
          "name": "approved",
          "type": "address"
        },
        {
          "indexed": true,
          "internalType": "uint256",
          "name": "tokenId",
          "type": "uint256"
        }
      ],
      "name": "Approval",
      "type": "event"
    },
    {
      "anonymous": false,
      "inputs": [
        {
          "indexed": true,
          "internalType": "address",
          "name": "owner",
          "type": "address"
        },
        {
          "indexed": true,
          "internalType": "address",
          "name": "operator",
          "type": "address"
        },
        {
          "indexed": false,
          "internalType": "bool",
          "name": "approved",
          "type": "bool"
        }
      ],
      "name": "ApprovalForAll",
      "type": "event"
    },
    {
      "anonymous": false,
      "inputs": [
        {
          "indexed": true,
          "internalType": "address",
          "name": "previousOwner",
          "type": "address"
        },
        {
          "indexed": true,
          "internalType": "address",
          "name": "newOwner",
          "type": "address"
        }
      ],
      "name": "OwnershipTransferred",
      "type": "event"
    },
    {
      "anonymous": false,
      "inputs": [
        {
          "indexed": true,
          "internalType": "address",
          "name": "from",
          "type": "address"
        },
        {
          "indexed": true,
          "internalType": "address",
          "name": "to",
          "type": "address"
        },
        {
          "indexed": true,
          "internalType": "uint256",
          "name": "tokenId",
          "type": "uint256"
        }
      ],
      "name": "Transfer",
      "type": "event"
    },
    {
      "inputs": [],
      "name": "MAX_MENACE",
      "outputs": [
        {
          "internalType": "uint256",
          "name": "",
          "type": "uint256"
        }
      ],
      "stateMutability": "view",
      "type": "function",
      "constant": true
    },
    {
      "inputs": [
        {
          "internalType": "address",
          "name": "to",
          "type": "address"
        },
        {
          "internalType": "uint256",
          "name": "tokenId",
          "type": "uint256"
        }
      ],
      "name": "approve",
      "outputs": [],
      "stateMutability": "nonpayable",
      "type": "function"
    },
    {
      "inputs": [
        {
          "internalType": "address",
          "name": "owner",
          "type": "address"
        }
      ],
      "name": "balanceOf",
      "outputs": [
        {
          "internalType": "uint256",
          "name": "",
          "type": "uint256"
        }
      ],
      "stateMutability": "view",
      "type": "function",
      "constant": true
    },
    {
      "inputs": [],
      "name": "baseURI",
      "outputs": [
        {
          "internalType": "string",
          "name": "",
          "type": "string"
        }
      ],
      "stateMutability": "view",
      "type": "function",
      "constant": true
    },
    {
      "inputs": [
        {
          "internalType": "uint256",
          "name": "tokenId",
          "type": "uint256"
        }
      ],
      "name": "burn",
      "outputs": [],
      "stateMutability": "nonpayable",
      "type": "function"
    },
    {
      "inputs": [
        {
          "internalType": "uint256",
          "name": "tokenId",
          "type": "uint256"
        }
      ],
      "name": "getApproved",
      "outputs": [
        {
          "internalType": "address",
          "name": "",
          "type": "address"
        }
      ],
      "stateMutability": "view",
      "type": "function",
      "constant": true
    },
    {
      "inputs": [
        {
          "internalType": "address",
          "name": "owner",
          "type": "address"
        },
        {
          "internalType": "address",
          "name": "operator",
          "type": "address"
        }
      ],
      "name": "isApprovedForAll",
      "outputs": [
        {
          "internalType": "bool",
          "name": "",
          "type": "bool"
        }
      ],
      "stateMutability": "view",
      "type": "function",
      "constant": true
    },
    {
      "inputs": [],
      "name": "maxMenaceTxn",
      "outputs": [
        {
          "internalType": "uint256",
          "name": "",
          "type": "uint256"
        }
      ],
      "stateMutability": "view",
      "type": "function",
      "constant": true
    },
    {
      "inputs": [],
      "name": "maxMenaceWallet",
      "outputs": [
        {
          "internalType": "uint256",
          "name": "",
          "type": "uint256"
        }
      ],
      "stateMutability": "view",
      "type": "function",
      "constant": true
    },
    {
      "inputs": [],
      "name": "menacePrice",
      "outputs": [
        {
          "internalType": "uint256",
          "name": "",
          "type": "uint256"
        }
      ],
      "stateMutability": "view",
      "type": "function",
      "constant": true
    },
    {
      "inputs": [],
      "name": "name",
      "outputs": [
        {
          "internalType": "string",
          "name": "",
          "type": "string"
        }
      ],
      "stateMutability": "view",
      "type": "function",
      "constant": true
    },
    {
      "inputs": [],
      "name": "owner",
      "outputs": [
        {
          "internalType": "address",
          "name": "",
          "type": "address"
        }
      ],
      "stateMutability": "view",
      "type": "function",
      "constant": true
    },
    {
      "inputs": [
        {
          "internalType": "uint256",
          "name": "tokenId",
          "type": "uint256"
        }
      ],
      "name": "ownerOf",
      "outputs": [
        {
          "internalType": "address",
          "name": "",
          "type": "address"
        }
      ],
      "stateMutability": "view",
      "type": "function",
      "constant": true
    },
    {
      "inputs": [],
      "name": "preSaleIsActive",
      "outputs": [
        {
          "internalType": "bool",
          "name": "",
          "type": "bool"
        }
      ],
      "stateMutability": "view",
      "type": "function",
      "constant": true
    },
    {
      "inputs": [],
      "name": "provenance",
      "outputs": [
        {
          "internalType": "string",
          "name": "",
          "type": "string"
        }
      ],
      "stateMutability": "view",
      "type": "function",
      "constant": true
    },
    {
      "inputs": [],
      "name": "renounceOwnership",
      "outputs": [],
      "stateMutability": "nonpayable",
      "type": "function"
    },
    {
      "inputs": [
        {
          "internalType": "address",
          "name": "from",
          "type": "address"
        },
        {
          "internalType": "address",
          "name": "to",
          "type": "address"
        },
        {
          "internalType": "uint256",
          "name": "tokenId",
          "type": "uint256"
        }
      ],
      "name": "safeTransferFrom",
      "outputs": [],
      "stateMutability": "nonpayable",
      "type": "function"
    },
    {
      "inputs": [
        {
          "internalType": "address",
          "name": "from",
          "type": "address"
        },
        {
          "internalType": "address",
          "name": "to",
          "type": "address"
        },
        {
          "internalType": "uint256",
          "name": "tokenId",
          "type": "uint256"
        },
        {
          "internalType": "bytes",
          "name": "_data",
          "type": "bytes"
        }
      ],
      "name": "safeTransferFrom",
      "outputs": [],
      "stateMutability": "nonpayable",
      "type": "function"
    },
    {
      "inputs": [],
      "name": "saleIsActive",
      "outputs": [
        {
          "internalType": "bool",
          "name": "",
          "type": "bool"
        }
      ],
      "stateMutability": "view",
      "type": "function",
      "constant": true
    },
    {
      "inputs": [
        {
          "internalType": "address",
          "name": "operator",
          "type": "address"
        },
        {
          "internalType": "bool",
          "name": "approved",
          "type": "bool"
        }
      ],
      "name": "setApprovalForAll",
      "outputs": [],
      "stateMutability": "nonpayable",
      "type": "function"
    },
    {
      "inputs": [],
      "name": "startingIndex",
      "outputs": [
        {
          "internalType": "uint256",
          "name": "",
          "type": "uint256"
        }
      ],
      "stateMutability": "view",
      "type": "function",
      "constant": true
    },
    {
      "inputs": [],
      "name": "startingIndexBlock",
      "outputs": [
        {
          "internalType": "uint256",
          "name": "",
          "type": "uint256"
        }
      ],
      "stateMutability": "view",
      "type": "function",
      "constant": true
    },
    {
      "inputs": [],
      "name": "symbol",
      "outputs": [
        {
          "internalType": "string",
          "name": "",
          "type": "string"
        }
      ],
      "stateMutability": "view",
      "type": "function",
      "constant": true
    },
    {
      "inputs": [
        {
          "internalType": "uint256",
          "name": "index",
          "type": "uint256"
        }
      ],
      "name": "tokenByIndex",
      "outputs": [
        {
          "internalType": "uint256",
          "name": "",
          "type": "uint256"
        }
      ],
      "stateMutability": "view",
      "type": "function",
      "constant": true
    },
    {
      "inputs": [
        {
          "internalType": "address",
          "name": "owner",
          "type": "address"
        },
        {
          "internalType": "uint256",
          "name": "index",
          "type": "uint256"
        }
      ],
      "name": "tokenOfOwnerByIndex",
      "outputs": [
        {
          "internalType": "uint256",
          "name": "",
          "type": "uint256"
        }
      ],
      "stateMutability": "view",
      "type": "function",
      "constant": true
    },
    {
      "inputs": [
        {
          "internalType": "uint256",
          "name": "tokenId",
          "type": "uint256"
        }
      ],
      "name": "tokenURI",
      "outputs": [
        {
          "internalType": "string",
          "name": "",
          "type": "string"
        }
      ],
      "stateMutability": "view",
      "type": "function",
      "constant": true
    },
    {
      "inputs": [],
      "name": "totalSupply",
      "outputs": [
        {
          "internalType": "uint256",
          "name": "",
          "type": "uint256"
        }
      ],
      "stateMutability": "view",
      "type": "function",
      "constant": true
    },
    {
      "inputs": [
        {
          "internalType": "address",
          "name": "from",
          "type": "address"
        },
        {
          "internalType": "address",
          "name": "to",
          "type": "address"
        },
        {
          "internalType": "uint256",
          "name": "tokenId",
          "type": "uint256"
        }
      ],
      "name": "transferFrom",
      "outputs": [],
      "stateMutability": "nonpayable",
      "type": "function"
    },
    {
      "inputs": [
        {
          "internalType": "address",
          "name": "newOwner",
          "type": "address"
        }
      ],
      "name": "transferOwnership",
      "outputs": [],
      "stateMutability": "nonpayable",
      "type": "function"
    },
    {
      "inputs": [
        {
          "internalType": "address",
          "name": "manager",
          "type": "address"
        }
      ],
      "name": "setManager",
      "outputs": [],
      "stateMutability": "nonpayable",
      "type": "function"
    },
    {
      "inputs": [
        {
          "internalType": "string",
          "name": "newBaseURI",
          "type": "string"
        }
      ],
      "name": "setBaseURI",
      "outputs": [],
      "stateMutability": "nonpayable",
      "type": "function"
    },
    {
      "inputs": [],
      "name": "totalToken",
      "outputs": [
        {
          "internalType": "uint256",
          "name": "",
          "type": "uint256"
        }
      ],
      "stateMutability": "view",
      "type": "function",
      "constant": true
    },
    {
      "inputs": [],
      "name": "contractBalance",
      "outputs": [
        {
          "internalType": "uint256",
          "name": "",
          "type": "uint256"
        }
      ],
      "stateMutability": "view",
      "type": "function",
      "constant": true
    },
    {
      "inputs": [
        {
          "internalType": "address",
          "name": "_address",
          "type": "address"
        }
      ],
      "name": "addWalletToPreSale",
      "outputs": [],
      "stateMutability": "nonpayable",
      "type": "function"
    },
    {
      "inputs": [
        {
          "internalType": "address",
          "name": "_address",
          "type": "address"
        }
      ],
      "name": "isWalletInPreSale",
      "outputs": [
        {
          "internalType": "bool",
          "name": "",
          "type": "bool"
        }
      ],
      "stateMutability": "view",
      "type": "function",
      "constant": true
    },
    {
      "inputs": [
        {
          "internalType": "address",
          "name": "_address",
          "type": "address"
        }
      ],
      "name": "preSaleMenaceMinted",
      "outputs": [
        {
          "internalType": "uint256",
          "name": "",
          "type": "uint256"
        }
      ],
      "stateMutability": "view",
      "type": "function",
      "constant": true
    },
    {
      "inputs": [
        {
          "internalType": "address",
          "name": "_address",
          "type": "address"
        }
      ],
      "name": "addWalletToSale",
      "outputs": [],
      "stateMutability": "nonpayable",
      "type": "function"
    },
    {
      "inputs": [
        {
          "internalType": "address",
          "name": "_address",
          "type": "address"
        }
      ],
      "name": "isWalletInSale",
      "outputs": [
        {
          "internalType": "bool",
          "name": "",
          "type": "bool"
        }
      ],
      "stateMutability": "view",
      "type": "function",
      "constant": true
    },
    {
      "inputs": [
        {
          "internalType": "address",
          "name": "_address",
          "type": "address"
        }
      ],
      "name": "saleMenaceMinted",
      "outputs": [
        {
          "internalType": "uint256",
          "name": "",
          "type": "uint256"
        }
      ],
      "stateMutability": "view",
      "type": "function",
      "constant": true
    },
    {
      "inputs": [],
      "name": "flipSale",
      "outputs": [],
      "stateMutability": "nonpayable",
      "type": "function"
    },
    {
      "inputs": [],
      "name": "stateSail",
      "outputs": [
        {
          "internalType": "bool",
          "name": "",
          "type": "bool"
        }
      ],
      "stateMutability": "view",
      "type": "function",
      "constant": true
    },
    {
      "inputs": [],
      "name": "flipPreSale",
      "outputs": [],
      "stateMutability": "nonpayable",
      "type": "function"
    },
    {
      "inputs": [],
      "name": "statePreSail",
      "outputs": [
        {
          "internalType": "bool",
          "name": "",
          "type": "bool"
        }
      ],
      "stateMutability": "view",
      "type": "function",
      "constant": true
    },
    {
      "inputs": [
        {
          "internalType": "uint256",
          "name": "amount",
          "type": "uint256"
        },
        {
          "internalType": "address payable",
          "name": "to",
          "type": "address"
        }
      ],
      "name": "withdrawForGiveaway",
      "outputs": [],
      "stateMutability": "nonpayable",
      "type": "function"
    },
    {
      "inputs": [
        {
          "internalType": "uint256",
          "name": "amount",
          "type": "uint256"
        }
      ],
      "name": "withdraw",
      "outputs": [],
      "stateMutability": "payable",
      "type": "function",
      "payable": true
    },
    {
      "inputs": [
        {
          "internalType": "uint256",
          "name": "reserveAmount",
          "type": "uint256"
        },
        {
          "internalType": "address",
          "name": "mintAddress",
          "type": "address"
        }
      ],
      "name": "reserveMintMenace",
      "outputs": [],
      "stateMutability": "nonpayable",
      "type": "function"
    },
    {
      "inputs": [
        {
          "internalType": "uint256",
          "name": "numberOfTokens",
          "type": "uint256"
        }
      ],
      "name": "preMintMenace",
      "outputs": [],
      "stateMutability": "payable",
      "type": "function",
      "payable": true
    },
    {
      "inputs": [
        {
          "internalType": "uint256",
          "name": "numberOfTokens",
          "type": "uint256"
        }
      ],
      "name": "mintMenace",
      "outputs": [],
      "stateMutability": "payable",
      "type": "function",
      "payable": true
    },
    {
      "inputs": [],
      "name": "setStartingIndex",
      "outputs": [],
      "stateMutability": "nonpayable",
      "type": "function"
    },
    {
      "inputs": [],
      "name": "emergencySetStartingIndexBlock",
      "outputs": [],
      "stateMutability": "nonpayable",
      "type": "function"
    },
    {
      "inputs": [
        {
          "internalType": "string",
          "name": "provenanceHash",
          "type": "string"
        }
      ],
      "name": "setProvenanceHash",
      "outputs": [],
      "stateMutability": "nonpayable",
      "type": "function"
    },
    {
      "inputs": [
        {
          "internalType": "bytes4",
          "name": "interfaceId",
          "type": "bytes4"
        }
      ],
      "name": "supportsInterface",
      "outputs": [
        {
          "internalType": "bool",
          "name": "",
          "type": "bool"
        }
      ],
      "stateMutability": "view",
      "type": "function",
      "constant": true
    }
  ],
  "bytecode": "0x6080604052612710600c556000600e60006101000a81548160ff0219169083151502179055506000600e60016101000a81548160ff0219169083151502179055503480156200004d57600080fd5b506040518060400160405280600b81526020017f4d656e616365576f726c640000000000000000000000000000000000000000008152506040518060400160405280600681526020017f4d454e41434500000000000000000000000000000000000000000000000000008152508160009080519060200190620000d292919062000326565b508060019080519060200190620000eb92919062000326565b5050506200010e620001026200025860201b60201c565b6200026060201b60201c565b7324209282e198e7a807806f55a3322b98d3c65b29600f6000600381106200013b576200013a620003d6565b5b0160006101000a81548173ffffffffffffffffffffffffffffffffffffffff021916908373ffffffffffffffffffffffffffffffffffffffff16021790555073dfaac748709d31d95d638ddbc2bcb8462dfd2076600f600160038110620001a757620001a6620003d6565b5b0160006101000a81548173ffffffffffffffffffffffffffffffffffffffff021916908373ffffffffffffffffffffffffffffffffffffffff16021790555073c593ee28fc40c256d08d040a12fa1af4d8ef26bb600f600260038110620002135762000212620003d6565b5b0160006101000a81548173ffffffffffffffffffffffffffffffffffffffff021916908373ffffffffffffffffffffffffffffffffffffffff1602179055506200046a565b600033905090565b6000600a60009054906101000a900473ffffffffffffffffffffffffffffffffffffffff16905081600a60006101000a81548173ffffffffffffffffffffffffffffffffffffffff021916908373ffffffffffffffffffffffffffffffffffffffff1602179055508173ffffffffffffffffffffffffffffffffffffffff168173ffffffffffffffffffffffffffffffffffffffff167f8be0079c531659141344cd1fd0a4f28419497f9722a3daafe3b4186f6b6457e060405160405180910390a35050565b828054620003349062000434565b90600052602060002090601f016020900481019282620003585760008555620003a4565b82601f106200037357805160ff1916838001178555620003a4565b82800160010185558215620003a4579182015b82811115620003a357825182559160200191906001019062000386565b5b509050620003b39190620003b7565b5090565b5b80821115620003d2576000816000905550600101620003b8565b5090565b7f4e487b7100000000000000000000000000000000000000000000000000000000600052603260045260246000fd5b7f4e487b7100000000000000000000000000000000000000000000000000000000600052602260045260246000fd5b600060028204905060018216806200044d57607f821691505b6020821081141562000464576200046362000405565b5b50919050565b615e0f806200047a6000396000f3fe6080604052600436106102ff5760003560e01c806370a0823111610190578063c821e64c116100dc578063e389de1711610095578063eb8d24441161006f578063eb8d244414610b3e578063f2fde38b14610b69578063fd0b057a14610b92578063ffd9dd1e14610bcf576102ff565b8063e389de1714610abf578063e985e9c514610aea578063e986655014610b27576102ff565b8063c821e64c1461099b578063c87b56dd146109c6578063cb774d4714610a03578063d0ebdbe714610a2e578063d48fb8dd14610a57578063e36d649814610a94576102ff565b80638b62f5331161014957806395d89b411161012357806395d89b41146108e1578063a22cb4651461090c578063ae8e5ec914610935578063b88d4fde14610972576102ff565b80638b62f533146108745780638b7afe2e1461088b5780638da5cb5b146108b6576102ff565b806370a082311461079c578063715018a6146107d95780637ba5e621146107f05780637d17fcbe1461080757806384f5ef9d1461081e578063874ae97c14610849576102ff565b80632e1a7d4d1161024f57806347a7bf5a1161020857806355f804b3116101e257806355f804b3146106e0578063626be567146107095780636352211e146107345780636c0360eb14610771576102ff565b806347a7bf5a1461065e5780634d7313a41461067a5780634f6ccce7146106a3576102ff565b80632e1a7d4d1461055f5780632f745c591461057b57806338516554146105b857806342842e0e146105e157806342966c681461060a5780634498009d14610633576102ff565b806313af11eb116102bc57806319fad9fa1161029657806319fad9fa146104b75780631f0234d8146104e2578063233f50661461050d57806323b872dd14610536576102ff565b806313af11eb14610426578063142b5f9d1461044f57806318160ddd1461048c576102ff565b806301ffc9a71461030457806306fdde0314610341578063081812fc1461036c578063095ea7b3146103a95780630f7309e8146103d257806310969523146103fd575b600080fd5b34801561031057600080fd5b5061032b600480360381019061032691906141db565b610beb565b6040516103389190614223565b60405180910390f35b34801561034d57600080fd5b50610356610bfd565b60405161036391906142d7565b60405180910390f35b34801561037857600080fd5b50610393600480360381019061038e919061432f565b610c8f565b6040516103a0919061439d565b60405180910390f35b3480156103b557600080fd5b506103d060048036038101906103cb91906143e4565b610d14565b005b3480156103de57600080fd5b506103e7610e2c565b6040516103f491906142d7565b60405180910390f35b34801561040957600080fd5b50610424600480360381019061041f9190614559565b610eba565b005b34801561043257600080fd5b5061044d600480360381019061044891906145a2565b610faf565b005b34801561045b57600080fd5b50610476600480360381019061047191906145e2565b611134565b604051610483919061461e565b60405180910390f35b34801561049857600080fd5b506104a161117d565b6040516104ae919061461e565b60405180910390f35b3480156104c357600080fd5b506104cc61118a565b6040516104d9919061461e565b60405180910390f35b3480156104ee57600080fd5b506104f7611190565b6040516105049190614223565b60405180910390f35b34801561051957600080fd5b50610534600480360381019061052f91906145e2565b6111a3565b005b34801561054257600080fd5b5061055d60048036038101906105589190614639565b6112d9565b005b6105796004803603810190610574919061432f565b611339565b005b34801561058757600080fd5b506105a2600480360381019061059d91906143e4565b611448565b6040516105af919061461e565b60405180910390f35b3480156105c457600080fd5b506105df60048036038101906105da91906145e2565b6114ed565b005b3480156105ed57600080fd5b5061060860048036038101906106039190614639565b611623565b005b34801561061657600080fd5b50610631600480360381019061062c919061432f565b611643565b005b34801561063f57600080fd5b5061064861169f565b604051610655919061461e565b60405180910390f35b6106786004803603810190610673919061432f565b6116ab565b005b34801561068657600080fd5b506106a1600480360381019061069c91906146ca565b611923565b005b3480156106af57600080fd5b506106ca60048036038101906106c5919061432f565b611a62565b6040516106d7919061461e565b60405180910390f35b3480156106ec57600080fd5b5061070760048036038101906107029190614559565b611ad3565b005b34801561071557600080fd5b5061071e611bc8565b60405161072b919061461e565b60405180910390f35b34801561074057600080fd5b5061075b6004803603810190610756919061432f565b611bd9565b604051610768919061439d565b60405180910390f35b34801561077d57600080fd5b50610786611c8b565b60405161079391906142d7565b60405180910390f35b3480156107a857600080fd5b506107c360048036038101906107be91906145e2565b611d19565b6040516107d0919061461e565b60405180910390f35b3480156107e557600080fd5b506107ee611dd1565b005b3480156107fc57600080fd5b50610805611e59565b005b34801561081357600080fd5b5061081c611f60565b005b34801561082a57600080fd5b50610833612089565b604051610840919061461e565b60405180910390f35b34801561085557600080fd5b5061085e61208e565b60405161086b9190614223565b60405180910390f35b34801561088057600080fd5b506108896120a5565b005b34801561089757600080fd5b506108a06121ac565b6040516108ad919061461e565b60405180910390f35b3480156108c257600080fd5b506108cb61228f565b6040516108d8919061439d565b60405180910390f35b3480156108ed57600080fd5b506108f66122b9565b60405161090391906142d7565b60405180910390f35b34801561091857600080fd5b50610933600480360381019061092e9190614736565b61234b565b005b34801561094157600080fd5b5061095c600480360381019061095791906145e2565b6124cc565b6040516109699190614223565b60405180910390f35b34801561097e57600080fd5b5061099960048036038101906109949190614817565b612522565b005b3480156109a757600080fd5b506109b0612584565b6040516109bd919061461e565b60405180910390f35b3480156109d257600080fd5b506109ed60048036038101906109e8919061432f565b612589565b6040516109fa91906142d7565b60405180910390f35b348015610a0f57600080fd5b50610a18612630565b604051610a25919061461e565b60405180910390f35b348015610a3a57600080fd5b50610a556004803603810190610a5091906145e2565b612636565b005b348015610a6357600080fd5b50610a7e6004803603810190610a7991906145e2565b6126f6565b604051610a8b9190614223565b60405180910390f35b348015610aa057600080fd5b50610aa961274c565b604051610ab6919061461e565b60405180910390f35b348015610acb57600080fd5b50610ad4612752565b604051610ae19190614223565b60405180910390f35b348015610af657600080fd5b50610b116004803603810190610b0c919061489a565b612769565b604051610b1e9190614223565b60405180910390f35b348015610b3357600080fd5b50610b3c6127fd565b005b348015610b4a57600080fd5b50610b536129ce565b604051610b609190614223565b60405180910390f35b348015610b7557600080fd5b50610b906004803603810190610b8b91906145e2565b6129e1565b005b348015610b9e57600080fd5b50610bb96004803603810190610bb491906145e2565b612ad9565b604051610bc6919061461e565b60405180910390f35b610be96004803603810190610be4919061432f565b612b22565b005b6000610bf682612e35565b9050919050565b606060008054610c0c90614909565b80601f0160208091040260200160405190810160405280929190818152602001828054610c3890614909565b8015610c855780601f10610c5a57610100808354040283529160200191610c85565b820191906000526020600020905b815481529060010190602001808311610c6857829003601f168201915b5050505050905090565b6000610c9a82612eaf565b610cd9576040517f08c379a0000000000000000000000000000000000000000000000000000000008152600401610cd0906149ad565b60405180910390fd5b6004600083815260200190815260200160002060009054906101000a900473ffffffffffffffffffffffffffffffffffffffff169050919050565b6000610d1f82611bd9565b90508073ffffffffffffffffffffffffffffffffffffffff168373ffffffffffffffffffffffffffffffffffffffff161415610d90576040517f08c379a0000000000000000000000000000000000000000000000000000000008152600401610d8790614a3f565b60405180910390fd5b8073ffffffffffffffffffffffffffffffffffffffff16610daf612f1b565b73ffffffffffffffffffffffffffffffffffffffff161480610dde5750610ddd81610dd8612f1b565b612769565b5b610e1d576040517f08c379a0000000000000000000000000000000000000000000000000000000008152600401610e1490614ad1565b60405180910390fd5b610e278383612f23565b505050565b60188054610e3990614909565b80601f0160208091040260200160405190810160405280929190818152602001828054610e6590614909565b8015610eb25780601f10610e8757610100808354040283529160200191610eb2565b820191906000526020600020905b815481529060010190602001808311610e9557829003601f168201915b505050505081565b610ec2612f1b565b73ffffffffffffffffffffffffffffffffffffffff16610ee061228f565b73ffffffffffffffffffffffffffffffffffffffff161480610f565750610f05612f1b565b73ffffffffffffffffffffffffffffffffffffffff16601560009054906101000a900473ffffffffffffffffffffffffffffffffffffffff1673ffffffffffffffffffffffffffffffffffffffff16145b610f95576040517f08c379a0000000000000000000000000000000000000000000000000000000008152600401610f8c90614b63565b60405180910390fd5b8060189080519060200190610fab9291906140cc565b5050565b610fb7612f1b565b73ffffffffffffffffffffffffffffffffffffffff16610fd561228f565b73ffffffffffffffffffffffffffffffffffffffff16148061104b5750610ffa612f1b565b73ffffffffffffffffffffffffffffffffffffffff16601560009054906101000a900473ffffffffffffffffffffffffffffffffffffffff1673ffffffffffffffffffffffffffffffffffffffff16145b61108a576040517f08c379a000000000000000000000000000000000000000000000000000000000815260040161108190614b63565b60405180910390fd5b600c5461109561117d565b11156110d6576040517f08c379a00000000000000000000000000000000000000000000000000000000081526004016110cd90614bf5565b60405180910390fd5b60006110e2600b612fdc565b905060005b8381101561112e57611105836001846111009190614c44565b612fea565b61110f600b613008565b611119600b612fdc565b9150808061112690614c9a565b9150506110e7565b50505050565b6000601c60008373ffffffffffffffffffffffffffffffffffffffff1673ffffffffffffffffffffffffffffffffffffffff168152602001908152602001600020549050919050565b6000600880549050905090565b600c5481565b600e60019054906101000a900460ff1681565b6111ab612f1b565b73ffffffffffffffffffffffffffffffffffffffff166111c961228f565b73ffffffffffffffffffffffffffffffffffffffff16148061123f57506111ee612f1b565b73ffffffffffffffffffffffffffffffffffffffff16601560009054906101000a900473ffffffffffffffffffffffffffffffffffffffff1673ffffffffffffffffffffffffffffffffffffffff16145b61127e576040517f08c379a000000000000000000000000000000000000000000000000000000000815260040161127590614b63565b60405180910390fd5b6001601960008373ffffffffffffffffffffffffffffffffffffffff1673ffffffffffffffffffffffffffffffffffffffff16815260200190815260200160002060006101000a81548160ff02191690831515021790555050565b6112ea6112e4612f1b565b8261301e565b611329576040517f08c379a000000000000000000000000000000000000000000000000000000000815260040161132090614d55565b60405180910390fd5b6113348383836130fc565b505050565b8047101561137c576040517f08c379a000000000000000000000000000000000000000000000000000000000815260040161137390614dc1565b60405180910390fd5b6000600390506000670de0b6b3a7640000836113989190614de1565b905081816113a69190614e6a565b905060005b8281101561144257600f81600381106113c7576113c6614e9b565b5b0160009054906101000a900473ffffffffffffffffffffffffffffffffffffffff1673ffffffffffffffffffffffffffffffffffffffff166108fc839081150290604051600060405180830381858888f1935050505015801561142e573d6000803e3d6000fd5b50808061143a90614c9a565b9150506113ab565b50505050565b600061145383611d19565b8210611494576040517f08c379a000000000000000000000000000000000000000000000000000000000815260040161148b90614f3c565b60405180910390fd5b600660008473ffffffffffffffffffffffffffffffffffffffff1673ffffffffffffffffffffffffffffffffffffffff168152602001908152602001600020600083815260200190815260200160002054905092915050565b6114f5612f1b565b73ffffffffffffffffffffffffffffffffffffffff1661151361228f565b73ffffffffffffffffffffffffffffffffffffffff1614806115895750611538612f1b565b73ffffffffffffffffffffffffffffffffffffffff16601560009054906101000a900473ffffffffffffffffffffffffffffffffffffffff1673ffffffffffffffffffffffffffffffffffffffff16145b6115c8576040517f08c379a00000000000000000000000000000000000000000000000000000000081526004016115bf90614b63565b60405180910390fd5b6001601b60008373ffffffffffffffffffffffffffffffffffffffff1673ffffffffffffffffffffffffffffffffffffffff16815260200190815260200160002060006101000a81548160ff02191690831515021790555050565b61163e83838360405180602001604052806000815250612522565b505050565b61165461164e612f1b565b8261301e565b611693576040517f08c379a000000000000000000000000000000000000000000000000000000000815260040161168a90614fce565b60405180910390fd5b61169c81613358565b50565b670214e8348c4f000081565b600e60019054906101000a900460ff166116fa576040517f08c379a00000000000000000000000000000000000000000000000000000000081526004016116f190615060565b60405180910390fd5b3481670214e8348c4f000061170f9190614de1565b1115611750576040517f08c379a0000000000000000000000000000000000000000000000000000000008152600401611747906150cc565b60405180910390fd5b60011515601960003373ffffffffffffffffffffffffffffffffffffffff1673ffffffffffffffffffffffffffffffffffffffff16815260200190815260200160002060009054906101000a900460ff161515146117e3576040517f08c379a00000000000000000000000000000000000000000000000000000000081526004016117da9061515e565b60405180910390fd5b600281601a60003373ffffffffffffffffffffffffffffffffffffffff1673ffffffffffffffffffffffffffffffffffffffff168152602001908152602001600020546118309190614c44565b1115611871576040517f08c379a0000000000000000000000000000000000000000000000000000000008152600401611868906151f0565b60405180910390fd5b60005b8181101561191f576000600161188a600b612fdc565b6118949190614c44565b9050600c54811161190b576118a93382612fea565b6118b3600b613008565b6001601a60003373ffffffffffffffffffffffffffffffffffffffff1673ffffffffffffffffffffffffffffffffffffffff16815260200190815260200160002060008282546119039190614c44565b925050819055505b50808061191790614c9a565b915050611874565b5050565b61192b612f1b565b73ffffffffffffffffffffffffffffffffffffffff1661194961228f565b73ffffffffffffffffffffffffffffffffffffffff1614806119bf575061196e612f1b565b73ffffffffffffffffffffffffffffffffffffffff16601560009054906101000a900473ffffffffffffffffffffffffffffffffffffffff1673ffffffffffffffffffffffffffffffffffffffff16145b6119fe576040517f08c379a00000000000000000000000000000000000000000000000000000000081526004016119f590614b63565b60405180910390fd5b6000670de0b6b3a764000083611a149190614de1565b90508173ffffffffffffffffffffffffffffffffffffffff166108fc829081150290604051600060405180830381858888f19350505050158015611a5c573d6000803e3d6000fd5b50505050565b6000611a6c61117d565b8210611aad576040517f08c379a0000000000000000000000000000000000000000000000000000000008152600401611aa490615282565b60405180910390fd5b60088281548110611ac157611ac0614e9b565b5b90600052602060002001549050919050565b611adb612f1b565b73ffffffffffffffffffffffffffffffffffffffff16611af961228f565b73ffffffffffffffffffffffffffffffffffffffff161480611b6f5750611b1e612f1b565b73ffffffffffffffffffffffffffffffffffffffff16601560009054906101000a900473ffffffffffffffffffffffffffffffffffffffff1673ffffffffffffffffffffffffffffffffffffffff16145b611bae576040517f08c379a0000000000000000000000000000000000000000000000000000000008152600401611ba590614b63565b60405180910390fd5b80600d9080519060200190611bc49291906140cc565b5050565b6000611bd4600b612fdc565b905090565b6000806002600084815260200190815260200160002060009054906101000a900473ffffffffffffffffffffffffffffffffffffffff169050600073ffffffffffffffffffffffffffffffffffffffff168173ffffffffffffffffffffffffffffffffffffffff161415611c82576040517f08c379a0000000000000000000000000000000000000000000000000000000008152600401611c7990615314565b60405180910390fd5b80915050919050565b600d8054611c9890614909565b80601f0160208091040260200160405190810160405280929190818152602001828054611cc490614909565b8015611d115780601f10611ce657610100808354040283529160200191611d11565b820191906000526020600020905b815481529060010190602001808311611cf457829003601f168201915b505050505081565b60008073ffffffffffffffffffffffffffffffffffffffff168273ffffffffffffffffffffffffffffffffffffffff161415611d8a576040517f08c379a0000000000000000000000000000000000000000000000000000000008152600401611d81906153a6565b60405180910390fd5b600360008373ffffffffffffffffffffffffffffffffffffffff1673ffffffffffffffffffffffffffffffffffffffff168152602001908152602001600020549050919050565b611dd9612f1b565b73ffffffffffffffffffffffffffffffffffffffff16611df761228f565b73ffffffffffffffffffffffffffffffffffffffff1614611e4d576040517f08c379a0000000000000000000000000000000000000000000000000000000008152600401611e4490615412565b60405180910390fd5b611e576000613469565b565b611e61612f1b565b73ffffffffffffffffffffffffffffffffffffffff16611e7f61228f565b73ffffffffffffffffffffffffffffffffffffffff161480611ef55750611ea4612f1b565b73ffffffffffffffffffffffffffffffffffffffff16601560009054906101000a900473ffffffffffffffffffffffffffffffffffffffff1673ffffffffffffffffffffffffffffffffffffffff16145b611f34576040517f08c379a0000000000000000000000000000000000000000000000000000000008152600401611f2b90614b63565b60405180910390fd5b600e60009054906101000a900460ff1615600e60006101000a81548160ff021916908315150217905550565b611f68612f1b565b73ffffffffffffffffffffffffffffffffffffffff16611f8661228f565b73ffffffffffffffffffffffffffffffffffffffff161480611ffc5750611fab612f1b565b73ffffffffffffffffffffffffffffffffffffffff16601560009054906101000a900473ffffffffffffffffffffffffffffffffffffffff1673ffffffffffffffffffffffffffffffffffffffff16145b61203b576040517f08c379a000000000000000000000000000000000000000000000000000000000815260040161203290614b63565b60405180910390fd5b600060165414612080576040517f08c379a00000000000000000000000000000000000000000000000000000000081526004016120779061547e565b60405180910390fd5b43601781905550565b600281565b6000600e60019054906101000a900460ff16905090565b6120ad612f1b565b73ffffffffffffffffffffffffffffffffffffffff166120cb61228f565b73ffffffffffffffffffffffffffffffffffffffff16148061214157506120f0612f1b565b73ffffffffffffffffffffffffffffffffffffffff16601560009054906101000a900473ffffffffffffffffffffffffffffffffffffffff1673ffffffffffffffffffffffffffffffffffffffff16145b612180576040517f08c379a000000000000000000000000000000000000000000000000000000000815260040161217790614b63565b60405180910390fd5b600e60019054906101000a900460ff1615600e60016101000a81548160ff021916908315150217905550565b60006121b6612f1b565b73ffffffffffffffffffffffffffffffffffffffff166121d461228f565b73ffffffffffffffffffffffffffffffffffffffff16148061224a57506121f9612f1b565b73ffffffffffffffffffffffffffffffffffffffff16601560009054906101000a900473ffffffffffffffffffffffffffffffffffffffff1673ffffffffffffffffffffffffffffffffffffffff16145b612289576040517f08c379a000000000000000000000000000000000000000000000000000000000815260040161228090614b63565b60405180910390fd5b47905090565b6000600a60009054906101000a900473ffffffffffffffffffffffffffffffffffffffff16905090565b6060600180546122c890614909565b80601f01602080910402602001604051908101604052809291908181526020018280546122f490614909565b80156123415780601f1061231657610100808354040283529160200191612341565b820191906000526020600020905b81548152906001019060200180831161232457829003601f168201915b5050505050905090565b612353612f1b565b73ffffffffffffffffffffffffffffffffffffffff168273ffffffffffffffffffffffffffffffffffffffff1614156123c1576040517f08c379a00000000000000000000000000000000000000000000000000000000081526004016123b8906154ea565b60405180910390fd5b80600560006123ce612f1b565b73ffffffffffffffffffffffffffffffffffffffff1673ffffffffffffffffffffffffffffffffffffffff16815260200190815260200160002060008473ffffffffffffffffffffffffffffffffffffffff1673ffffffffffffffffffffffffffffffffffffffff16815260200190815260200160002060006101000a81548160ff0219169083151502179055508173ffffffffffffffffffffffffffffffffffffffff1661247b612f1b565b73ffffffffffffffffffffffffffffffffffffffff167f17307eab39ab6107e8899845ad3d59bd9653f200f220920489ca2b5937696c31836040516124c09190614223565b60405180910390a35050565b6000601960008373ffffffffffffffffffffffffffffffffffffffff1673ffffffffffffffffffffffffffffffffffffffff16815260200190815260200160002060009054906101000a900460ff169050919050565b61253361252d612f1b565b8361301e565b612572576040517f08c379a000000000000000000000000000000000000000000000000000000000815260040161256990614d55565b60405180910390fd5b61257e8484848461352f565b50505050565b600481565b606061259482612eaf565b6125d3576040517f08c379a00000000000000000000000000000000000000000000000000000000081526004016125ca9061557c565b60405180910390fd5b60006125dd61358b565b905060008151116125fd5760405180602001604052806000815250612628565b806126078461361d565b6040516020016126189291906155d8565b6040516020818303038152906040525b915050919050565b60165481565b61263e612f1b565b73ffffffffffffffffffffffffffffffffffffffff1661265c61228f565b73ffffffffffffffffffffffffffffffffffffffff16146126b2576040517f08c379a00000000000000000000000000000000000000000000000000000000081526004016126a990615412565b60405180910390fd5b80601560006101000a81548173ffffffffffffffffffffffffffffffffffffffff021916908373ffffffffffffffffffffffffffffffffffffffff16021790555050565b6000601b60008373ffffffffffffffffffffffffffffffffffffffff1673ffffffffffffffffffffffffffffffffffffffff16815260200190815260200160002060009054906101000a900460ff169050919050565b60175481565b6000600e60009054906101000a900460ff16905090565b6000600560008473ffffffffffffffffffffffffffffffffffffffff1673ffffffffffffffffffffffffffffffffffffffff16815260200190815260200160002060008373ffffffffffffffffffffffffffffffffffffffff1673ffffffffffffffffffffffffffffffffffffffff16815260200190815260200160002060009054906101000a900460ff16905092915050565b612805612f1b565b73ffffffffffffffffffffffffffffffffffffffff1661282361228f565b73ffffffffffffffffffffffffffffffffffffffff1614806128995750612848612f1b565b73ffffffffffffffffffffffffffffffffffffffff16601560009054906101000a900473ffffffffffffffffffffffffffffffffffffffff1673ffffffffffffffffffffffffffffffffffffffff16145b6128d8576040517f08c379a00000000000000000000000000000000000000000000000000000000081526004016128cf90614b63565b60405180910390fd5b60006016541461291d576040517f08c379a00000000000000000000000000000000000000000000000000000000081526004016129149061547e565b60405180910390fd5b60006017541415612963576040517f08c379a000000000000000000000000000000000000000000000000000000000815260040161295a90615648565b60405180910390fd5b600c546017544060001c6129779190615668565b60168190555060ff6017544361298d9190615699565b11156129b857600c546001436129a39190615699565b4060001c6129b19190615668565b6016819055505b600060165414156129cc5760016016819055505b565b600e60009054906101000a900460ff1681565b6129e9612f1b565b73ffffffffffffffffffffffffffffffffffffffff16612a0761228f565b73ffffffffffffffffffffffffffffffffffffffff1614612a5d576040517f08c379a0000000000000000000000000000000000000000000000000000000008152600401612a5490615412565b60405180910390fd5b600073ffffffffffffffffffffffffffffffffffffffff168173ffffffffffffffffffffffffffffffffffffffff161415612acd576040517f08c379a0000000000000000000000000000000000000000000000000000000008152600401612ac49061573f565b60405180910390fd5b612ad681613469565b50565b6000601a60008373ffffffffffffffffffffffffffffffffffffffff1673ffffffffffffffffffffffffffffffffffffffff168152602001908152602001600020549050919050565b600e60009054906101000a900460ff16612b71576040517f08c379a0000000000000000000000000000000000000000000000000000000008152600401612b68906157d1565b60405180910390fd5b3481670214e8348c4f0000612b869190614de1565b1115612bc7576040517f08c379a0000000000000000000000000000000000000000000000000000000008152600401612bbe906150cc565b60405180910390fd5b60011515601b60003373ffffffffffffffffffffffffffffffffffffffff1673ffffffffffffffffffffffffffffffffffffffff16815260200190815260200160002060009054906101000a900460ff16151514612c5a576040517f08c379a0000000000000000000000000000000000000000000000000000000008152600401612c5190615863565b60405180910390fd5b600481601c60003373ffffffffffffffffffffffffffffffffffffffff1673ffffffffffffffffffffffffffffffffffffffff16815260200190815260200160002054612ca79190614c44565b1115612ce8576040517f08c379a0000000000000000000000000000000000000000000000000000000008152600401612cdf906158f5565b60405180910390fd5b6002811115612d2c576040517f08c379a0000000000000000000000000000000000000000000000000000000008152600401612d2390615987565b60405180910390fd5b600c5481612d3861117d565b612d429190614c44565b1115612d83576040517f08c379a0000000000000000000000000000000000000000000000000000000008152600401612d7a90614bf5565b60405180910390fd5b60005b81811015612e315760006001612d9c600b612fdc565b612da69190614c44565b9050600c548111612e1d57612dbb3382612fea565b612dc5600b613008565b6001601c60003373ffffffffffffffffffffffffffffffffffffffff1673ffffffffffffffffffffffffffffffffffffffff1681526020019081526020016000206000828254612e159190614c44565b925050819055505b508080612e2990614c9a565b915050612d86565b5050565b60007f780e9d63000000000000000000000000000000000000000000000000000000007bffffffffffffffffffffffffffffffffffffffffffffffffffffffff1916827bffffffffffffffffffffffffffffffffffffffffffffffffffffffff19161480612ea85750612ea78261377e565b5b9050919050565b60008073ffffffffffffffffffffffffffffffffffffffff166002600084815260200190815260200160002060009054906101000a900473ffffffffffffffffffffffffffffffffffffffff1673ffffffffffffffffffffffffffffffffffffffff1614159050919050565b600033905090565b816004600083815260200190815260200160002060006101000a81548173ffffffffffffffffffffffffffffffffffffffff021916908373ffffffffffffffffffffffffffffffffffffffff160217905550808273ffffffffffffffffffffffffffffffffffffffff16612f9683611bd9565b73ffffffffffffffffffffffffffffffffffffffff167f8c5be1e5ebec7d5bd14f71427d1e84f3dd0314c0f7b2291e5b200ac8c7c3b92560405160405180910390a45050565b600081600001549050919050565b613004828260405180602001604052806000815250613860565b5050565b6001816000016000828254019250508190555050565b600061302982612eaf565b613068576040517f08c379a000000000000000000000000000000000000000000000000000000000815260040161305f90615a19565b60405180910390fd5b600061307383611bd9565b90508073ffffffffffffffffffffffffffffffffffffffff168473ffffffffffffffffffffffffffffffffffffffff1614806130e257508373ffffffffffffffffffffffffffffffffffffffff166130ca84610c8f565b73ffffffffffffffffffffffffffffffffffffffff16145b806130f357506130f28185612769565b5b91505092915050565b8273ffffffffffffffffffffffffffffffffffffffff1661311c82611bd9565b73ffffffffffffffffffffffffffffffffffffffff1614613172576040517f08c379a000000000000000000000000000000000000000000000000000000000815260040161316990615aab565b60405180910390fd5b600073ffffffffffffffffffffffffffffffffffffffff168273ffffffffffffffffffffffffffffffffffffffff1614156131e2576040517f08c379a00000000000000000000000000000000000000000000000000000000081526004016131d990615b3d565b60405180910390fd5b6131ed8383836138bb565b6131f8600082612f23565b6001600360008573ffffffffffffffffffffffffffffffffffffffff1673ffffffffffffffffffffffffffffffffffffffff16815260200190815260200160002060008282546132489190615699565b925050819055506001600360008473ffffffffffffffffffffffffffffffffffffffff1673ffffffffffffffffffffffffffffffffffffffff168152602001908152602001600020600082825461329f9190614c44565b92505081905550816002600083815260200190815260200160002060006101000a81548173ffffffffffffffffffffffffffffffffffffffff021916908373ffffffffffffffffffffffffffffffffffffffff160217905550808273ffffffffffffffffffffffffffffffffffffffff168473ffffffffffffffffffffffffffffffffffffffff167fddf252ad1be2c89b69c2b068fc378daa952ba7f163c4a11628f55a4df523b3ef60405160405180910390a4505050565b600061336382611bd9565b9050613371816000846138bb565b61337c600083612f23565b6001600360008373ffffffffffffffffffffffffffffffffffffffff1673ffffffffffffffffffffffffffffffffffffffff16815260200190815260200160002060008282546133cc9190615699565b925050819055506002600083815260200190815260200160002060006101000a81549073ffffffffffffffffffffffffffffffffffffffff021916905581600073ffffffffffffffffffffffffffffffffffffffff168273ffffffffffffffffffffffffffffffffffffffff167fddf252ad1be2c89b69c2b068fc378daa952ba7f163c4a11628f55a4df523b3ef60405160405180910390a45050565b6000600a60009054906101000a900473ffffffffffffffffffffffffffffffffffffffff16905081600a60006101000a81548173ffffffffffffffffffffffffffffffffffffffff021916908373ffffffffffffffffffffffffffffffffffffffff1602179055508173ffffffffffffffffffffffffffffffffffffffff168173ffffffffffffffffffffffffffffffffffffffff167f8be0079c531659141344cd1fd0a4f28419497f9722a3daafe3b4186f6b6457e060405160405180910390a35050565b61353a8484846130fc565b613546848484846138cb565b613585576040517f08c379a000000000000000000000000000000000000000000000000000000000815260040161357c90615bcf565b60405180910390fd5b50505050565b6060600d805461359a90614909565b80601f01602080910402602001604051908101604052809291908181526020018280546135c690614909565b80156136135780601f106135e857610100808354040283529160200191613613565b820191906000526020600020905b8154815290600101906020018083116135f657829003601f168201915b5050505050905090565b60606000821415613665576040518060400160405280600181526020017f30000000000000000000000000000000000000000000000000000000000000008152509050613779565b600082905060005b6000821461369757808061368090614c9a565b915050600a826136909190614e6a565b915061366d565b60008167ffffffffffffffff8111156136b3576136b261442e565b5b6040519080825280601f01601f1916602001820160405280156136e55781602001600182028036833780820191505090505b5090505b60008514613772576001826136fe9190615699565b9150600a8561370d9190615668565b60306137199190614c44565b60f81b81838151811061372f5761372e614e9b565b5b60200101907effffffffffffffffffffffffffffffffffffffffffffffffffffffffffffff1916908160001a905350600a8561376b9190614e6a565b94506136e9565b8093505050505b919050565b60007f80ac58cd000000000000000000000000000000000000000000000000000000007bffffffffffffffffffffffffffffffffffffffffffffffffffffffff1916827bffffffffffffffffffffffffffffffffffffffffffffffffffffffff1916148061384957507f5b5e139f000000000000000000000000000000000000000000000000000000007bffffffffffffffffffffffffffffffffffffffffffffffffffffffff1916827bffffffffffffffffffffffffffffffffffffffffffffffffffffffff1916145b80613859575061385882613a62565b5b9050919050565b61386a8383613acc565b61387760008484846138cb565b6138b6576040517f08c379a00000000000000000000000000000000000000000000000000000000081526004016138ad90615bcf565b60405180910390fd5b505050565b6138c6838383613c9a565b505050565b60006138ec8473ffffffffffffffffffffffffffffffffffffffff16613dae565b15613a55578373ffffffffffffffffffffffffffffffffffffffff1663150b7a02613915612f1b565b8786866040518563ffffffff1660e01b81526004016139379493929190615c44565b602060405180830381600087803b15801561395157600080fd5b505af192505050801561398257506040513d601f19601f8201168201806040525081019061397f9190615ca5565b60015b613a05573d80600081146139b2576040519150601f19603f3d011682016040523d82523d6000602084013e6139b7565b606091505b506000815114156139fd576040517f08c379a00000000000000000000000000000000000000000000000000000000081526004016139f490615bcf565b60405180910390fd5b805181602001fd5b63150b7a0260e01b7bffffffffffffffffffffffffffffffffffffffffffffffffffffffff1916817bffffffffffffffffffffffffffffffffffffffffffffffffffffffff191614915050613a5a565b600190505b949350505050565b60007f01ffc9a7000000000000000000000000000000000000000000000000000000007bffffffffffffffffffffffffffffffffffffffffffffffffffffffff1916827bffffffffffffffffffffffffffffffffffffffffffffffffffffffff1916149050919050565b600073ffffffffffffffffffffffffffffffffffffffff168273ffffffffffffffffffffffffffffffffffffffff161415613b3c576040517f08c379a0000000000000000000000000000000000000000000000000000000008152600401613b3390615d1e565b60405180910390fd5b613b4581612eaf565b15613b85576040517f08c379a0000000000000000000000000000000000000000000000000000000008152600401613b7c90615d8a565b60405180910390fd5b613b91600083836138bb565b6001600360008473ffffffffffffffffffffffffffffffffffffffff1673ffffffffffffffffffffffffffffffffffffffff1681526020019081526020016000206000828254613be19190614c44565b92505081905550816002600083815260200190815260200160002060006101000a81548173ffffffffffffffffffffffffffffffffffffffff021916908373ffffffffffffffffffffffffffffffffffffffff160217905550808273ffffffffffffffffffffffffffffffffffffffff16600073ffffffffffffffffffffffffffffffffffffffff167fddf252ad1be2c89b69c2b068fc378daa952ba7f163c4a11628f55a4df523b3ef60405160405180910390a45050565b613ca5838383613dc1565b600073ffffffffffffffffffffffffffffffffffffffff168373ffffffffffffffffffffffffffffffffffffffff161415613ce857613ce381613dc6565b613d27565b8173ffffffffffffffffffffffffffffffffffffffff168373ffffffffffffffffffffffffffffffffffffffff1614613d2657613d258382613e0f565b5b5b600073ffffffffffffffffffffffffffffffffffffffff168273ffffffffffffffffffffffffffffffffffffffff161415613d6a57613d6581613f7c565b613da9565b8273ffffffffffffffffffffffffffffffffffffffff168273ffffffffffffffffffffffffffffffffffffffff1614613da857613da7828261404d565b5b5b505050565b600080823b905060008111915050919050565b505050565b6008805490506009600083815260200190815260200160002081905550600881908060018154018082558091505060019003906000526020600020016000909190919091505550565b60006001613e1c84611d19565b613e269190615699565b9050600060076000848152602001908152602001600020549050818114613f0b576000600660008673ffffffffffffffffffffffffffffffffffffffff1673ffffffffffffffffffffffffffffffffffffffff168152602001908152602001600020600084815260200190815260200160002054905080600660008773ffffffffffffffffffffffffffffffffffffffff1673ffffffffffffffffffffffffffffffffffffffff168152602001908152602001600020600084815260200190815260200160002081905550816007600083815260200190815260200160002081905550505b6007600084815260200190815260200160002060009055600660008573ffffffffffffffffffffffffffffffffffffffff1673ffffffffffffffffffffffffffffffffffffffff16815260200190815260200160002060008381526020019081526020016000206000905550505050565b60006001600880549050613f909190615699565b9050600060096000848152602001908152602001600020549050600060088381548110613fc057613fbf614e9b565b5b906000526020600020015490508060088381548110613fe257613fe1614e9b565b5b90600052602060002001819055508160096000838152602001908152602001600020819055506009600085815260200190815260200160002060009055600880548061403157614030615daa565b5b6001900381819060005260206000200160009055905550505050565b600061405883611d19565b905081600660008573ffffffffffffffffffffffffffffffffffffffff1673ffffffffffffffffffffffffffffffffffffffff168152602001908152602001600020600083815260200190815260200160002081905550806007600084815260200190815260200160002081905550505050565b8280546140d890614909565b90600052602060002090601f0160209004810192826140fa5760008555614141565b82601f1061411357805160ff1916838001178555614141565b82800160010185558215614141579182015b82811115614140578251825591602001919060010190614125565b5b50905061414e9190614152565b5090565b5b8082111561416b576000816000905550600101614153565b5090565b6000604051905090565b600080fd5b600080fd5b60007fffffffff0000000000000000000000000000000000000000000000000000000082169050919050565b6141b881614183565b81146141c357600080fd5b50565b6000813590506141d5816141af565b92915050565b6000602082840312156141f1576141f0614179565b5b60006141ff848285016141c6565b91505092915050565b60008115159050919050565b61421d81614208565b82525050565b60006020820190506142386000830184614214565b92915050565b600081519050919050565b600082825260208201905092915050565b60005b8381101561427857808201518184015260208101905061425d565b83811115614287576000848401525b50505050565b6000601f19601f8301169050919050565b60006142a98261423e565b6142b38185614249565b93506142c381856020860161425a565b6142cc8161428d565b840191505092915050565b600060208201905081810360008301526142f1818461429e565b905092915050565b6000819050919050565b61430c816142f9565b811461431757600080fd5b50565b60008135905061432981614303565b92915050565b60006020828403121561434557614344614179565b5b60006143538482850161431a565b91505092915050565b600073ffffffffffffffffffffffffffffffffffffffff82169050919050565b60006143878261435c565b9050919050565b6143978161437c565b82525050565b60006020820190506143b2600083018461438e565b92915050565b6143c18161437c565b81146143cc57600080fd5b50565b6000813590506143de816143b8565b92915050565b600080604083850312156143fb576143fa614179565b5b6000614409858286016143cf565b925050602061441a8582860161431a565b9150509250929050565b600080fd5b600080fd5b7f4e487b7100000000000000000000000000000000000000000000000000000000600052604160045260246000fd5b6144668261428d565b810181811067ffffffffffffffff821117156144855761448461442e565b5b80604052505050565b600061449861416f565b90506144a4828261445d565b919050565b600067ffffffffffffffff8211156144c4576144c361442e565b5b6144cd8261428d565b9050602081019050919050565b82818337600083830152505050565b60006144fc6144f7846144a9565b61448e565b90508281526020810184848401111561451857614517614429565b5b6145238482856144da565b509392505050565b600082601f8301126145405761453f614424565b5b81356145508482602086016144e9565b91505092915050565b60006020828403121561456f5761456e614179565b5b600082013567ffffffffffffffff81111561458d5761458c61417e565b5b6145998482850161452b565b91505092915050565b600080604083850312156145b9576145b8614179565b5b60006145c78582860161431a565b92505060206145d8858286016143cf565b9150509250929050565b6000602082840312156145f8576145f7614179565b5b6000614606848285016143cf565b91505092915050565b614618816142f9565b82525050565b6000602082019050614633600083018461460f565b92915050565b60008060006060848603121561465257614651614179565b5b6000614660868287016143cf565b9350506020614671868287016143cf565b92505060406146828682870161431a565b9150509250925092565b60006146978261435c565b9050919050565b6146a78161468c565b81146146b257600080fd5b50565b6000813590506146c48161469e565b92915050565b600080604083850312156146e1576146e0614179565b5b60006146ef8582860161431a565b9250506020614700858286016146b5565b9150509250929050565b61471381614208565b811461471e57600080fd5b50565b6000813590506147308161470a565b92915050565b6000806040838503121561474d5761474c614179565b5b600061475b858286016143cf565b925050602061476c85828601614721565b9150509250929050565b600067ffffffffffffffff8211156147915761479061442e565b5b61479a8261428d565b9050602081019050919050565b60006147ba6147b584614776565b61448e565b9050828152602081018484840111156147d6576147d5614429565b5b6147e18482856144da565b509392505050565b600082601f8301126147fe576147fd614424565b5b813561480e8482602086016147a7565b91505092915050565b6000806000806080858703121561483157614830614179565b5b600061483f878288016143cf565b9450506020614850878288016143cf565b93505060406148618782880161431a565b925050606085013567ffffffffffffffff8111156148825761488161417e565b5b61488e878288016147e9565b91505092959194509250565b600080604083850312156148b1576148b0614179565b5b60006148bf858286016143cf565b92505060206148d0858286016143cf565b9150509250929050565b7f4e487b7100000000000000000000000000000000000000000000000000000000600052602260045260246000fd5b6000600282049050600182168061492157607f821691505b60208210811415614935576149346148da565b5b50919050565b7f4552433732313a20617070726f76656420717565727920666f72206e6f6e657860008201527f697374656e7420746f6b656e0000000000000000000000000000000000000000602082015250565b6000614997602c83614249565b91506149a28261493b565b604082019050919050565b600060208201905081810360008301526149c68161498a565b9050919050565b7f4552433732313a20617070726f76616c20746f2063757272656e74206f776e6560008201527f7200000000000000000000000000000000000000000000000000000000000000602082015250565b6000614a29602183614249565b9150614a34826149cd565b604082019050919050565b60006020820190508181036000830152614a5881614a1c565b9050919050565b7f4552433732313a20617070726f76652063616c6c6572206973206e6f74206f7760008201527f6e6572206e6f7220617070726f76656420666f7220616c6c0000000000000000602082015250565b6000614abb603883614249565b9150614ac682614a5f565b604082019050919050565b60006020820190508181036000830152614aea81614aae565b9050919050565b7f43616c6c6572206973206e6f7420746865206f776e6572206f72206d616e616760008201527f6572000000000000000000000000000000000000000000000000000000000000602082015250565b6000614b4d602283614249565b9150614b5882614af1565b604082019050919050565b60006020820190508181036000830152614b7c81614b40565b9050919050565b7f507572636861736520776f756c6420657863656564206d617820737570706c7960008201527f206f66204d656e61636573000000000000000000000000000000000000000000602082015250565b6000614bdf602b83614249565b9150614bea82614b83565b604082019050919050565b60006020820190508181036000830152614c0e81614bd2565b9050919050565b7f4e487b7100000000000000000000000000000000000000000000000000000000600052601160045260246000fd5b6000614c4f826142f9565b9150614c5a836142f9565b9250827fffffffffffffffffffffffffffffffffffffffffffffffffffffffffffffffff03821115614c8f57614c8e614c15565b5b828201905092915050565b6000614ca5826142f9565b91507fffffffffffffffffffffffffffffffffffffffffffffffffffffffffffffffff821415614cd857614cd7614c15565b5b600182019050919050565b7f4552433732313a207472616e736665722063616c6c6572206973206e6f74206f60008201527f776e6572206e6f7220617070726f766564000000000000000000000000000000602082015250565b6000614d3f603183614249565b9150614d4a82614ce3565b604082019050919050565b60006020820190508181036000830152614d6e81614d32565b9050919050565b7f496e737566666963656e742066756e64732e0000000000000000000000000000600082015250565b6000614dab601283614249565b9150614db682614d75565b602082019050919050565b60006020820190508181036000830152614dda81614d9e565b9050919050565b6000614dec826142f9565b9150614df7836142f9565b9250817fffffffffffffffffffffffffffffffffffffffffffffffffffffffffffffffff0483118215151615614e3057614e2f614c15565b5b828202905092915050565b7f4e487b7100000000000000000000000000000000000000000000000000000000600052601260045260246000fd5b6000614e75826142f9565b9150614e80836142f9565b925082614e9057614e8f614e3b565b5b828204905092915050565b7f4e487b7100000000000000000000000000000000000000000000000000000000600052603260045260246000fd5b7f455243373231456e756d657261626c653a206f776e657220696e646578206f7560008201527f74206f6620626f756e6473000000000000000000000000000000000000000000602082015250565b6000614f26602b83614249565b9150614f3182614eca565b604082019050919050565b60006020820190508181036000830152614f5581614f19565b9050919050565b7f4552433732314275726e61626c653a2063616c6c6572206973206e6f74206f7760008201527f6e6572206e6f7220617070726f76656400000000000000000000000000000000602082015250565b6000614fb8603083614249565b9150614fc382614f5c565b604082019050919050565b60006020820190508181036000830152614fe781614fab565b9050919050565b7f5072652053616c65206d7573742062652061637469766520746f206d696e742060008201527f4d656e6163657300000000000000000000000000000000000000000000000000602082015250565b600061504a602783614249565b915061505582614fee565b604082019050919050565b600060208201905081810360008301526150798161503d565b9050919050565b7f45746865722076616c75652073656e74206973206e6f7420636f727265637400600082015250565b60006150b6601f83614249565b91506150c182615080565b602082019050919050565b600060208201905081810360008301526150e5816150a9565b9050919050565b7f536f7272792c20796f752772652061646472657373206973206e6f742077686960008201527f74656c697374656420666f722070726573616c65000000000000000000000000602082015250565b6000615148603483614249565b9150615153826150ec565b604082019050919050565b600060208201905081810360008301526151778161513b565b9050919050565b7f507572636861736520776f756c64206578636565642070726573616c65206c6960008201527f6d69740000000000000000000000000000000000000000000000000000000000602082015250565b60006151da602383614249565b91506151e58261517e565b604082019050919050565b60006020820190508181036000830152615209816151cd565b9050919050565b7f455243373231456e756d657261626c653a20676c6f62616c20696e646578206f60008201527f7574206f6620626f756e64730000000000000000000000000000000000000000602082015250565b600061526c602c83614249565b915061527782615210565b604082019050919050565b6000602082019050818103600083015261529b8161525f565b9050919050565b7f4552433732313a206f776e657220717565727920666f72206e6f6e657869737460008201527f656e7420746f6b656e0000000000000000000000000000000000000000000000602082015250565b60006152fe602983614249565b9150615309826152a2565b604082019050919050565b6000602082019050818103600083015261532d816152f1565b9050919050565b7f4552433732313a2062616c616e636520717565727920666f7220746865207a6560008201527f726f206164647265737300000000000000000000000000000000000000000000602082015250565b6000615390602a83614249565b915061539b82615334565b604082019050919050565b600060208201905081810360008301526153bf81615383565b9050919050565b7f4f776e61626c653a2063616c6c6572206973206e6f7420746865206f776e6572600082015250565b60006153fc602083614249565b9150615407826153c6565b602082019050919050565b6000602082019050818103600083015261542b816153ef565b9050919050565b7f5374617274696e6720696e64657820697320616c726561647920736574000000600082015250565b6000615468601d83614249565b915061547382615432565b602082019050919050565b600060208201905081810360008301526154978161545b565b9050919050565b7f4552433732313a20617070726f766520746f2063616c6c657200000000000000600082015250565b60006154d4601983614249565b91506154df8261549e565b602082019050919050565b60006020820190508181036000830152615503816154c7565b9050919050565b7f4552433732314d657461646174613a2055524920717565727920666f72206e6f60008201527f6e6578697374656e7420746f6b656e0000000000000000000000000000000000602082015250565b6000615566602f83614249565b91506155718261550a565b604082019050919050565b6000602082019050818103600083015261559581615559565b9050919050565b600081905092915050565b60006155b28261423e565b6155bc818561559c565b93506155cc81856020860161425a565b80840191505092915050565b60006155e482856155a7565b91506155f082846155a7565b91508190509392505050565b7f5374617274696e6720696e64657820626c6f636b206d75737420626520736574600082015250565b6000615632602083614249565b915061563d826155fc565b602082019050919050565b6000602082019050818103600083015261566181615625565b9050919050565b6000615673826142f9565b915061567e836142f9565b92508261568e5761568d614e3b565b5b828206905092915050565b60006156a4826142f9565b91506156af836142f9565b9250828210156156c2576156c1614c15565b5b828203905092915050565b7f4f776e61626c653a206e6577206f776e657220697320746865207a65726f206160008201527f6464726573730000000000000000000000000000000000000000000000000000602082015250565b6000615729602683614249565b9150615734826156cd565b604082019050919050565b600060208201905081810360008301526157588161571c565b9050919050565b7f53616c65206d7573742062652061637469766520746f206d696e74204d656e6160008201527f6365730000000000000000000000000000000000000000000000000000000000602082015250565b60006157bb602383614249565b91506157c68261575f565b604082019050919050565b600060208201905081810360008301526157ea816157ae565b9050919050565b7f536f7272792c20796f752772652061646472657373206973206e6f742077686960008201527f74656c697374656420666f722073616c65000000000000000000000000000000602082015250565b600061584d603183614249565b9150615858826157f1565b604082019050919050565b6000602082019050818103600083015261587c81615840565b9050919050565b7f507572636861736520776f756c642065786365656420796f75722077616c6c6560008201527f74206c696d697400000000000000000000000000000000000000000000000000602082015250565b60006158df602783614249565b91506158ea82615883565b604082019050919050565b6000602082019050818103600083015261590e816158d2565b9050919050565b7f596f752063616e206f6e6c79206d696e742032204d656e61636573206174206160008201527f2074696d65000000000000000000000000000000000000000000000000000000602082015250565b6000615971602583614249565b915061597c82615915565b604082019050919050565b600060208201905081810360008301526159a081615964565b9050919050565b7f4552433732313a206f70657261746f7220717565727920666f72206e6f6e657860008201527f697374656e7420746f6b656e0000000000000000000000000000000000000000602082015250565b6000615a03602c83614249565b9150615a0e826159a7565b604082019050919050565b60006020820190508181036000830152615a32816159f6565b9050919050565b7f4552433732313a207472616e73666572206f6620746f6b656e2074686174206960008201527f73206e6f74206f776e0000000000000000000000000000000000000000000000602082015250565b6000615a95602983614249565b9150615aa082615a39565b604082019050919050565b60006020820190508181036000830152615ac481615a88565b9050919050565b7f4552433732313a207472616e7366657220746f20746865207a65726f2061646460008201527f7265737300000000000000000000000000000000000000000000000000000000602082015250565b6000615b27602483614249565b9150615b3282615acb565b604082019050919050565b60006020820190508181036000830152615b5681615b1a565b9050919050565b7f4552433732313a207472616e7366657220746f206e6f6e20455243373231526560008201527f63656976657220696d706c656d656e7465720000000000000000000000000000602082015250565b6000615bb9603283614249565b9150615bc482615b5d565b604082019050919050565b60006020820190508181036000830152615be881615bac565b9050919050565b600081519050919050565b600082825260208201905092915050565b6000615c1682615bef565b615c208185615bfa565b9350615c3081856020860161425a565b615c398161428d565b840191505092915050565b6000608082019050615c59600083018761438e565b615c66602083018661438e565b615c73604083018561460f565b8181036060830152615c858184615c0b565b905095945050505050565b600081519050615c9f816141af565b92915050565b600060208284031215615cbb57615cba614179565b5b6000615cc984828501615c90565b91505092915050565b7f4552433732313a206d696e7420746f20746865207a65726f2061646472657373600082015250565b6000615d08602083614249565b9150615d1382615cd2565b602082019050919050565b60006020820190508181036000830152615d3781615cfb565b9050919050565b7f4552433732313a20746f6b656e20616c7265616479206d696e74656400000000600082015250565b6000615d74601c83614249565b9150615d7f82615d3e565b602082019050919050565b60006020820190508181036000830152615da381615d67565b9050919050565b7f4e487b7100000000000000000000000000000000000000000000000000000000600052603160045260246000fdfea26469706673582212206beaf2dddecf86ba0ed46c83340faaa7ea07e6d17d83c37590fcd5b55c7b3b6164736f6c63430008090033",
  "immutableReferences": {},
  "source": "//SPDX-License-Identifier: UNLICENSED\r\npragma solidity ^0.8.0;\r\n\r\nimport \"@openzeppelin/contracts/token/ERC721/ERC721.sol\";\r\nimport \"@openzeppelin/contracts/token/ERC721/extensions/ERC721Enumerable.sol\";\r\nimport \"@openzeppelin/contracts/token/ERC721/extensions/ERC721Burnable.sol\";\r\nimport \"@openzeppelin/contracts/access/Ownable.sol\";\r\nimport \"@openzeppelin/contracts/utils/Address.sol\";\r\nimport \"@openzeppelin/contracts/utils/Counters.sol\";\r\n\r\n////////////////////////////////////////////////////////////////////////////////\r\n////////////////////////////////////////////////////////////////////////////////\r\n////////////////////////////////////////////////////////////////////////////////\r\n////////////////////////////////////////////////////////////////////////////////\r\n////////////////////////////////////////////////////////////////////////////////\r\n////////////////////////////////////////////////////////////////////////////////\r\n////////////////////////////////////////////////////////////////////////////////\r\n//////////////////////////////^^^^^^^^-----^^^^^^^^/////////////////////////////\r\n//////////////////////////////(@@@@@@@@@@@@@@@@@@@//////////////////////////////\r\n////////////////////////////////////////////////////////////////////////////////\r\n////////////////////////@@@@@@@@@@@@@//////(@@@@@@@@@@@@@///////////////////////\r\n////////////////////////@@@@@@@@@@@@@@@///@@@@@@@@@@@@@@@///////////////////////\r\n////////////////////////@@@@@@@@@@@@@@@@/@@@@@@@@@@@@@@@@///////////////////////\r\n////////////////////////@@@@@@@@@/@@@@@@@@@@@@@/@@@@@@@@@///////////////////////\r\n////////////////////////@@@@@@@@@//@@@@@@@@@@@//@@@@@@@@@///////////////////////\r\n////////////////////////@@@@@@@@@///////////////@@@@@@@@@///////////////////////\r\n////////////////////////////////////////////////////////////////////////////////\r\n////////////////////////@@@@@@@@@///////////////@@@@@@@@@///////////////////////\r\n////////////////////////@@@@@@@@@//@@@@@@@@@@@//@@@@@@@@@///////////////////////\r\n////////////////////////@@@@@@@@@/@@@@@@@@@@@@@/@@@@@@@@@///////////////////////\r\n////////////////////////@@@@@@@@@@@@@@@@/@@@@@@@@@@@@@@@@///////////////////////\r\n////////////////////////@@@@@@@@@@@@@@@///@@@@@@@@@@@@@@@///////////////////////\r\n////////////////////////@@@@@@@@@@@@@%/////&@@@@@@@@@@@@@///////////////////////\r\n/////////////////////////////////@@@/////////@@@////////////////////////////////\r\n/////////////////////////////////@@///////////@@////////////////////////////////\r\n/////////////////////////////////@/////////////@////////////////////////////////\r\n////////////////////////////////////////////////////////////////////////////////\r\n////////////////////////////////////////////////////////////////////////////////\r\n////////////////////////////////////////////////////////////////////////////////\r\n////////////////////////////////////////////////////////////////////////////////\r\n////////////////////////////////////////////////////////////////////////////////\r\n////////////////////////////////////////////////////////////////////////////////\r\n\r\ncontract Menace_FullWhitelist is ERC721, ERC721Enumerable, ERC721Burnable, Ownable {\r\n    using Counters for Counters.Counter;\r\n\r\n    // Counter for number of menaces \r\n    Counters.Counter private _menaceCounter;\r\n    // Max token supply\r\n    uint public MAX_MENACE = 10000;\r\n    // Mint Price\r\n    uint256 public constant menacePrice = 150000000000000000; //0.15 ETH\r\n    // Base URI\r\n    string public baseURI;\r\n    // Sale is active\r\n    bool public saleIsActive = false;\r\n    // Presale is active\r\n    bool public preSaleIsActive = false;\r\n    // Max purchchase per txn\r\n    uint public constant maxMenaceTxn = 2;\r\n    // Max Menace per wallet\r\n    uint public constant maxMenaceWallet = 4;\r\n    // shareholders, shares, and manager\r\n    address[3] private _shareholders;\r\n\r\n    uint[3] private _shares;\r\n\r\n    address private _manager;\r\n    // starting index and block and provenance\r\n    uint256 public startingIndex;\r\n\r\n    uint256 public startingIndexBlock;\r\n\r\n    string public provenance;\r\n\r\n    // Presale Whitelist\r\n    mapping(address => bool) preSaleWhitelist;\r\n    mapping(address => uint256) preSaleMintCount;\r\n\r\n    //Sale Whitelist\r\n    mapping(address => bool) whitelist;\r\n    mapping(address => uint256) whitelistMintCount;\r\n\r\n    // constructor\r\n    constructor() ERC721(\"MenaceWorld\", \"MENACE\"){\r\n        // shareholders test network\r\n        _shareholders[0] = 0x24209282E198E7A807806F55a3322b98d3C65B29;\r\n        _shareholders[1] = 0xDfaAC748709D31d95D638dDBc2BCb8462dfd2076;\r\n        _shareholders[2] = 0xc593eE28Fc40c256d08D040A12FA1AF4D8ef26Bb;\r\n    }\r\n\r\n    /** Set Manager */\r\n    function setManager(address manager) public onlyOwner {\r\n        _manager = manager;\r\n    }\r\n    \r\n    /**\r\n     * Throws if called by any account other than the owner or manager.\r\n     */\r\n    modifier onlyOwnerOrManager() {\r\n        require(owner() == _msgSender() || _manager == _msgSender(), \"Caller is not the owner or manager\");\r\n        _;\r\n    }\r\n\r\n    /**\r\n     * Set base URI\r\n     */\r\n    function setBaseURI(string memory newBaseURI) public onlyOwnerOrManager {\r\n        baseURI = newBaseURI;\r\n    }\r\n    \r\n    function _baseURI() internal view virtual override returns (string memory){\r\n        return baseURI;\r\n    }\r\n\r\n    function totalToken() public view returns (uint256) {\r\n        return _menaceCounter.current();\r\n    }\r\n    \r\n    function contractBalance() public view onlyOwnerOrManager returns (uint256) {\r\n        return address(this).balance;\r\n    }\r\n\r\n    function addWalletToPreSale(address _address) public onlyOwnerOrManager {\r\n        preSaleWhitelist[_address] = true;\r\n    }\r\n\r\n    function isWalletInPreSale(address _address) public view returns (bool) {\r\n        return preSaleWhitelist[_address];\r\n    }\r\n\r\n    function preSaleMenaceMinted(address _address) public view returns (uint256){\r\n        return preSaleMintCount[_address];\r\n    }    \r\n    \r\n    function addWalletToSale(address _address) public onlyOwnerOrManager {\r\n        whitelist[_address] = true;\r\n    }\r\n\r\n    function isWalletInSale(address _address) public view returns (bool) {\r\n        return whitelist[_address];\r\n    }\r\n\r\n    function saleMenaceMinted(address _address) public view returns (uint256){\r\n        return whitelistMintCount[_address];\r\n    }\r\n\r\n    /*\r\n    * Set Sale\r\n    */\r\n    function flipSale() public onlyOwnerOrManager {\r\n        saleIsActive = !saleIsActive;\r\n    }\r\n\r\n    function stateSail() public view returns (bool){\r\n        return saleIsActive;\r\n    }\r\n\r\n    function flipPreSale() public onlyOwnerOrManager {\r\n        preSaleIsActive = !preSaleIsActive;\r\n    }\r\n\r\n    function statePreSail() public view returns (bool){\r\n        return preSaleIsActive;\r\n    }\r\n\r\n    /**\r\n    *  Grand Prize\r\n     */\r\n    function withdrawForGiveaway(uint256 amount, address payable to) public onlyOwnerOrManager {\r\n        uint256 payment = amount * 10 ** 18;\r\n        to.transfer(payment);\r\n    }\r\n\r\n    /**\r\n     * Withdraw \r\n     */\r\n    function withdraw(uint256 amount) public payable {\r\n        require(address(this).balance >= amount, \"Insufficent funds.\");\r\n        \r\n        uint256 len = _shareholders.length;\r\n        uint256 payment = amount * 10 ** 18;\r\n        payment = payment / len;\r\n        for (uint256 i=0; i<len; i++){\r\n            // send payment to owner wallet\r\n            payable(_shareholders[i]).transfer(payment);\r\n        }\r\n    }\r\n\r\n    /*\r\n    * Mint reserved NFTs for giveaways, devs, etc.\r\n    */\r\n    function reserveMintMenace(uint256 reserveAmount, address mintAddress) public onlyOwnerOrManager {\r\n        require(totalSupply() <= MAX_MENACE, \"Purchase would exceed max supply of Menaces\");\r\n        uint256 supply = _menaceCounter.current();\r\n        for (uint256 i=0; i<reserveAmount; i++){\r\n            _safeMint(mintAddress, supply + 1);\r\n            _menaceCounter.increment();\r\n            supply = _menaceCounter.current();\r\n        }\r\n    }\r\n\r\n    /**\r\n    * Mint for presale\r\n    */\r\n    function preMintMenace(uint256 numberOfTokens) public payable {\r\n        require(preSaleIsActive, \"Pre Sale must be active to mint Menaces\");\r\n        require(menacePrice * numberOfTokens <= msg.value, \"Ether value sent is not correct\");\r\n        require(preSaleWhitelist[msg.sender] == true, \"Sorry, you're address is not whitelisted for presale\");\r\n        require(preSaleMintCount[msg.sender] + numberOfTokens <= maxMenaceTxn, \"Purchase would exceed presale limit\");\r\n\r\n\r\n        for (uint256 i=0; i<numberOfTokens; i++){\r\n            uint256 mintIndex = _menaceCounter.current()+1;\r\n            if (mintIndex <= MAX_MENACE){\r\n                _safeMint(msg.sender, mintIndex);\r\n                _menaceCounter.increment();\r\n                preSaleMintCount[msg.sender] += 1;\r\n            }\r\n        }     \r\n    }\r\n\r\n\r\n    /**\r\n     * Mint Menace\r\n    */\r\n    function mintMenace(uint256 numberOfTokens) public payable {\r\n        require(saleIsActive, \"Sale must be active to mint Menaces\");\r\n        require(menacePrice * numberOfTokens <= msg.value, \"Ether value sent is not correct\");\r\n        require(whitelist[msg.sender] == true, \"Sorry, you're address is not whitelisted for sale\");\r\n        require(whitelistMintCount[msg.sender] + numberOfTokens <= maxMenaceWallet, \"Purchase would exceed your wallet limit\");\r\n        require(numberOfTokens <= maxMenaceTxn, \"You can only mint 2 Menaces at a time\");\r\n        require(totalSupply() + numberOfTokens <= MAX_MENACE, \"Purchase would exceed max supply of Menaces\");\r\n\r\n        for (uint256 i=0; i<numberOfTokens; i++){\r\n            uint256 mintIndex = _menaceCounter.current()+1;\r\n            if (mintIndex <= MAX_MENACE){\r\n                _safeMint(msg.sender, mintIndex);\r\n                _menaceCounter.increment();\r\n                whitelistMintCount[msg.sender] += 1;\r\n            }\r\n        }\r\n    }\r\n\r\n    /**\r\n     * Set the starting index for the collection.\r\n     */\r\n    function setStartingIndex() public onlyOwnerOrManager {\r\n        require(startingIndex == 0, \"Starting index is already set\");\r\n        require(startingIndexBlock != 0, \"Starting index block must be set\");\r\n        \r\n        startingIndex = uint(blockhash(startingIndexBlock)) % MAX_MENACE;\r\n        // Just a sanity case in the worst case if this function is called late (EVM only stores last 256 block hashes).\r\n        if (block.number - startingIndexBlock > 255) {\r\n            startingIndex = uint(blockhash(block.number - 1)) % MAX_MENACE;\r\n        }\r\n        // Prevent default sequence.\r\n        if (startingIndex == 0) {\r\n            startingIndex = 1;\r\n        }\r\n    }\r\n\r\n    /**\r\n     * Set the starting index block for the collection. Usually, this will be set after the first sale mint.\r\n     */\r\n    function emergencySetStartingIndexBlock() public onlyOwnerOrManager {\r\n        require(startingIndex == 0, \"Starting index is already set\");\r\n        \r\n        startingIndexBlock = block.number;\r\n    }\r\n\r\n    /*     \r\n    * Set provenance once it's calculated.\r\n    */\r\n    function setProvenanceHash(string memory provenanceHash) public onlyOwnerOrManager {\r\n        provenance = provenanceHash;\r\n    }\r\n\r\n    /**\r\n     * Required for ERC721Enumerable and ERC721\r\n     */\r\n    function _beforeTokenTransfer(address from, address to, uint256 tokenId) internal override(ERC721, ERC721Enumerable) {\r\n        super._beforeTokenTransfer(from, to, tokenId);\r\n    }\r\n\r\n    function supportsInterface(bytes4 interfaceId) public view override(ERC721, ERC721Enumerable) returns (bool) {\r\n        return super.supportsInterface(interfaceId);\r\n    }\r\n\r\n}",
  "sourcePath": "C:\\Users\\nickn\\Menace\\NFT\\development\\contracts\\Menace_FullWhitelist.sol",
  "compiler": {
    "name": "solc",
    "version": "0.8.9+commit.e5eed63a.Emscripten.clang"
  },
  "schemaVersion": "3.4.3",
  "updatedAt": "2021-10-21T04:55:31.284Z",
  "networkType": "ethereum",
  "devdoc": {
    "kind": "dev",
    "methods": {
      "approve(address,uint256)": {
        "details": "See {IERC721-approve}."
      },
      "balanceOf(address)": {
        "details": "See {IERC721-balanceOf}."
      },
      "burn(uint256)": {
        "details": "Burns `tokenId`. See {ERC721-_burn}. Requirements: - The caller must own `tokenId` or be an approved operator."
      },
      "getApproved(uint256)": {
        "details": "See {IERC721-getApproved}."
      },
      "isApprovedForAll(address,address)": {
        "details": "See {IERC721-isApprovedForAll}."
      },
      "name()": {
        "details": "See {IERC721Metadata-name}."
      },
      "owner()": {
        "details": "Returns the address of the current owner."
      },
      "ownerOf(uint256)": {
        "details": "See {IERC721-ownerOf}."
      },
      "renounceOwnership()": {
        "details": "Leaves the contract without owner. It will not be possible to call `onlyOwner` functions anymore. Can only be called by the current owner. NOTE: Renouncing ownership will leave the contract without an owner, thereby removing any functionality that is only available to the owner."
      },
      "safeTransferFrom(address,address,uint256)": {
        "details": "See {IERC721-safeTransferFrom}."
      },
      "safeTransferFrom(address,address,uint256,bytes)": {
        "details": "See {IERC721-safeTransferFrom}."
      },
      "setApprovalForAll(address,bool)": {
        "details": "See {IERC721-setApprovalForAll}."
      },
      "symbol()": {
        "details": "See {IERC721Metadata-symbol}."
      },
      "tokenByIndex(uint256)": {
        "details": "See {IERC721Enumerable-tokenByIndex}."
      },
      "tokenOfOwnerByIndex(address,uint256)": {
        "details": "See {IERC721Enumerable-tokenOfOwnerByIndex}."
      },
      "tokenURI(uint256)": {
        "details": "See {IERC721Metadata-tokenURI}."
      },
      "totalSupply()": {
        "details": "See {IERC721Enumerable-totalSupply}."
      },
      "transferFrom(address,address,uint256)": {
        "details": "See {IERC721-transferFrom}."
      },
      "transferOwnership(address)": {
        "details": "Transfers ownership of the contract to a new account (`newOwner`). Can only be called by the current owner."
      }
    },
    "version": 1
  },
  "userdoc": {
    "kind": "user",
    "methods": {
      "emergencySetStartingIndexBlock()": {
        "notice": "Set the starting index block for the collection. Usually, this will be set after the first sale mint."
      },
      "mintMenace(uint256)": {
        "notice": "Mint Menace"
      },
      "preMintMenace(uint256)": {
        "notice": "Mint for presale"
      },
      "setBaseURI(string)": {
        "notice": "Set base URI"
      },
      "setManager(address)": {
        "notice": "Set Manager "
      },
      "setStartingIndex()": {
        "notice": "Set the starting index for the collection."
      },
      "withdraw(uint256)": {
        "notice": "Withdraw "
      },
      "withdrawForGiveaway(uint256,address)": {
        "notice": "Grand Prize"
      }
    },
    "version": 1
  }
}