{
  "contractName": "Menace_Test",
  "abi": [
    {
      "inputs": [],
      "stateMutability": "nonpayable",
      "type": "constructor"
    },
    {
      "anonymous": false,
      "inputs": [
        {
          "indexed": true,
          "internalType": "address",
          "name": "owner",
          "type": "address"
        },
        {
          "indexed": true,
          "internalType": "address",
          "name": "approved",
          "type": "address"
        },
        {
          "indexed": true,
          "internalType": "uint256",
          "name": "tokenId",
          "type": "uint256"
        }
      ],
      "name": "Approval",
      "type": "event"
    },
    {
      "anonymous": false,
      "inputs": [
        {
          "indexed": true,
          "internalType": "address",
          "name": "owner",
          "type": "address"
        },
        {
          "indexed": true,
          "internalType": "address",
          "name": "operator",
          "type": "address"
        },
        {
          "indexed": false,
          "internalType": "bool",
          "name": "approved",
          "type": "bool"
        }
      ],
      "name": "ApprovalForAll",
      "type": "event"
    },
    {
      "anonymous": false,
      "inputs": [
        {
          "indexed": true,
          "internalType": "address",
          "name": "previousOwner",
          "type": "address"
        },
        {
          "indexed": true,
          "internalType": "address",
          "name": "newOwner",
          "type": "address"
        }
      ],
      "name": "OwnershipTransferred",
      "type": "event"
    },
    {
      "anonymous": false,
      "inputs": [
        {
          "indexed": true,
          "internalType": "address",
          "name": "from",
          "type": "address"
        },
        {
          "indexed": true,
          "internalType": "address",
          "name": "to",
          "type": "address"
        },
        {
          "indexed": true,
          "internalType": "uint256",
          "name": "tokenId",
          "type": "uint256"
        }
      ],
      "name": "Transfer",
      "type": "event"
    },
    {
      "inputs": [],
      "name": "MAX_MENACE",
      "outputs": [
        {
          "internalType": "uint256",
          "name": "",
          "type": "uint256"
        }
      ],
      "stateMutability": "view",
      "type": "function"
    },
    {
      "inputs": [],
      "name": "PRESALE_MAX_MENACE",
      "outputs": [
        {
          "internalType": "uint256",
          "name": "",
          "type": "uint256"
        }
      ],
      "stateMutability": "view",
      "type": "function"
    },
    {
      "inputs": [
        {
          "internalType": "address",
          "name": "to",
          "type": "address"
        },
        {
          "internalType": "uint256",
          "name": "tokenId",
          "type": "uint256"
        }
      ],
      "name": "approve",
      "outputs": [],
      "stateMutability": "nonpayable",
      "type": "function"
    },
    {
      "inputs": [
        {
          "internalType": "address",
          "name": "owner",
          "type": "address"
        }
      ],
      "name": "balanceOf",
      "outputs": [
        {
          "internalType": "uint256",
          "name": "",
          "type": "uint256"
        }
      ],
      "stateMutability": "view",
      "type": "function"
    },
    {
      "inputs": [],
      "name": "baseURI",
      "outputs": [
        {
          "internalType": "string",
          "name": "",
          "type": "string"
        }
      ],
      "stateMutability": "view",
      "type": "function"
    },
    {
      "inputs": [
        {
          "internalType": "uint256",
          "name": "tokenId",
          "type": "uint256"
        }
      ],
      "name": "burn",
      "outputs": [],
      "stateMutability": "nonpayable",
      "type": "function"
    },
    {
      "inputs": [
        {
          "internalType": "uint256",
          "name": "tokenId",
          "type": "uint256"
        }
      ],
      "name": "getApproved",
      "outputs": [
        {
          "internalType": "address",
          "name": "",
          "type": "address"
        }
      ],
      "stateMutability": "view",
      "type": "function"
    },
    {
      "inputs": [
        {
          "internalType": "address",
          "name": "owner",
          "type": "address"
        },
        {
          "internalType": "address",
          "name": "operator",
          "type": "address"
        }
      ],
      "name": "isApprovedForAll",
      "outputs": [
        {
          "internalType": "bool",
          "name": "",
          "type": "bool"
        }
      ],
      "stateMutability": "view",
      "type": "function"
    },
    {
      "inputs": [],
      "name": "maxMenaceTxn",
      "outputs": [
        {
          "internalType": "uint256",
          "name": "",
          "type": "uint256"
        }
      ],
      "stateMutability": "view",
      "type": "function"
    },
    {
      "inputs": [],
      "name": "maxMenaceWallet",
      "outputs": [
        {
          "internalType": "uint256",
          "name": "",
          "type": "uint256"
        }
      ],
      "stateMutability": "view",
      "type": "function"
    },
    {
      "inputs": [],
      "name": "menacePrice",
      "outputs": [
        {
          "internalType": "uint256",
          "name": "",
          "type": "uint256"
        }
      ],
      "stateMutability": "view",
      "type": "function"
    },
    {
      "inputs": [],
      "name": "name",
      "outputs": [
        {
          "internalType": "string",
          "name": "",
          "type": "string"
        }
      ],
      "stateMutability": "view",
      "type": "function"
    },
    {
      "inputs": [],
      "name": "owner",
      "outputs": [
        {
          "internalType": "address",
          "name": "",
          "type": "address"
        }
      ],
      "stateMutability": "view",
      "type": "function"
    },
    {
      "inputs": [
        {
          "internalType": "uint256",
          "name": "tokenId",
          "type": "uint256"
        }
      ],
      "name": "ownerOf",
      "outputs": [
        {
          "internalType": "address",
          "name": "",
          "type": "address"
        }
      ],
      "stateMutability": "view",
      "type": "function"
    },
    {
      "inputs": [],
      "name": "presalePrice",
      "outputs": [
        {
          "internalType": "uint256",
          "name": "",
          "type": "uint256"
        }
      ],
      "stateMutability": "view",
      "type": "function"
    },
    {
      "inputs": [],
      "name": "provenance",
      "outputs": [
        {
          "internalType": "string",
          "name": "",
          "type": "string"
        }
      ],
      "stateMutability": "view",
      "type": "function"
    },
    {
      "inputs": [],
      "name": "renounceOwnership",
      "outputs": [],
      "stateMutability": "nonpayable",
      "type": "function"
    },
    {
      "inputs": [
        {
          "internalType": "address",
          "name": "from",
          "type": "address"
        },
        {
          "internalType": "address",
          "name": "to",
          "type": "address"
        },
        {
          "internalType": "uint256",
          "name": "tokenId",
          "type": "uint256"
        }
      ],
      "name": "safeTransferFrom",
      "outputs": [],
      "stateMutability": "nonpayable",
      "type": "function"
    },
    {
      "inputs": [
        {
          "internalType": "address",
          "name": "from",
          "type": "address"
        },
        {
          "internalType": "address",
          "name": "to",
          "type": "address"
        },
        {
          "internalType": "uint256",
          "name": "tokenId",
          "type": "uint256"
        },
        {
          "internalType": "bytes",
          "name": "_data",
          "type": "bytes"
        }
      ],
      "name": "safeTransferFrom",
      "outputs": [],
      "stateMutability": "nonpayable",
      "type": "function"
    },
    {
      "inputs": [],
      "name": "saleIsActive",
      "outputs": [
        {
          "internalType": "bool",
          "name": "",
          "type": "bool"
        }
      ],
      "stateMutability": "view",
      "type": "function"
    },
    {
      "inputs": [
        {
          "internalType": "address",
          "name": "operator",
          "type": "address"
        },
        {
          "internalType": "bool",
          "name": "approved",
          "type": "bool"
        }
      ],
      "name": "setApprovalForAll",
      "outputs": [],
      "stateMutability": "nonpayable",
      "type": "function"
    },
    {
      "inputs": [],
      "name": "startingIndex",
      "outputs": [
        {
          "internalType": "uint256",
          "name": "",
          "type": "uint256"
        }
      ],
      "stateMutability": "view",
      "type": "function"
    },
    {
      "inputs": [],
      "name": "startingIndexBlock",
      "outputs": [
        {
          "internalType": "uint256",
          "name": "",
          "type": "uint256"
        }
      ],
      "stateMutability": "view",
      "type": "function"
    },
    {
      "inputs": [],
      "name": "symbol",
      "outputs": [
        {
          "internalType": "string",
          "name": "",
          "type": "string"
        }
      ],
      "stateMutability": "view",
      "type": "function"
    },
    {
      "inputs": [
        {
          "internalType": "uint256",
          "name": "index",
          "type": "uint256"
        }
      ],
      "name": "tokenByIndex",
      "outputs": [
        {
          "internalType": "uint256",
          "name": "",
          "type": "uint256"
        }
      ],
      "stateMutability": "view",
      "type": "function"
    },
    {
      "inputs": [
        {
          "internalType": "address",
          "name": "owner",
          "type": "address"
        },
        {
          "internalType": "uint256",
          "name": "index",
          "type": "uint256"
        }
      ],
      "name": "tokenOfOwnerByIndex",
      "outputs": [
        {
          "internalType": "uint256",
          "name": "",
          "type": "uint256"
        }
      ],
      "stateMutability": "view",
      "type": "function"
    },
    {
      "inputs": [
        {
          "internalType": "uint256",
          "name": "tokenId",
          "type": "uint256"
        }
      ],
      "name": "tokenURI",
      "outputs": [
        {
          "internalType": "string",
          "name": "",
          "type": "string"
        }
      ],
      "stateMutability": "view",
      "type": "function"
    },
    {
      "inputs": [],
      "name": "totalSupply",
      "outputs": [
        {
          "internalType": "uint256",
          "name": "",
          "type": "uint256"
        }
      ],
      "stateMutability": "view",
      "type": "function"
    },
    {
      "inputs": [
        {
          "internalType": "address",
          "name": "from",
          "type": "address"
        },
        {
          "internalType": "address",
          "name": "to",
          "type": "address"
        },
        {
          "internalType": "uint256",
          "name": "tokenId",
          "type": "uint256"
        }
      ],
      "name": "transferFrom",
      "outputs": [],
      "stateMutability": "nonpayable",
      "type": "function"
    },
    {
      "inputs": [
        {
          "internalType": "address",
          "name": "newOwner",
          "type": "address"
        }
      ],
      "name": "transferOwnership",
      "outputs": [],
      "stateMutability": "nonpayable",
      "type": "function"
    },
    {
      "inputs": [],
      "name": "whitelistActive",
      "outputs": [
        {
          "internalType": "bool",
          "name": "",
          "type": "bool"
        }
      ],
      "stateMutability": "view",
      "type": "function"
    },
    {
      "inputs": [
        {
          "internalType": "address",
          "name": "manager",
          "type": "address"
        }
      ],
      "name": "setManager",
      "outputs": [],
      "stateMutability": "nonpayable",
      "type": "function"
    },
    {
      "inputs": [
        {
          "internalType": "string",
          "name": "newBaseURI",
          "type": "string"
        }
      ],
      "name": "setBaseURI",
      "outputs": [],
      "stateMutability": "nonpayable",
      "type": "function"
    },
    {
      "inputs": [],
      "name": "totalToken",
      "outputs": [
        {
          "internalType": "uint256",
          "name": "",
          "type": "uint256"
        }
      ],
      "stateMutability": "view",
      "type": "function"
    },
    {
      "inputs": [
        {
          "internalType": "address[]",
          "name": "addresses",
          "type": "address[]"
        }
      ],
      "name": "addWalletsToWhitelist",
      "outputs": [],
      "stateMutability": "nonpayable",
      "type": "function"
    },
    {
      "inputs": [
        {
          "internalType": "address",
          "name": "_address",
          "type": "address"
        }
      ],
      "name": "isWalletInWhitelist",
      "outputs": [
        {
          "internalType": "bool",
          "name": "",
          "type": "bool"
        }
      ],
      "stateMutability": "view",
      "type": "function"
    },
    {
      "inputs": [
        {
          "internalType": "address",
          "name": "_address",
          "type": "address"
        }
      ],
      "name": "whitelistMenaceMinted",
      "outputs": [
        {
          "internalType": "uint256",
          "name": "",
          "type": "uint256"
        }
      ],
      "stateMutability": "view",
      "type": "function"
    },
    {
      "inputs": [
        {
          "internalType": "address",
          "name": "_address",
          "type": "address"
        }
      ],
      "name": "menaceMinted",
      "outputs": [
        {
          "internalType": "uint256",
          "name": "",
          "type": "uint256"
        }
      ],
      "stateMutability": "view",
      "type": "function"
    },
    {
      "inputs": [],
      "name": "flipPreSale",
      "outputs": [],
      "stateMutability": "nonpayable",
      "type": "function"
    },
    {
      "inputs": [],
      "name": "preSaleState",
      "outputs": [
        {
          "internalType": "bool",
          "name": "",
          "type": "bool"
        }
      ],
      "stateMutability": "view",
      "type": "function"
    },
    {
      "inputs": [],
      "name": "flipSale",
      "outputs": [],
      "stateMutability": "nonpayable",
      "type": "function"
    },
    {
      "inputs": [],
      "name": "saleState",
      "outputs": [
        {
          "internalType": "bool",
          "name": "",
          "type": "bool"
        }
      ],
      "stateMutability": "view",
      "type": "function"
    },
    {
      "inputs": [
        {
          "internalType": "uint256",
          "name": "amount",
          "type": "uint256"
        },
        {
          "internalType": "address payable",
          "name": "to",
          "type": "address"
        }
      ],
      "name": "withdrawForGiveaway",
      "outputs": [],
      "stateMutability": "nonpayable",
      "type": "function"
    },
    {
      "inputs": [
        {
          "internalType": "uint256",
          "name": "amount",
          "type": "uint256"
        },
        {
          "internalType": "address payable",
          "name": "to",
          "type": "address"
        }
      ],
      "name": "withdrawForOwner",
      "outputs": [],
      "stateMutability": "nonpayable",
      "type": "function"
    },
    {
      "inputs": [
        {
          "internalType": "uint256",
          "name": "reserveAmount",
          "type": "uint256"
        },
        {
          "internalType": "address",
          "name": "mintAddress",
          "type": "address"
        }
      ],
      "name": "reserveMintMenace",
      "outputs": [],
      "stateMutability": "nonpayable",
      "type": "function"
    },
    {
      "inputs": [
        {
          "internalType": "uint256",
          "name": "numberOfTokens",
          "type": "uint256"
        }
      ],
      "name": "mintMenaceWhitelist",
      "outputs": [],
      "stateMutability": "payable",
      "type": "function"
    },
    {
      "inputs": [
        {
          "internalType": "uint256",
          "name": "numberOfTokens",
          "type": "uint256"
        }
      ],
      "name": "mintMenace",
      "outputs": [],
      "stateMutability": "payable",
      "type": "function"
    },
    {
      "inputs": [],
      "name": "setStartingIndex",
      "outputs": [],
      "stateMutability": "nonpayable",
      "type": "function"
    },
    {
      "inputs": [],
      "name": "emergencySetStartingIndexBlock",
      "outputs": [],
      "stateMutability": "nonpayable",
      "type": "function"
    },
    {
      "inputs": [
        {
          "internalType": "string",
          "name": "provenanceHash",
          "type": "string"
        }
      ],
      "name": "setProvenanceHash",
      "outputs": [],
      "stateMutability": "nonpayable",
      "type": "function"
    },
    {
      "inputs": [
        {
          "internalType": "bytes4",
          "name": "interfaceId",
          "type": "bytes4"
        }
      ],
      "name": "supportsInterface",
      "outputs": [
        {
          "internalType": "bool",
          "name": "",
          "type": "bool"
        }
      ],
      "stateMutability": "view",
      "type": "function"
    }
  ],
  "bytecode": "0x6080604052612710600c556105dc600d556000600f60006101000a81548160ff0219169083151502179055506000600f60016101000a81548160ff0219169083151502179055503480156200005357600080fd5b506040518060400160405280600b81526020017f4d656e616365576f726c640000000000000000000000000000000000000000008152506040518060400160405280600681526020017f4d454e41434500000000000000000000000000000000000000000000000000008152508160009080519060200190620000d8929190620001e8565b508060019080519060200190620000f1929190620001e8565b50505062000114620001086200011a60201b60201c565b6200012260201b60201c565b620002fd565b600033905090565b6000600a60009054906101000a900473ffffffffffffffffffffffffffffffffffffffff16905081600a60006101000a81548173ffffffffffffffffffffffffffffffffffffffff021916908373ffffffffffffffffffffffffffffffffffffffff1602179055508173ffffffffffffffffffffffffffffffffffffffff168173ffffffffffffffffffffffffffffffffffffffff167f8be0079c531659141344cd1fd0a4f28419497f9722a3daafe3b4186f6b6457e060405160405180910390a35050565b828054620001f690620002c7565b90600052602060002090601f0160209004810192826200021a576000855562000266565b82601f106200023557805160ff191683800117855562000266565b8280016001018555821562000266579182015b828111156200026557825182559160200191906001019062000248565b5b50905062000275919062000279565b5090565b5b80821115620002945760008160009055506001016200027a565b5090565b7f4e487b7100000000000000000000000000000000000000000000000000000000600052602260045260246000fd5b60006002820490506001821680620002e057607f821691505b60208210811415620002f757620002f662000298565b5b50919050565b615b5d806200030d6000396000f3fe6080604052600436106102e25760003560e01c806370a0823111610190578063c821e64c116100dc578063e932444411610095578063eb8d24441161006f578063eb8d244414610b05578063f0a08c5814610b30578063f2fde38b14610b5b578063ffd9dd1e14610b84576102e2565b8063e932444414610a86578063e985e9c514610ab1578063e986655014610aee576102e2565b8063c821e64c14610983578063c87b56dd146109ae578063cb774d47146109eb578063cca458c614610a16578063d0ebdbe714610a32578063e36d649814610a5b576102e2565b80638da5cb5b11610149578063a22cb46511610123578063a22cb465146108cb578063b88d4fde146108f4578063be2863ab1461091d578063c4e611c114610946576102e2565b80638da5cb5b1461083857806395d89b4114610863578063995d76971461088e576102e2565b806370a0823114610774578063715018a6146107b15780637ba5e621146107c85780637d17fcbe146107df57806384f5ef9d146107f65780638b62f53314610821576102e2565b806323b872dd1161024f5780634e6ebeec11610208578063603f4d52116101e2578063603f4d52146106b6578063626be567146106e15780636352211e1461070c5780636c0360eb14610749576102e2565b80634e6ebeec146106275780634f6ccce71461065057806355f804b31461068d576102e2565b806323b872dd1461051b5780632f745c591461054457806342842e0e1461058157806342966c68146105aa5780634498009d146105d35780634d7313a4146105fe576102e2565b8063095ea7b3116102a1578063095ea7b31461041f5780630f7309e814610448578063109695231461047357806313af11eb1461049c57806318160ddd146104c557806319fad9fa146104f0576102e2565b80620e7fa8146102e7578062b5e73d1461031257806301ffc9a71461034f57806302ce58131461038c57806306fdde03146103b7578063081812fc146103e2575b600080fd5b3480156102f357600080fd5b506102fc610ba0565b6040516103099190613ee9565b60405180910390f35b34801561031e57600080fd5b5061033960048036038101906103349190613f76565b610bac565b6040516103469190613ee9565b60405180910390f35b34801561035b57600080fd5b5061037660048036038101906103719190613ffb565b610bf5565b6040516103839190614043565b60405180910390f35b34801561039857600080fd5b506103a1610c07565b6040516103ae9190614043565b60405180910390f35b3480156103c357600080fd5b506103cc610c1a565b6040516103d991906140f7565b60405180910390f35b3480156103ee57600080fd5b5061040960048036038101906104049190614145565b610cac565b6040516104169190614181565b60405180910390f35b34801561042b57600080fd5b506104466004803603810190610441919061419c565b610d31565b005b34801561045457600080fd5b5061045d610e49565b60405161046a91906140f7565b60405180910390f35b34801561047f57600080fd5b5061049a60048036038101906104959190614311565b610ed7565b005b3480156104a857600080fd5b506104c360048036038101906104be919061435a565b610fcc565b005b3480156104d157600080fd5b506104da61113f565b6040516104e79190613ee9565b60405180910390f35b3480156104fc57600080fd5b5061050561114c565b6040516105129190613ee9565b60405180910390f35b34801561052757600080fd5b50610542600480360381019061053d919061439a565b611152565b005b34801561055057600080fd5b5061056b6004803603810190610566919061419c565b6111b2565b6040516105789190613ee9565b60405180910390f35b34801561058d57600080fd5b506105a860048036038101906105a3919061439a565b611257565b005b3480156105b657600080fd5b506105d160048036038101906105cc9190614145565b611277565b005b3480156105df57600080fd5b506105e86112d3565b6040516105f59190613ee9565b60405180910390f35b34801561060a57600080fd5b506106256004803603810190610620919061442b565b6112df565b005b34801561063357600080fd5b5061064e6004803603810190610649919061442b565b611461565b005b34801561065c57600080fd5b5061067760048036038101906106729190614145565b6115e3565b6040516106849190613ee9565b60405180910390f35b34801561069957600080fd5b506106b460048036038101906106af9190614311565b611654565b005b3480156106c257600080fd5b506106cb611749565b6040516106d89190614043565b60405180910390f35b3480156106ed57600080fd5b506106f6611760565b6040516107039190613ee9565b60405180910390f35b34801561071857600080fd5b50610733600480360381019061072e9190614145565b611771565b6040516107409190614181565b60405180910390f35b34801561075557600080fd5b5061075e611823565b60405161076b91906140f7565b60405180910390f35b34801561078057600080fd5b5061079b60048036038101906107969190613f76565b6118b1565b6040516107a89190613ee9565b60405180910390f35b3480156107bd57600080fd5b506107c6611969565b005b3480156107d457600080fd5b506107dd6119f1565b005b3480156107eb57600080fd5b506107f4611af8565b005b34801561080257600080fd5b5061080b611c21565b6040516108189190613ee9565b60405180910390f35b34801561082d57600080fd5b50610836611c26565b005b34801561084457600080fd5b5061084d611d2d565b60405161085a9190614181565b60405180910390f35b34801561086f57600080fd5b50610878611d57565b60405161088591906140f7565b60405180910390f35b34801561089a57600080fd5b506108b560048036038101906108b09190613f76565b611de9565b6040516108c29190613ee9565b60405180910390f35b3480156108d757600080fd5b506108f260048036038101906108ed9190614497565b611e32565b005b34801561090057600080fd5b5061091b60048036038101906109169190614578565b611fb3565b005b34801561092957600080fd5b50610944600480360381019061093f91906146c3565b612015565b005b34801561095257600080fd5b5061096d60048036038101906109689190613f76565b612185565b60405161097a9190614043565b60405180910390f35b34801561098f57600080fd5b506109986121db565b6040516109a59190613ee9565b60405180910390f35b3480156109ba57600080fd5b506109d560048036038101906109d09190614145565b6121e0565b6040516109e291906140f7565b60405180910390f35b3480156109f757600080fd5b50610a00612287565b604051610a0d9190613ee9565b60405180910390f35b610a306004803603810190610a2b9190614145565b61228d565b005b348015610a3e57600080fd5b50610a596004803603810190610a549190613f76565b6125a0565b005b348015610a6757600080fd5b50610a70612660565b604051610a7d9190613ee9565b60405180910390f35b348015610a9257600080fd5b50610a9b612666565b604051610aa89190614043565b60405180910390f35b348015610abd57600080fd5b50610ad86004803603810190610ad3919061470c565b61267d565b604051610ae59190614043565b60405180910390f35b348015610afa57600080fd5b50610b03612711565b005b348015610b1157600080fd5b50610b1a6128e2565b604051610b279190614043565b60405180910390f35b348015610b3c57600080fd5b50610b456128f5565b604051610b529190613ee9565b60405180910390f35b348015610b6757600080fd5b50610b826004803603810190610b7d9190613f76565b6128fb565b005b610b9e6004803603810190610b999190614145565b6129f3565b005b67016345785d8a000081565b6000601460008373ffffffffffffffffffffffffffffffffffffffff1673ffffffffffffffffffffffffffffffffffffffff168152602001908152602001600020549050919050565b6000610c0082612b96565b9050919050565b600f60019054906101000a900460ff1681565b606060008054610c299061477b565b80601f0160208091040260200160405190810160405280929190818152602001828054610c559061477b565b8015610ca25780601f10610c7757610100808354040283529160200191610ca2565b820191906000526020600020905b815481529060010190602001808311610c8557829003601f168201915b5050505050905090565b6000610cb782612c10565b610cf6576040517f08c379a0000000000000000000000000000000000000000000000000000000008152600401610ced9061481f565b60405180910390fd5b6004600083815260200190815260200160002060009054906101000a900473ffffffffffffffffffffffffffffffffffffffff169050919050565b6000610d3c82611771565b90508073ffffffffffffffffffffffffffffffffffffffff168373ffffffffffffffffffffffffffffffffffffffff161415610dad576040517f08c379a0000000000000000000000000000000000000000000000000000000008152600401610da4906148b1565b60405180910390fd5b8073ffffffffffffffffffffffffffffffffffffffff16610dcc612c7c565b73ffffffffffffffffffffffffffffffffffffffff161480610dfb5750610dfa81610df5612c7c565b61267d565b5b610e3a576040517f08c379a0000000000000000000000000000000000000000000000000000000008152600401610e3190614943565b60405180910390fd5b610e448383612c84565b505050565b60128054610e569061477b565b80601f0160208091040260200160405190810160405280929190818152602001828054610e829061477b565b8015610ecf5780601f10610ea457610100808354040283529160200191610ecf565b820191906000526020600020905b815481529060010190602001808311610eb257829003601f168201915b505050505081565b610edf612c7c565b73ffffffffffffffffffffffffffffffffffffffff16610efd611d2d565b73ffffffffffffffffffffffffffffffffffffffff161480610f735750610f22612c7c565b73ffffffffffffffffffffffffffffffffffffffff16600f60029054906101000a900473ffffffffffffffffffffffffffffffffffffffff1673ffffffffffffffffffffffffffffffffffffffff16145b610fb2576040517f08c379a0000000000000000000000000000000000000000000000000000000008152600401610fa9906149d5565b60405180910390fd5b8060129080519060200190610fc8929190613e2d565b5050565b610fd4612c7c565b73ffffffffffffffffffffffffffffffffffffffff16610ff2611d2d565b73ffffffffffffffffffffffffffffffffffffffff1614806110685750611017612c7c565b73ffffffffffffffffffffffffffffffffffffffff16600f60029054906101000a900473ffffffffffffffffffffffffffffffffffffffff1673ffffffffffffffffffffffffffffffffffffffff16145b6110a7576040517f08c379a000000000000000000000000000000000000000000000000000000000815260040161109e906149d5565b60405180910390fd5b600c546110b261113f565b11156110f3576040517f08c379a00000000000000000000000000000000000000000000000000000000081526004016110ea90614a67565b60405180910390fd5b60005b8281101561113a5761111d82600161110e600b612d3d565b6111189190614ab6565b612d4b565b611127600b612d69565b808061113290614b0c565b9150506110f6565b505050565b6000600880549050905090565b600c5481565b61116361115d612c7c565b82612d7f565b6111a2576040517f08c379a000000000000000000000000000000000000000000000000000000000815260040161119990614bc7565b60405180910390fd5b6111ad838383612e5d565b505050565b60006111bd836118b1565b82106111fe576040517f08c379a00000000000000000000000000000000000000000000000000000000081526004016111f590614c59565b60405180910390fd5b600660008473ffffffffffffffffffffffffffffffffffffffff1673ffffffffffffffffffffffffffffffffffffffff168152602001908152602001600020600083815260200190815260200160002054905092915050565b61127283838360405180602001604052806000815250611fb3565b505050565b611288611282612c7c565b82612d7f565b6112c7576040517f08c379a00000000000000000000000000000000000000000000000000000000081526004016112be90614ceb565b60405180910390fd5b6112d0816130b9565b50565b6702c68af0bb14000081565b6112e7612c7c565b73ffffffffffffffffffffffffffffffffffffffff16611305611d2d565b73ffffffffffffffffffffffffffffffffffffffff16148061137b575061132a612c7c565b73ffffffffffffffffffffffffffffffffffffffff16600f60029054906101000a900473ffffffffffffffffffffffffffffffffffffffff1673ffffffffffffffffffffffffffffffffffffffff16145b6113ba576040517f08c379a00000000000000000000000000000000000000000000000000000000081526004016113b1906149d5565b60405180910390fd5b814710156113fd576040517f08c379a00000000000000000000000000000000000000000000000000000000081526004016113f490614d57565b60405180910390fd5b6000670de0b6b3a7640000836114139190614d77565b90508173ffffffffffffffffffffffffffffffffffffffff166108fc829081150290604051600060405180830381858888f1935050505015801561145b573d6000803e3d6000fd5b50505050565b611469612c7c565b73ffffffffffffffffffffffffffffffffffffffff16611487611d2d565b73ffffffffffffffffffffffffffffffffffffffff1614806114fd57506114ac612c7c565b73ffffffffffffffffffffffffffffffffffffffff16600f60029054906101000a900473ffffffffffffffffffffffffffffffffffffffff1673ffffffffffffffffffffffffffffffffffffffff16145b61153c576040517f08c379a0000000000000000000000000000000000000000000000000000000008152600401611533906149d5565b60405180910390fd5b8147101561157f576040517f08c379a000000000000000000000000000000000000000000000000000000000815260040161157690614d57565b60405180910390fd5b6000670de0b6b3a7640000836115959190614d77565b90508173ffffffffffffffffffffffffffffffffffffffff166108fc829081150290604051600060405180830381858888f193505050501580156115dd573d6000803e3d6000fd5b50505050565b60006115ed61113f565b821061162e576040517f08c379a000000000000000000000000000000000000000000000000000000000815260040161162590614e43565b60405180910390fd5b6008828154811061164257611641614e63565b5b90600052602060002001549050919050565b61165c612c7c565b73ffffffffffffffffffffffffffffffffffffffff1661167a611d2d565b73ffffffffffffffffffffffffffffffffffffffff1614806116f0575061169f612c7c565b73ffffffffffffffffffffffffffffffffffffffff16600f60029054906101000a900473ffffffffffffffffffffffffffffffffffffffff1673ffffffffffffffffffffffffffffffffffffffff16145b61172f576040517f08c379a0000000000000000000000000000000000000000000000000000000008152600401611726906149d5565b60405180910390fd5b80600e9080519060200190611745929190613e2d565b5050565b6000600f60009054906101000a900460ff16905090565b600061176c600b612d3d565b905090565b6000806002600084815260200190815260200160002060009054906101000a900473ffffffffffffffffffffffffffffffffffffffff169050600073ffffffffffffffffffffffffffffffffffffffff168173ffffffffffffffffffffffffffffffffffffffff16141561181a576040517f08c379a000000000000000000000000000000000000000000000000000000000815260040161181190614f04565b60405180910390fd5b80915050919050565b600e80546118309061477b565b80601f016020809104026020016040519081016040528092919081815260200182805461185c9061477b565b80156118a95780601f1061187e576101008083540402835291602001916118a9565b820191906000526020600020905b81548152906001019060200180831161188c57829003601f168201915b505050505081565b60008073ffffffffffffffffffffffffffffffffffffffff168273ffffffffffffffffffffffffffffffffffffffff161415611922576040517f08c379a000000000000000000000000000000000000000000000000000000000815260040161191990614f96565b60405180910390fd5b600360008373ffffffffffffffffffffffffffffffffffffffff1673ffffffffffffffffffffffffffffffffffffffff168152602001908152602001600020549050919050565b611971612c7c565b73ffffffffffffffffffffffffffffffffffffffff1661198f611d2d565b73ffffffffffffffffffffffffffffffffffffffff16146119e5576040517f08c379a00000000000000000000000000000000000000000000000000000000081526004016119dc90615002565b60405180910390fd5b6119ef60006131ca565b565b6119f9612c7c565b73ffffffffffffffffffffffffffffffffffffffff16611a17611d2d565b73ffffffffffffffffffffffffffffffffffffffff161480611a8d5750611a3c612c7c565b73ffffffffffffffffffffffffffffffffffffffff16600f60029054906101000a900473ffffffffffffffffffffffffffffffffffffffff1673ffffffffffffffffffffffffffffffffffffffff16145b611acc576040517f08c379a0000000000000000000000000000000000000000000000000000000008152600401611ac3906149d5565b60405180910390fd5b600f60009054906101000a900460ff1615600f60006101000a81548160ff021916908315150217905550565b611b00612c7c565b73ffffffffffffffffffffffffffffffffffffffff16611b1e611d2d565b73ffffffffffffffffffffffffffffffffffffffff161480611b945750611b43612c7c565b73ffffffffffffffffffffffffffffffffffffffff16600f60029054906101000a900473ffffffffffffffffffffffffffffffffffffffff1673ffffffffffffffffffffffffffffffffffffffff16145b611bd3576040517f08c379a0000000000000000000000000000000000000000000000000000000008152600401611bca906149d5565b60405180910390fd5b600060105414611c18576040517f08c379a0000000000000000000000000000000000000000000000000000000008152600401611c0f9061506e565b60405180910390fd5b43601181905550565b600281565b611c2e612c7c565b73ffffffffffffffffffffffffffffffffffffffff16611c4c611d2d565b73ffffffffffffffffffffffffffffffffffffffff161480611cc25750611c71612c7c565b73ffffffffffffffffffffffffffffffffffffffff16600f60029054906101000a900473ffffffffffffffffffffffffffffffffffffffff1673ffffffffffffffffffffffffffffffffffffffff16145b611d01576040517f08c379a0000000000000000000000000000000000000000000000000000000008152600401611cf8906149d5565b60405180910390fd5b600f60019054906101000a900460ff1615600f60016101000a81548160ff021916908315150217905550565b6000600a60009054906101000a900473ffffffffffffffffffffffffffffffffffffffff16905090565b606060018054611d669061477b565b80601f0160208091040260200160405190810160405280929190818152602001828054611d929061477b565b8015611ddf5780601f10611db457610100808354040283529160200191611ddf565b820191906000526020600020905b815481529060010190602001808311611dc257829003601f168201915b5050505050905090565b6000601560008373ffffffffffffffffffffffffffffffffffffffff1673ffffffffffffffffffffffffffffffffffffffff168152602001908152602001600020549050919050565b611e3a612c7c565b73ffffffffffffffffffffffffffffffffffffffff168273ffffffffffffffffffffffffffffffffffffffff161415611ea8576040517f08c379a0000000000000000000000000000000000000000000000000000000008152600401611e9f906150da565b60405180910390fd5b8060056000611eb5612c7c565b73ffffffffffffffffffffffffffffffffffffffff1673ffffffffffffffffffffffffffffffffffffffff16815260200190815260200160002060008473ffffffffffffffffffffffffffffffffffffffff1673ffffffffffffffffffffffffffffffffffffffff16815260200190815260200160002060006101000a81548160ff0219169083151502179055508173ffffffffffffffffffffffffffffffffffffffff16611f62612c7c565b73ffffffffffffffffffffffffffffffffffffffff167f17307eab39ab6107e8899845ad3d59bd9653f200f220920489ca2b5937696c3183604051611fa79190614043565b60405180910390a35050565b611fc4611fbe612c7c565b83612d7f565b612003576040517f08c379a0000000000000000000000000000000000000000000000000000000008152600401611ffa90614bc7565b60405180910390fd5b61200f84848484613290565b50505050565b61201d612c7c565b73ffffffffffffffffffffffffffffffffffffffff1661203b611d2d565b73ffffffffffffffffffffffffffffffffffffffff1614806120b15750612060612c7c565b73ffffffffffffffffffffffffffffffffffffffff16600f60029054906101000a900473ffffffffffffffffffffffffffffffffffffffff1673ffffffffffffffffffffffffffffffffffffffff16145b6120f0576040517f08c379a00000000000000000000000000000000000000000000000000000000081526004016120e7906149d5565b60405180910390fd5b60005b81518110156121815760016013600084848151811061211557612114614e63565b5b602002602001015173ffffffffffffffffffffffffffffffffffffffff1673ffffffffffffffffffffffffffffffffffffffff16815260200190815260200160002060006101000a81548160ff021916908315150217905550808061217990614b0c565b9150506120f3565b5050565b6000601360008373ffffffffffffffffffffffffffffffffffffffff1673ffffffffffffffffffffffffffffffffffffffff16815260200190815260200160002060009054906101000a900460ff169050919050565b600481565b60606121eb82612c10565b61222a576040517f08c379a00000000000000000000000000000000000000000000000000000000081526004016122219061516c565b60405180910390fd5b60006122346132ec565b90506000815111612254576040518060200160405280600081525061227f565b8061225e8461337e565b60405160200161226f9291906151c8565b6040516020818303038152906040525b915050919050565b60105481565b600f60019054906101000a900460ff166122dc576040517f08c379a00000000000000000000000000000000000000000000000000000000081526004016122d39061525e565b60405180910390fd5b34816702c68af0bb1400006122f19190614d77565b1115612332576040517f08c379a0000000000000000000000000000000000000000000000000000000008152600401612329906152ca565b60405180910390fd5b60011515601360003373ffffffffffffffffffffffffffffffffffffffff1673ffffffffffffffffffffffffffffffffffffffff16815260200190815260200160002060009054906101000a900460ff161515146123c5576040517f08c379a00000000000000000000000000000000000000000000000000000000081526004016123bc9061535c565b60405180910390fd5b6002811115612409576040517f08c379a0000000000000000000000000000000000000000000000000000000008152600401612400906153ee565b60405180910390fd5b600281601460003373ffffffffffffffffffffffffffffffffffffffff1673ffffffffffffffffffffffffffffffffffffffff168152602001908152602001600020546124569190614ab6565b1115612497576040517f08c379a000000000000000000000000000000000000000000000000000000000815260040161248e90615480565b60405180910390fd5b600d54816124a361113f565b6124ad9190614ab6565b11156124ee576040517f08c379a00000000000000000000000000000000000000000000000000000000081526004016124e590615512565b60405180910390fd5b60005b8181101561259c5760006001612507600b612d3d565b6125119190614ab6565b9050600c548111612588576125263382612d4b565b612530600b612d69565b6001601460003373ffffffffffffffffffffffffffffffffffffffff1673ffffffffffffffffffffffffffffffffffffffff16815260200190815260200160002060008282546125809190614ab6565b925050819055505b50808061259490614b0c565b9150506124f1565b5050565b6125a8612c7c565b73ffffffffffffffffffffffffffffffffffffffff166125c6611d2d565b73ffffffffffffffffffffffffffffffffffffffff161461261c576040517f08c379a000000000000000000000000000000000000000000000000000000000815260040161261390615002565b60405180910390fd5b80600f60026101000a81548173ffffffffffffffffffffffffffffffffffffffff021916908373ffffffffffffffffffffffffffffffffffffffff16021790555050565b60115481565b6000600f60019054906101000a900460ff16905090565b6000600560008473ffffffffffffffffffffffffffffffffffffffff1673ffffffffffffffffffffffffffffffffffffffff16815260200190815260200160002060008373ffffffffffffffffffffffffffffffffffffffff1673ffffffffffffffffffffffffffffffffffffffff16815260200190815260200160002060009054906101000a900460ff16905092915050565b612719612c7c565b73ffffffffffffffffffffffffffffffffffffffff16612737611d2d565b73ffffffffffffffffffffffffffffffffffffffff1614806127ad575061275c612c7c565b73ffffffffffffffffffffffffffffffffffffffff16600f60029054906101000a900473ffffffffffffffffffffffffffffffffffffffff1673ffffffffffffffffffffffffffffffffffffffff16145b6127ec576040517f08c379a00000000000000000000000000000000000000000000000000000000081526004016127e3906149d5565b60405180910390fd5b600060105414612831576040517f08c379a00000000000000000000000000000000000000000000000000000000081526004016128289061506e565b60405180910390fd5b60006011541415612877576040517f08c379a000000000000000000000000000000000000000000000000000000000815260040161286e9061557e565b60405180910390fd5b600c546011544060001c61288b91906155cd565b60108190555060ff601154436128a191906155fe565b11156128cc57600c546001436128b791906155fe565b4060001c6128c591906155cd565b6010819055505b600060105414156128e05760016010819055505b565b600f60009054906101000a900460ff1681565b600d5481565b612903612c7c565b73ffffffffffffffffffffffffffffffffffffffff16612921611d2d565b73ffffffffffffffffffffffffffffffffffffffff1614612977576040517f08c379a000000000000000000000000000000000000000000000000000000000815260040161296e90615002565b60405180910390fd5b600073ffffffffffffffffffffffffffffffffffffffff168173ffffffffffffffffffffffffffffffffffffffff1614156129e7576040517f08c379a00000000000000000000000000000000000000000000000000000000081526004016129de906156a4565b60405180910390fd5b6129f0816131ca565b50565b34816702c68af0bb140000612a089190614d77565b1115612a49576040517f08c379a0000000000000000000000000000000000000000000000000000000008152600401612a40906152ca565b60405180910390fd5b6002811115612a8d576040517f08c379a0000000000000000000000000000000000000000000000000000000008152600401612a84906153ee565b60405180910390fd5b600c5481612a9961113f565b612aa39190614ab6565b1115612ae4576040517f08c379a0000000000000000000000000000000000000000000000000000000008152600401612adb90614a67565b60405180910390fd5b60005b81811015612b925760006001612afd600b612d3d565b612b079190614ab6565b9050600c548111612b7e57612b1c3382612d4b565b612b26600b612d69565b6001601560003373ffffffffffffffffffffffffffffffffffffffff1673ffffffffffffffffffffffffffffffffffffffff1681526020019081526020016000206000828254612b769190614ab6565b925050819055505b508080612b8a90614b0c565b915050612ae7565b5050565b60007f780e9d63000000000000000000000000000000000000000000000000000000007bffffffffffffffffffffffffffffffffffffffffffffffffffffffff1916827bffffffffffffffffffffffffffffffffffffffffffffffffffffffff19161480612c095750612c08826134df565b5b9050919050565b60008073ffffffffffffffffffffffffffffffffffffffff166002600084815260200190815260200160002060009054906101000a900473ffffffffffffffffffffffffffffffffffffffff1673ffffffffffffffffffffffffffffffffffffffff1614159050919050565b600033905090565b816004600083815260200190815260200160002060006101000a81548173ffffffffffffffffffffffffffffffffffffffff021916908373ffffffffffffffffffffffffffffffffffffffff160217905550808273ffffffffffffffffffffffffffffffffffffffff16612cf783611771565b73ffffffffffffffffffffffffffffffffffffffff167f8c5be1e5ebec7d5bd14f71427d1e84f3dd0314c0f7b2291e5b200ac8c7c3b92560405160405180910390a45050565b600081600001549050919050565b612d658282604051806020016040528060008152506135c1565b5050565b6001816000016000828254019250508190555050565b6000612d8a82612c10565b612dc9576040517f08c379a0000000000000000000000000000000000000000000000000000000008152600401612dc090615736565b60405180910390fd5b6000612dd483611771565b90508073ffffffffffffffffffffffffffffffffffffffff168473ffffffffffffffffffffffffffffffffffffffff161480612e4357508373ffffffffffffffffffffffffffffffffffffffff16612e2b84610cac565b73ffffffffffffffffffffffffffffffffffffffff16145b80612e545750612e53818561267d565b5b91505092915050565b8273ffffffffffffffffffffffffffffffffffffffff16612e7d82611771565b73ffffffffffffffffffffffffffffffffffffffff1614612ed3576040517f08c379a0000000000000000000000000000000000000000000000000000000008152600401612eca906157c8565b60405180910390fd5b600073ffffffffffffffffffffffffffffffffffffffff168273ffffffffffffffffffffffffffffffffffffffff161415612f43576040517f08c379a0000000000000000000000000000000000000000000000000000000008152600401612f3a9061585a565b60405180910390fd5b612f4e83838361361c565b612f59600082612c84565b6001600360008573ffffffffffffffffffffffffffffffffffffffff1673ffffffffffffffffffffffffffffffffffffffff1681526020019081526020016000206000828254612fa991906155fe565b925050819055506001600360008473ffffffffffffffffffffffffffffffffffffffff1673ffffffffffffffffffffffffffffffffffffffff16815260200190815260200160002060008282546130009190614ab6565b92505081905550816002600083815260200190815260200160002060006101000a81548173ffffffffffffffffffffffffffffffffffffffff021916908373ffffffffffffffffffffffffffffffffffffffff160217905550808273ffffffffffffffffffffffffffffffffffffffff168473ffffffffffffffffffffffffffffffffffffffff167fddf252ad1be2c89b69c2b068fc378daa952ba7f163c4a11628f55a4df523b3ef60405160405180910390a4505050565b60006130c482611771565b90506130d28160008461361c565b6130dd600083612c84565b6001600360008373ffffffffffffffffffffffffffffffffffffffff1673ffffffffffffffffffffffffffffffffffffffff168152602001908152602001600020600082825461312d91906155fe565b925050819055506002600083815260200190815260200160002060006101000a81549073ffffffffffffffffffffffffffffffffffffffff021916905581600073ffffffffffffffffffffffffffffffffffffffff168273ffffffffffffffffffffffffffffffffffffffff167fddf252ad1be2c89b69c2b068fc378daa952ba7f163c4a11628f55a4df523b3ef60405160405180910390a45050565b6000600a60009054906101000a900473ffffffffffffffffffffffffffffffffffffffff16905081600a60006101000a81548173ffffffffffffffffffffffffffffffffffffffff021916908373ffffffffffffffffffffffffffffffffffffffff1602179055508173ffffffffffffffffffffffffffffffffffffffff168173ffffffffffffffffffffffffffffffffffffffff167f8be0079c531659141344cd1fd0a4f28419497f9722a3daafe3b4186f6b6457e060405160405180910390a35050565b61329b848484612e5d565b6132a78484848461362c565b6132e6576040517f08c379a00000000000000000000000000000000000000000000000000000000081526004016132dd906158ec565b60405180910390fd5b50505050565b6060600e80546132fb9061477b565b80601f01602080910402602001604051908101604052809291908181526020018280546133279061477b565b80156133745780601f1061334957610100808354040283529160200191613374565b820191906000526020600020905b81548152906001019060200180831161335757829003601f168201915b5050505050905090565b606060008214156133c6576040518060400160405280600181526020017f300000000000000000000000000000000000000000000000000000000000000081525090506134da565b600082905060005b600082146133f85780806133e190614b0c565b915050600a826133f1919061590c565b91506133ce565b60008167ffffffffffffffff811115613414576134136141e6565b5b6040519080825280601f01601f1916602001820160405280156134465781602001600182028036833780820191505090505b5090505b600085146134d35760018261345f91906155fe565b9150600a8561346e91906155cd565b603061347a9190614ab6565b60f81b8183815181106134905761348f614e63565b5b60200101907effffffffffffffffffffffffffffffffffffffffffffffffffffffffffffff1916908160001a905350600a856134cc919061590c565b945061344a565b8093505050505b919050565b60007f80ac58cd000000000000000000000000000000000000000000000000000000007bffffffffffffffffffffffffffffffffffffffffffffffffffffffff1916827bffffffffffffffffffffffffffffffffffffffffffffffffffffffff191614806135aa57507f5b5e139f000000000000000000000000000000000000000000000000000000007bffffffffffffffffffffffffffffffffffffffffffffffffffffffff1916827bffffffffffffffffffffffffffffffffffffffffffffffffffffffff1916145b806135ba57506135b9826137c3565b5b9050919050565b6135cb838361382d565b6135d8600084848461362c565b613617576040517f08c379a000000000000000000000000000000000000000000000000000000000815260040161360e906158ec565b60405180910390fd5b505050565b6136278383836139fb565b505050565b600061364d8473ffffffffffffffffffffffffffffffffffffffff16613b0f565b156137b6578373ffffffffffffffffffffffffffffffffffffffff1663150b7a02613676612c7c565b8786866040518563ffffffff1660e01b81526004016136989493929190615992565b602060405180830381600087803b1580156136b257600080fd5b505af19250505080156136e357506040513d601f19601f820116820180604052508101906136e091906159f3565b60015b613766573d8060008114613713576040519150601f19603f3d011682016040523d82523d6000602084013e613718565b606091505b5060008151141561375e576040517f08c379a0000000000000000000000000000000000000000000000000000000008152600401613755906158ec565b60405180910390fd5b805181602001fd5b63150b7a0260e01b7bffffffffffffffffffffffffffffffffffffffffffffffffffffffff1916817bffffffffffffffffffffffffffffffffffffffffffffffffffffffff1916149150506137bb565b600190505b949350505050565b60007f01ffc9a7000000000000000000000000000000000000000000000000000000007bffffffffffffffffffffffffffffffffffffffffffffffffffffffff1916827bffffffffffffffffffffffffffffffffffffffffffffffffffffffff1916149050919050565b600073ffffffffffffffffffffffffffffffffffffffff168273ffffffffffffffffffffffffffffffffffffffff16141561389d576040517f08c379a000000000000000000000000000000000000000000000000000000000815260040161389490615a6c565b60405180910390fd5b6138a681612c10565b156138e6576040517f08c379a00000000000000000000000000000000000000000000000000000000081526004016138dd90615ad8565b60405180910390fd5b6138f26000838361361c565b6001600360008473ffffffffffffffffffffffffffffffffffffffff1673ffffffffffffffffffffffffffffffffffffffff16815260200190815260200160002060008282546139429190614ab6565b92505081905550816002600083815260200190815260200160002060006101000a81548173ffffffffffffffffffffffffffffffffffffffff021916908373ffffffffffffffffffffffffffffffffffffffff160217905550808273ffffffffffffffffffffffffffffffffffffffff16600073ffffffffffffffffffffffffffffffffffffffff167fddf252ad1be2c89b69c2b068fc378daa952ba7f163c4a11628f55a4df523b3ef60405160405180910390a45050565b613a06838383613b22565b600073ffffffffffffffffffffffffffffffffffffffff168373ffffffffffffffffffffffffffffffffffffffff161415613a4957613a4481613b27565b613a88565b8173ffffffffffffffffffffffffffffffffffffffff168373ffffffffffffffffffffffffffffffffffffffff1614613a8757613a868382613b70565b5b5b600073ffffffffffffffffffffffffffffffffffffffff168273ffffffffffffffffffffffffffffffffffffffff161415613acb57613ac681613cdd565b613b0a565b8273ffffffffffffffffffffffffffffffffffffffff168273ffffffffffffffffffffffffffffffffffffffff1614613b0957613b088282613dae565b5b5b505050565b600080823b905060008111915050919050565b505050565b6008805490506009600083815260200190815260200160002081905550600881908060018154018082558091505060019003906000526020600020016000909190919091505550565b60006001613b7d846118b1565b613b8791906155fe565b9050600060076000848152602001908152602001600020549050818114613c6c576000600660008673ffffffffffffffffffffffffffffffffffffffff1673ffffffffffffffffffffffffffffffffffffffff168152602001908152602001600020600084815260200190815260200160002054905080600660008773ffffffffffffffffffffffffffffffffffffffff1673ffffffffffffffffffffffffffffffffffffffff168152602001908152602001600020600084815260200190815260200160002081905550816007600083815260200190815260200160002081905550505b6007600084815260200190815260200160002060009055600660008573ffffffffffffffffffffffffffffffffffffffff1673ffffffffffffffffffffffffffffffffffffffff16815260200190815260200160002060008381526020019081526020016000206000905550505050565b60006001600880549050613cf191906155fe565b9050600060096000848152602001908152602001600020549050600060088381548110613d2157613d20614e63565b5b906000526020600020015490508060088381548110613d4357613d42614e63565b5b906000526020600020018190555081600960008381526020019081526020016000208190555060096000858152602001908152602001600020600090556008805480613d9257613d91615af8565b5b6001900381819060005260206000200160009055905550505050565b6000613db9836118b1565b905081600660008573ffffffffffffffffffffffffffffffffffffffff1673ffffffffffffffffffffffffffffffffffffffff168152602001908152602001600020600083815260200190815260200160002081905550806007600084815260200190815260200160002081905550505050565b828054613e399061477b565b90600052602060002090601f016020900481019282613e5b5760008555613ea2565b82601f10613e7457805160ff1916838001178555613ea2565b82800160010185558215613ea2579182015b82811115613ea1578251825591602001919060010190613e86565b5b509050613eaf9190613eb3565b5090565b5b80821115613ecc576000816000905550600101613eb4565b5090565b6000819050919050565b613ee381613ed0565b82525050565b6000602082019050613efe6000830184613eda565b92915050565b6000604051905090565b600080fd5b600080fd5b600073ffffffffffffffffffffffffffffffffffffffff82169050919050565b6000613f4382613f18565b9050919050565b613f5381613f38565b8114613f5e57600080fd5b50565b600081359050613f7081613f4a565b92915050565b600060208284031215613f8c57613f8b613f0e565b5b6000613f9a84828501613f61565b91505092915050565b60007fffffffff0000000000000000000000000000000000000000000000000000000082169050919050565b613fd881613fa3565b8114613fe357600080fd5b50565b600081359050613ff581613fcf565b92915050565b60006020828403121561401157614010613f0e565b5b600061401f84828501613fe6565b91505092915050565b60008115159050919050565b61403d81614028565b82525050565b60006020820190506140586000830184614034565b92915050565b600081519050919050565b600082825260208201905092915050565b60005b8381101561409857808201518184015260208101905061407d565b838111156140a7576000848401525b50505050565b6000601f19601f8301169050919050565b60006140c98261405e565b6140d38185614069565b93506140e381856020860161407a565b6140ec816140ad565b840191505092915050565b6000602082019050818103600083015261411181846140be565b905092915050565b61412281613ed0565b811461412d57600080fd5b50565b60008135905061413f81614119565b92915050565b60006020828403121561415b5761415a613f0e565b5b600061416984828501614130565b91505092915050565b61417b81613f38565b82525050565b60006020820190506141966000830184614172565b92915050565b600080604083850312156141b3576141b2613f0e565b5b60006141c185828601613f61565b92505060206141d285828601614130565b9150509250929050565b600080fd5b600080fd5b7f4e487b7100000000000000000000000000000000000000000000000000000000600052604160045260246000fd5b61421e826140ad565b810181811067ffffffffffffffff8211171561423d5761423c6141e6565b5b80604052505050565b6000614250613f04565b905061425c8282614215565b919050565b600067ffffffffffffffff82111561427c5761427b6141e6565b5b614285826140ad565b9050602081019050919050565b82818337600083830152505050565b60006142b46142af84614261565b614246565b9050828152602081018484840111156142d0576142cf6141e1565b5b6142db848285614292565b509392505050565b600082601f8301126142f8576142f76141dc565b5b81356143088482602086016142a1565b91505092915050565b60006020828403121561432757614326613f0e565b5b600082013567ffffffffffffffff81111561434557614344613f13565b5b614351848285016142e3565b91505092915050565b6000806040838503121561437157614370613f0e565b5b600061437f85828601614130565b925050602061439085828601613f61565b9150509250929050565b6000806000606084860312156143b3576143b2613f0e565b5b60006143c186828701613f61565b93505060206143d286828701613f61565b92505060406143e386828701614130565b9150509250925092565b60006143f882613f18565b9050919050565b614408816143ed565b811461441357600080fd5b50565b600081359050614425816143ff565b92915050565b6000806040838503121561444257614441613f0e565b5b600061445085828601614130565b925050602061446185828601614416565b9150509250929050565b61447481614028565b811461447f57600080fd5b50565b6000813590506144918161446b565b92915050565b600080604083850312156144ae576144ad613f0e565b5b60006144bc85828601613f61565b92505060206144cd85828601614482565b9150509250929050565b600067ffffffffffffffff8211156144f2576144f16141e6565b5b6144fb826140ad565b9050602081019050919050565b600061451b614516846144d7565b614246565b905082815260208101848484011115614537576145366141e1565b5b614542848285614292565b509392505050565b600082601f83011261455f5761455e6141dc565b5b813561456f848260208601614508565b91505092915050565b6000806000806080858703121561459257614591613f0e565b5b60006145a087828801613f61565b94505060206145b187828801613f61565b93505060406145c287828801614130565b925050606085013567ffffffffffffffff8111156145e3576145e2613f13565b5b6145ef8782880161454a565b91505092959194509250565b600067ffffffffffffffff821115614616576146156141e6565b5b602082029050602081019050919050565b600080fd5b600061463f61463a846145fb565b614246565b9050808382526020820190506020840283018581111561466257614661614627565b5b835b8181101561468b57806146778882613f61565b845260208401935050602081019050614664565b5050509392505050565b600082601f8301126146aa576146a96141dc565b5b81356146ba84826020860161462c565b91505092915050565b6000602082840312156146d9576146d8613f0e565b5b600082013567ffffffffffffffff8111156146f7576146f6613f13565b5b61470384828501614695565b91505092915050565b6000806040838503121561472357614722613f0e565b5b600061473185828601613f61565b925050602061474285828601613f61565b9150509250929050565b7f4e487b7100000000000000000000000000000000000000000000000000000000600052602260045260246000fd5b6000600282049050600182168061479357607f821691505b602082108114156147a7576147a661474c565b5b50919050565b7f4552433732313a20617070726f76656420717565727920666f72206e6f6e657860008201527f697374656e7420746f6b656e0000000000000000000000000000000000000000602082015250565b6000614809602c83614069565b9150614814826147ad565b604082019050919050565b60006020820190508181036000830152614838816147fc565b9050919050565b7f4552433732313a20617070726f76616c20746f2063757272656e74206f776e6560008201527f7200000000000000000000000000000000000000000000000000000000000000602082015250565b600061489b602183614069565b91506148a68261483f565b604082019050919050565b600060208201905081810360008301526148ca8161488e565b9050919050565b7f4552433732313a20617070726f76652063616c6c6572206973206e6f74206f7760008201527f6e6572206e6f7220617070726f76656420666f7220616c6c0000000000000000602082015250565b600061492d603883614069565b9150614938826148d1565b604082019050919050565b6000602082019050818103600083015261495c81614920565b9050919050565b7f43616c6c6572206973206e6f7420746865206f776e6572206f72206d616e616760008201527f6572000000000000000000000000000000000000000000000000000000000000602082015250565b60006149bf602283614069565b91506149ca82614963565b604082019050919050565b600060208201905081810360008301526149ee816149b2565b9050919050565b7f507572636861736520776f756c6420657863656564206d617820737570706c7960008201527f206f66204d656e61636573000000000000000000000000000000000000000000602082015250565b6000614a51602b83614069565b9150614a5c826149f5565b604082019050919050565b60006020820190508181036000830152614a8081614a44565b9050919050565b7f4e487b7100000000000000000000000000000000000000000000000000000000600052601160045260246000fd5b6000614ac182613ed0565b9150614acc83613ed0565b9250827fffffffffffffffffffffffffffffffffffffffffffffffffffffffffffffffff03821115614b0157614b00614a87565b5b828201905092915050565b6000614b1782613ed0565b91507fffffffffffffffffffffffffffffffffffffffffffffffffffffffffffffffff821415614b4a57614b49614a87565b5b600182019050919050565b7f4552433732313a207472616e736665722063616c6c6572206973206e6f74206f60008201527f776e6572206e6f7220617070726f766564000000000000000000000000000000602082015250565b6000614bb1603183614069565b9150614bbc82614b55565b604082019050919050565b60006020820190508181036000830152614be081614ba4565b9050919050565b7f455243373231456e756d657261626c653a206f776e657220696e646578206f7560008201527f74206f6620626f756e6473000000000000000000000000000000000000000000602082015250565b6000614c43602b83614069565b9150614c4e82614be7565b604082019050919050565b60006020820190508181036000830152614c7281614c36565b9050919050565b7f4552433732314275726e61626c653a2063616c6c6572206973206e6f74206f7760008201527f6e6572206e6f7220617070726f76656400000000000000000000000000000000602082015250565b6000614cd5603083614069565b9150614ce082614c79565b604082019050919050565b60006020820190508181036000830152614d0481614cc8565b9050919050565b7f496e737566666963656e742066756e64732e0000000000000000000000000000600082015250565b6000614d41601283614069565b9150614d4c82614d0b565b602082019050919050565b60006020820190508181036000830152614d7081614d34565b9050919050565b6000614d8282613ed0565b9150614d8d83613ed0565b9250817fffffffffffffffffffffffffffffffffffffffffffffffffffffffffffffffff0483118215151615614dc657614dc5614a87565b5b828202905092915050565b7f455243373231456e756d657261626c653a20676c6f62616c20696e646578206f60008201527f7574206f6620626f756e64730000000000000000000000000000000000000000602082015250565b6000614e2d602c83614069565b9150614e3882614dd1565b604082019050919050565b60006020820190508181036000830152614e5c81614e20565b9050919050565b7f4e487b7100000000000000000000000000000000000000000000000000000000600052603260045260246000fd5b7f4552433732313a206f776e657220717565727920666f72206e6f6e657869737460008201527f656e7420746f6b656e0000000000000000000000000000000000000000000000602082015250565b6000614eee602983614069565b9150614ef982614e92565b604082019050919050565b60006020820190508181036000830152614f1d81614ee1565b9050919050565b7f4552433732313a2062616c616e636520717565727920666f7220746865207a6560008201527f726f206164647265737300000000000000000000000000000000000000000000602082015250565b6000614f80602a83614069565b9150614f8b82614f24565b604082019050919050565b60006020820190508181036000830152614faf81614f73565b9050919050565b7f4f776e61626c653a2063616c6c6572206973206e6f7420746865206f776e6572600082015250565b6000614fec602083614069565b9150614ff782614fb6565b602082019050919050565b6000602082019050818103600083015261501b81614fdf565b9050919050565b7f5374617274696e6720696e64657820697320616c726561647920736574000000600082015250565b6000615058601d83614069565b915061506382615022565b602082019050919050565b600060208201905081810360008301526150878161504b565b9050919050565b7f4552433732313a20617070726f766520746f2063616c6c657200000000000000600082015250565b60006150c4601983614069565b91506150cf8261508e565b602082019050919050565b600060208201905081810360008301526150f3816150b7565b9050919050565b7f4552433732314d657461646174613a2055524920717565727920666f72206e6f60008201527f6e6578697374656e7420746f6b656e0000000000000000000000000000000000602082015250565b6000615156602f83614069565b9150615161826150fa565b604082019050919050565b6000602082019050818103600083015261518581615149565b9050919050565b600081905092915050565b60006151a28261405e565b6151ac818561518c565b93506151bc81856020860161407a565b80840191505092915050565b60006151d48285615197565b91506151e08284615197565b91508190509392505050565b7f53616c65206d7573742062652061637469766520746f206d696e74204d656e6160008201527f6365730000000000000000000000000000000000000000000000000000000000602082015250565b6000615248602383614069565b9150615253826151ec565b604082019050919050565b600060208201905081810360008301526152778161523b565b9050919050565b7f45746865722076616c75652073656e74206973206e6f7420636f727265637400600082015250565b60006152b4601f83614069565b91506152bf8261527e565b602082019050919050565b600060208201905081810360008301526152e3816152a7565b9050919050565b7f536f7272792c20796f752772652061646472657373206973206e6f742077686960008201527f74656c697374656420666f722073616c65000000000000000000000000000000602082015250565b6000615346603183614069565b9150615351826152ea565b604082019050919050565b6000602082019050818103600083015261537581615339565b9050919050565b7f596f752063616e206f6e6c79206d696e742032204d656e61636573206174206160008201527f2074696d65000000000000000000000000000000000000000000000000000000602082015250565b60006153d8602583614069565b91506153e38261537c565b604082019050919050565b60006020820190508181036000830152615407816153cb565b9050919050565b7f507572636861736520776f756c642065786365656420796f75722077616c6c6560008201527f74206c696d697400000000000000000000000000000000000000000000000000602082015250565b600061546a602783614069565b91506154758261540e565b604082019050919050565b600060208201905081810360008301526154998161545d565b9050919050565b7f507572636861736520776f756c6420657863656564206d617820737570706c7960008201527f206f662050726573616c65204d656e6163657300000000000000000000000000602082015250565b60006154fc603383614069565b9150615507826154a0565b604082019050919050565b6000602082019050818103600083015261552b816154ef565b9050919050565b7f5374617274696e6720696e64657820626c6f636b206d75737420626520736574600082015250565b6000615568602083614069565b915061557382615532565b602082019050919050565b600060208201905081810360008301526155978161555b565b9050919050565b7f4e487b7100000000000000000000000000000000000000000000000000000000600052601260045260246000fd5b60006155d882613ed0565b91506155e383613ed0565b9250826155f3576155f261559e565b5b828206905092915050565b600061560982613ed0565b915061561483613ed0565b92508282101561562757615626614a87565b5b828203905092915050565b7f4f776e61626c653a206e6577206f776e657220697320746865207a65726f206160008201527f6464726573730000000000000000000000000000000000000000000000000000602082015250565b600061568e602683614069565b915061569982615632565b604082019050919050565b600060208201905081810360008301526156bd81615681565b9050919050565b7f4552433732313a206f70657261746f7220717565727920666f72206e6f6e657860008201527f697374656e7420746f6b656e0000000000000000000000000000000000000000602082015250565b6000615720602c83614069565b915061572b826156c4565b604082019050919050565b6000602082019050818103600083015261574f81615713565b9050919050565b7f4552433732313a207472616e73666572206f6620746f6b656e2074686174206960008201527f73206e6f74206f776e0000000000000000000000000000000000000000000000602082015250565b60006157b2602983614069565b91506157bd82615756565b604082019050919050565b600060208201905081810360008301526157e1816157a5565b9050919050565b7f4552433732313a207472616e7366657220746f20746865207a65726f2061646460008201527f7265737300000000000000000000000000000000000000000000000000000000602082015250565b6000615844602483614069565b915061584f826157e8565b604082019050919050565b6000602082019050818103600083015261587381615837565b9050919050565b7f4552433732313a207472616e7366657220746f206e6f6e20455243373231526560008201527f63656976657220696d706c656d656e7465720000000000000000000000000000602082015250565b60006158d6603283614069565b91506158e18261587a565b604082019050919050565b60006020820190508181036000830152615905816158c9565b9050919050565b600061591782613ed0565b915061592283613ed0565b9250826159325761593161559e565b5b828204905092915050565b600081519050919050565b600082825260208201905092915050565b60006159648261593d565b61596e8185615948565b935061597e81856020860161407a565b615987816140ad565b840191505092915050565b60006080820190506159a76000830187614172565b6159b46020830186614172565b6159c16040830185613eda565b81810360608301526159d38184615959565b905095945050505050565b6000815190506159ed81613fcf565b92915050565b600060208284031215615a0957615a08613f0e565b5b6000615a17848285016159de565b91505092915050565b7f4552433732313a206d696e7420746f20746865207a65726f2061646472657373600082015250565b6000615a56602083614069565b9150615a6182615a20565b602082019050919050565b60006020820190508181036000830152615a8581615a49565b9050919050565b7f4552433732313a20746f6b656e20616c7265616479206d696e74656400000000600082015250565b6000615ac2601c83614069565b9150615acd82615a8c565b602082019050919050565b60006020820190508181036000830152615af181615ab5565b9050919050565b7f4e487b7100000000000000000000000000000000000000000000000000000000600052603160045260246000fdfea264697066735822122024c1e955bb769d4a86f7a7022717d3d38093b62e67e49b58c24361e8ca5bb1ef64736f6c63430008090033",
  "immutableReferences": {},
  "source": "//SPDX-License-Identifier: UNLICENSED\r\npragma solidity ^0.8.0;\r\n\r\nimport \"@openzeppelin/contracts/token/ERC721/ERC721.sol\";\r\nimport \"@openzeppelin/contracts/token/ERC721/extensions/ERC721Enumerable.sol\";\r\nimport \"@openzeppelin/contracts/token/ERC721/extensions/ERC721Burnable.sol\";\r\nimport \"@openzeppelin/contracts/access/Ownable.sol\";\r\nimport \"@openzeppelin/contracts/utils/Address.sol\";\r\nimport \"@openzeppelin/contracts/utils/Counters.sol\";\r\n\r\n////////////////////////////////////////////////////////////////////////////////\r\n////////////////////////////////////////////////////////////////////////////////\r\n////////////////////////////////////////////////////////////////////////////////\r\n////////////////////////////////////////////////////////////////////////////////\r\n////////////////////////////////////////////////////////////////////////////////\r\n////////////////////////////////////////////////////////////////////////////////\r\n////////////////////////////////////////////////////////////////////////////////\r\n//////////////////////////////^^^^^^^^-----^^^^^^^^/////////////////////////////\r\n//////////////////////////////(@@@@@@@@@@@@@@@@@@@//////////////////////////////\r\n////////////////////////////////////////////////////////////////////////////////\r\n////////////////////////@@@@@@@@@@@@@//////(@@@@@@@@@@@@@///////////////////////\r\n////////////////////////@@@@@@@@@@@@@@@///@@@@@@@@@@@@@@@///////////////////////\r\n////////////////////////@@@@@@@@@@@@@@@@/@@@@@@@@@@@@@@@@///////////////////////\r\n////////////////////////@@@@@@@@@/@@@@@@@@@@@@@/@@@@@@@@@///////////////////////\r\n////////////////////////@@@@@@@@@//@@@@@@@@@@@//@@@@@@@@@///////////////////////\r\n////////////////////////@@@@@@@@@///////////////@@@@@@@@@///////////////////////\r\n////////////////////////////////////////////////////////////////////////////////\r\n////////////////////////@@@@@@@@@///////////////@@@@@@@@@///////////////////////\r\n////////////////////////@@@@@@@@@//@@@@@@@@@@@//@@@@@@@@@///////////////////////\r\n////////////////////////@@@@@@@@@/@@@@@@@@@@@@@/@@@@@@@@@///////////////////////\r\n////////////////////////@@@@@@@@@@@@@@@@/@@@@@@@@@@@@@@@@///////////////////////\r\n////////////////////////@@@@@@@@@@@@@@@///@@@@@@@@@@@@@@@///////////////////////\r\n////////////////////////@@@@@@@@@@@@@%/////&@@@@@@@@@@@@@///////////////////////\r\n/////////////////////////////////@@@/////////@@@////////////////////////////////\r\n/////////////////////////////////@@///////////@@////////////////////////////////\r\n/////////////////////////////////@/////////////@////////////////////////////////\r\n////////////////////////////////////////////////////////////////////////////////\r\n////////////////////////////////////////////////////////////////////////////////\r\n////////////////////////////////////////////////////////////////////////////////\r\n////////////////////////////////////////////////////////////////////////////////\r\n////////////////////////////////////////////////////////////////////////////////\r\n////////////////////////////////////////////////////////////////////////////////\r\n\r\ncontract Menace_Test is ERC721, ERC721Enumerable, ERC721Burnable, Ownable {\r\n    using Counters for Counters.Counter;\r\n\r\n    // Counter for number of menaces \r\n    Counters.Counter private _menaceCounter;\r\n    // Max token supply\r\n    uint public MAX_MENACE = 10000;\r\n    // Max presale supply\r\n    uint public PRESALE_MAX_MENACE = 1500;\r\n    // Mint Price\r\n    uint256 public constant menacePrice = 200000000000000000; //0.2 ETH\r\n    // Mint Presale Price\r\n    uint256 public constant presalePrice = 100000000000000000; //0.1 ETH\r\n    // Base URI\r\n    string public baseURI;\r\n    // Sale is active\r\n    bool public saleIsActive = false;\r\n    // Presale is active\r\n    bool public whitelistActive = false;\r\n    // Max purchchase per txn\r\n    uint public constant maxMenaceTxn = 2;\r\n    // Max Menace per wallet\r\n    uint public constant maxMenaceWallet = 4;\r\n    // manager\r\n    address private _manager;\r\n    // starting index and block and provenance\r\n    uint256 public startingIndex;\r\n\r\n    uint256 public startingIndexBlock;\r\n\r\n    string public provenance;\r\n\r\n    // Whitelist\r\n    mapping(address => bool) whitelist;\r\n    mapping(address => uint256) whitelistMintCount;\r\n\r\n    // Regular sale\r\n    mapping(address => uint256) menaceMintCount;\r\n\r\n    // constructor\r\n    constructor() ERC721(\"MenaceWorld\", \"MENACE\"){\r\n    }\r\n\r\n    /** Set Manager */\r\n    function setManager(address manager) public onlyOwner {\r\n        _manager = manager;\r\n    }\r\n    \r\n    /**\r\n     * Throws if called by any account other than the owner or manager.\r\n     */\r\n    modifier onlyOwnerOrManager() {\r\n        require(owner() == _msgSender() || _manager == _msgSender(), \"Caller is not the owner or manager\");\r\n        _;\r\n    }\r\n\r\n    /**\r\n     * Set base URI\r\n     */\r\n    function setBaseURI(string memory newBaseURI) public onlyOwnerOrManager {\r\n        baseURI = newBaseURI;\r\n    }\r\n    \r\n    function _baseURI() internal view virtual override returns (string memory){\r\n        return baseURI;\r\n    }\r\n\r\n    function totalToken() public view returns (uint256) {\r\n        return _menaceCounter.current();\r\n    }\r\n\r\n    /**\r\n    *   Wallet to whitelist\r\n     */\r\n    function addWalletsToWhitelist(address[] memory addresses) public onlyOwnerOrManager {\r\n        for (uint256 i = 0; i < addresses.length; i++) {\r\n            whitelist[addresses[i]] = true;\r\n        }\r\n    }\r\n\r\n    function isWalletInWhitelist(address _address) public view returns (bool) {\r\n        return whitelist[_address];\r\n    }\r\n\r\n    function whitelistMenaceMinted(address _address) public view returns (uint256){\r\n        return whitelistMintCount[_address];\r\n    }\r\n\r\n    function menaceMinted(address _address) public view returns (uint256){\r\n        return menaceMintCount[_address];\r\n    }\r\n\r\n    /*\r\n    * Set Sale\r\n    */\r\n    function flipPreSale() public onlyOwnerOrManager {\r\n        whitelistActive = !whitelistActive;\r\n    }\r\n\r\n    function preSaleState() public view returns (bool){\r\n        return whitelistActive;\r\n    }\r\n\r\n    function flipSale() public onlyOwnerOrManager {\r\n        saleIsActive = !saleIsActive;\r\n    }\r\n\r\n    function saleState() public view returns (bool){\r\n        return saleIsActive;\r\n    }\r\n\r\n    /**\r\n    *  Grand Prize\r\n    */\r\n    function withdrawForGiveaway(uint256 amount, address payable to) public onlyOwnerOrManager {\r\n        require(address(this).balance >= amount, \"Insufficent funds.\");\r\n        uint256 payment = amount * 10 ** 18;\r\n        to.transfer(payment);\r\n    }\r\n\r\n    /**\r\n     * Withdraw for owners\r\n     */\r\n    function withdrawForOwner(uint256 amount, address payable to) public onlyOwnerOrManager{\r\n        require(address(this).balance >= amount, \"Insufficent funds.\");\r\n        uint256 payment = amount * 10 ** 18;\r\n        to.transfer(payment);\r\n    }\r\n\r\n    /*\r\n    * Mint reserved NFTs for giveaways, devs, etc.\r\n    */\r\n    function reserveMintMenace(uint256 reserveAmount, address mintAddress) public onlyOwnerOrManager {\r\n        require(totalSupply() <= MAX_MENACE, \"Purchase would exceed max supply of Menaces\");\r\n        for (uint256 i=0; i<reserveAmount; i++){\r\n            _safeMint(mintAddress, _menaceCounter.current() + 1);\r\n            _menaceCounter.increment();\r\n        }\r\n    }\r\n\r\n\r\n    /**\r\n     * Mint Menace Whitelist\r\n    */\r\n    function mintMenaceWhitelist(uint256 numberOfTokens) public payable {\r\n        require(whitelistActive, \"Sale must be active to mint Menaces\");\r\n        require(menacePrice * numberOfTokens <= msg.value, \"Ether value sent is not correct\");\r\n        require(whitelist[msg.sender] == true, \"Sorry, you're address is not whitelisted for sale\");\r\n        require(numberOfTokens <= maxMenaceTxn, \"You can only mint 2 Menaces at a time\");\r\n        require(whitelistMintCount[msg.sender] + numberOfTokens <= maxMenaceTxn, \"Purchase would exceed your wallet limit\");\r\n        require(totalSupply() + numberOfTokens <= PRESALE_MAX_MENACE, \"Purchase would exceed max supply of Presale Menaces\");\r\n\r\n        for (uint256 i=0; i<numberOfTokens; i++){\r\n            uint256 mintIndex = _menaceCounter.current()+1;\r\n            if (mintIndex <= MAX_MENACE){\r\n                _safeMint(msg.sender, mintIndex);\r\n                _menaceCounter.increment();\r\n                whitelistMintCount[msg.sender] += 1;\r\n            }\r\n        }\r\n    }\r\n\r\n    /**\r\n     * Mint Menace\r\n    */\r\n    function mintMenace(uint256 numberOfTokens) public payable {\r\n        require(menacePrice * numberOfTokens <= msg.value, \"Ether value sent is not correct\");\r\n        require(numberOfTokens <= maxMenaceTxn, \"You can only mint 2 Menaces at a time\");\r\n        require(totalSupply() + numberOfTokens <= MAX_MENACE, \"Purchase would exceed max supply of Menaces\");\r\n\r\n        for (uint256 i=0; i<numberOfTokens; i++){\r\n            uint256 mintIndex = _menaceCounter.current()+1;\r\n            if (mintIndex <= MAX_MENACE){\r\n                _safeMint(msg.sender, mintIndex);\r\n                _menaceCounter.increment();\r\n                menaceMintCount[msg.sender] += 1;\r\n            }\r\n        }\r\n    }\r\n\r\n    /**\r\n     * Set the starting index for the collection.\r\n     */\r\n    function setStartingIndex() public onlyOwnerOrManager {\r\n        require(startingIndex == 0, \"Starting index is already set\");\r\n        require(startingIndexBlock != 0, \"Starting index block must be set\");\r\n        \r\n        startingIndex = uint(blockhash(startingIndexBlock)) % MAX_MENACE;\r\n        // Just a sanity case in the worst case if this function is called late (EVM only stores last 256 block hashes).\r\n        if (block.number - startingIndexBlock > 255) {\r\n            startingIndex = uint(blockhash(block.number - 1)) % MAX_MENACE;\r\n        }\r\n        // Prevent default sequence.\r\n        if (startingIndex == 0) {\r\n            startingIndex = 1;\r\n        }\r\n    }\r\n\r\n    /**\r\n     * Set the starting index block for the collection. Usually, this will be set after the first sale mint.\r\n     */\r\n    function emergencySetStartingIndexBlock() public onlyOwnerOrManager {\r\n        require(startingIndex == 0, \"Starting index is already set\");\r\n        \r\n        startingIndexBlock = block.number;\r\n    }\r\n\r\n    /*     \r\n    * Set provenance once it's calculated.\r\n    */\r\n    function setProvenanceHash(string memory provenanceHash) public onlyOwnerOrManager {\r\n        provenance = provenanceHash;\r\n    }\r\n\r\n    /**\r\n     * Required for ERC721Enumerable and ERC721\r\n     */\r\n    function _beforeTokenTransfer(address from, address to, uint256 tokenId) internal override(ERC721, ERC721Enumerable) {\r\n        super._beforeTokenTransfer(from, to, tokenId);\r\n    }\r\n\r\n    function supportsInterface(bytes4 interfaceId) public view override(ERC721, ERC721Enumerable) returns (bool) {\r\n        return super.supportsInterface(interfaceId);\r\n    }\r\n\r\n}",
  "sourcePath": "C:\\Users\\nickn\\Menace\\NFT\\development\\contracts\\Menace_Test.sol",
  "compiler": {
    "name": "solc",
    "version": "0.8.9+commit.e5eed63a.Emscripten.clang"
  },
  "schemaVersion": "3.4.3",
  "updatedAt": "2021-11-09T03:42:54.187Z",
  "devdoc": {
    "kind": "dev",
    "methods": {
      "approve(address,uint256)": {
        "details": "See {IERC721-approve}."
      },
      "balanceOf(address)": {
        "details": "See {IERC721-balanceOf}."
      },
      "burn(uint256)": {
        "details": "Burns `tokenId`. See {ERC721-_burn}. Requirements: - The caller must own `tokenId` or be an approved operator."
      },
      "getApproved(uint256)": {
        "details": "See {IERC721-getApproved}."
      },
      "isApprovedForAll(address,address)": {
        "details": "See {IERC721-isApprovedForAll}."
      },
      "name()": {
        "details": "See {IERC721Metadata-name}."
      },
      "owner()": {
        "details": "Returns the address of the current owner."
      },
      "ownerOf(uint256)": {
        "details": "See {IERC721-ownerOf}."
      },
      "renounceOwnership()": {
        "details": "Leaves the contract without owner. It will not be possible to call `onlyOwner` functions anymore. Can only be called by the current owner. NOTE: Renouncing ownership will leave the contract without an owner, thereby removing any functionality that is only available to the owner."
      },
      "safeTransferFrom(address,address,uint256)": {
        "details": "See {IERC721-safeTransferFrom}."
      },
      "safeTransferFrom(address,address,uint256,bytes)": {
        "details": "See {IERC721-safeTransferFrom}."
      },
      "setApprovalForAll(address,bool)": {
        "details": "See {IERC721-setApprovalForAll}."
      },
      "symbol()": {
        "details": "See {IERC721Metadata-symbol}."
      },
      "tokenByIndex(uint256)": {
        "details": "See {IERC721Enumerable-tokenByIndex}."
      },
      "tokenOfOwnerByIndex(address,uint256)": {
        "details": "See {IERC721Enumerable-tokenOfOwnerByIndex}."
      },
      "tokenURI(uint256)": {
        "details": "See {IERC721Metadata-tokenURI}."
      },
      "totalSupply()": {
        "details": "See {IERC721Enumerable-totalSupply}."
      },
      "transferFrom(address,address,uint256)": {
        "details": "See {IERC721-transferFrom}."
      },
      "transferOwnership(address)": {
        "details": "Transfers ownership of the contract to a new account (`newOwner`). Can only be called by the current owner."
      }
    },
    "version": 1
  },
  "userdoc": {
    "kind": "user",
    "methods": {
      "addWalletsToWhitelist(address[])": {
        "notice": "Wallet to whitelist"
      },
      "emergencySetStartingIndexBlock()": {
        "notice": "Set the starting index block for the collection. Usually, this will be set after the first sale mint."
      },
      "mintMenace(uint256)": {
        "notice": "Mint Menace"
      },
      "mintMenaceWhitelist(uint256)": {
        "notice": "Mint Menace Whitelist"
      },
      "setBaseURI(string)": {
        "notice": "Set base URI"
      },
      "setManager(address)": {
        "notice": "Set Manager "
      },
      "setStartingIndex()": {
        "notice": "Set the starting index for the collection."
      },
      "withdrawForGiveaway(uint256,address)": {
        "notice": "Grand Prize"
      },
      "withdrawForOwner(uint256,address)": {
        "notice": "Withdraw for owners"
      }
    },
    "version": 1
  }
}