{
  "contractName": "Menace_Test",
  "abi": [
    {
      "inputs": [],
      "stateMutability": "nonpayable",
      "type": "constructor"
    },
    {
      "anonymous": false,
      "inputs": [
        {
          "indexed": true,
          "internalType": "address",
          "name": "owner",
          "type": "address"
        },
        {
          "indexed": true,
          "internalType": "address",
          "name": "approved",
          "type": "address"
        },
        {
          "indexed": true,
          "internalType": "uint256",
          "name": "tokenId",
          "type": "uint256"
        }
      ],
      "name": "Approval",
      "type": "event"
    },
    {
      "anonymous": false,
      "inputs": [
        {
          "indexed": true,
          "internalType": "address",
          "name": "owner",
          "type": "address"
        },
        {
          "indexed": true,
          "internalType": "address",
          "name": "operator",
          "type": "address"
        },
        {
          "indexed": false,
          "internalType": "bool",
          "name": "approved",
          "type": "bool"
        }
      ],
      "name": "ApprovalForAll",
      "type": "event"
    },
    {
      "anonymous": false,
      "inputs": [
        {
          "indexed": true,
          "internalType": "address",
          "name": "previousOwner",
          "type": "address"
        },
        {
          "indexed": true,
          "internalType": "address",
          "name": "newOwner",
          "type": "address"
        }
      ],
      "name": "OwnershipTransferred",
      "type": "event"
    },
    {
      "anonymous": false,
      "inputs": [
        {
          "indexed": true,
          "internalType": "address",
          "name": "from",
          "type": "address"
        },
        {
          "indexed": true,
          "internalType": "address",
          "name": "to",
          "type": "address"
        },
        {
          "indexed": true,
          "internalType": "uint256",
          "name": "tokenId",
          "type": "uint256"
        }
      ],
      "name": "Transfer",
      "type": "event"
    },
    {
      "inputs": [],
      "name": "MAX_MENACE",
      "outputs": [
        {
          "internalType": "uint256",
          "name": "",
          "type": "uint256"
        }
      ],
      "stateMutability": "view",
      "type": "function",
      "constant": true
    },
    {
      "inputs": [
        {
          "internalType": "address",
          "name": "to",
          "type": "address"
        },
        {
          "internalType": "uint256",
          "name": "tokenId",
          "type": "uint256"
        }
      ],
      "name": "approve",
      "outputs": [],
      "stateMutability": "nonpayable",
      "type": "function"
    },
    {
      "inputs": [
        {
          "internalType": "address",
          "name": "owner",
          "type": "address"
        }
      ],
      "name": "balanceOf",
      "outputs": [
        {
          "internalType": "uint256",
          "name": "",
          "type": "uint256"
        }
      ],
      "stateMutability": "view",
      "type": "function",
      "constant": true
    },
    {
      "inputs": [],
      "name": "baseURI",
      "outputs": [
        {
          "internalType": "string",
          "name": "",
          "type": "string"
        }
      ],
      "stateMutability": "view",
      "type": "function",
      "constant": true
    },
    {
      "inputs": [
        {
          "internalType": "uint256",
          "name": "tokenId",
          "type": "uint256"
        }
      ],
      "name": "burn",
      "outputs": [],
      "stateMutability": "nonpayable",
      "type": "function"
    },
    {
      "inputs": [
        {
          "internalType": "uint256",
          "name": "tokenId",
          "type": "uint256"
        }
      ],
      "name": "getApproved",
      "outputs": [
        {
          "internalType": "address",
          "name": "",
          "type": "address"
        }
      ],
      "stateMutability": "view",
      "type": "function",
      "constant": true
    },
    {
      "inputs": [
        {
          "internalType": "address",
          "name": "owner",
          "type": "address"
        },
        {
          "internalType": "address",
          "name": "operator",
          "type": "address"
        }
      ],
      "name": "isApprovedForAll",
      "outputs": [
        {
          "internalType": "bool",
          "name": "",
          "type": "bool"
        }
      ],
      "stateMutability": "view",
      "type": "function",
      "constant": true
    },
    {
      "inputs": [],
      "name": "maxMenaceTxn",
      "outputs": [
        {
          "internalType": "uint256",
          "name": "",
          "type": "uint256"
        }
      ],
      "stateMutability": "view",
      "type": "function",
      "constant": true
    },
    {
      "inputs": [],
      "name": "menacePrice",
      "outputs": [
        {
          "internalType": "uint256",
          "name": "",
          "type": "uint256"
        }
      ],
      "stateMutability": "view",
      "type": "function",
      "constant": true
    },
    {
      "inputs": [],
      "name": "name",
      "outputs": [
        {
          "internalType": "string",
          "name": "",
          "type": "string"
        }
      ],
      "stateMutability": "view",
      "type": "function",
      "constant": true
    },
    {
      "inputs": [],
      "name": "owner",
      "outputs": [
        {
          "internalType": "address",
          "name": "",
          "type": "address"
        }
      ],
      "stateMutability": "view",
      "type": "function",
      "constant": true
    },
    {
      "inputs": [
        {
          "internalType": "uint256",
          "name": "tokenId",
          "type": "uint256"
        }
      ],
      "name": "ownerOf",
      "outputs": [
        {
          "internalType": "address",
          "name": "",
          "type": "address"
        }
      ],
      "stateMutability": "view",
      "type": "function",
      "constant": true
    },
    {
      "inputs": [],
      "name": "preSaleIsActive",
      "outputs": [
        {
          "internalType": "bool",
          "name": "",
          "type": "bool"
        }
      ],
      "stateMutability": "view",
      "type": "function",
      "constant": true
    },
    {
      "inputs": [],
      "name": "provenance",
      "outputs": [
        {
          "internalType": "string",
          "name": "",
          "type": "string"
        }
      ],
      "stateMutability": "view",
      "type": "function",
      "constant": true
    },
    {
      "inputs": [],
      "name": "renounceOwnership",
      "outputs": [],
      "stateMutability": "nonpayable",
      "type": "function"
    },
    {
      "inputs": [
        {
          "internalType": "address",
          "name": "from",
          "type": "address"
        },
        {
          "internalType": "address",
          "name": "to",
          "type": "address"
        },
        {
          "internalType": "uint256",
          "name": "tokenId",
          "type": "uint256"
        }
      ],
      "name": "safeTransferFrom",
      "outputs": [],
      "stateMutability": "nonpayable",
      "type": "function"
    },
    {
      "inputs": [
        {
          "internalType": "address",
          "name": "from",
          "type": "address"
        },
        {
          "internalType": "address",
          "name": "to",
          "type": "address"
        },
        {
          "internalType": "uint256",
          "name": "tokenId",
          "type": "uint256"
        },
        {
          "internalType": "bytes",
          "name": "_data",
          "type": "bytes"
        }
      ],
      "name": "safeTransferFrom",
      "outputs": [],
      "stateMutability": "nonpayable",
      "type": "function"
    },
    {
      "inputs": [],
      "name": "saleIsActive",
      "outputs": [
        {
          "internalType": "bool",
          "name": "",
          "type": "bool"
        }
      ],
      "stateMutability": "view",
      "type": "function",
      "constant": true
    },
    {
      "inputs": [
        {
          "internalType": "address",
          "name": "operator",
          "type": "address"
        },
        {
          "internalType": "bool",
          "name": "approved",
          "type": "bool"
        }
      ],
      "name": "setApprovalForAll",
      "outputs": [],
      "stateMutability": "nonpayable",
      "type": "function"
    },
    {
      "inputs": [],
      "name": "startingIndex",
      "outputs": [
        {
          "internalType": "uint256",
          "name": "",
          "type": "uint256"
        }
      ],
      "stateMutability": "view",
      "type": "function",
      "constant": true
    },
    {
      "inputs": [],
      "name": "startingIndexBlock",
      "outputs": [
        {
          "internalType": "uint256",
          "name": "",
          "type": "uint256"
        }
      ],
      "stateMutability": "view",
      "type": "function",
      "constant": true
    },
    {
      "inputs": [],
      "name": "symbol",
      "outputs": [
        {
          "internalType": "string",
          "name": "",
          "type": "string"
        }
      ],
      "stateMutability": "view",
      "type": "function",
      "constant": true
    },
    {
      "inputs": [
        {
          "internalType": "uint256",
          "name": "index",
          "type": "uint256"
        }
      ],
      "name": "tokenByIndex",
      "outputs": [
        {
          "internalType": "uint256",
          "name": "",
          "type": "uint256"
        }
      ],
      "stateMutability": "view",
      "type": "function",
      "constant": true
    },
    {
      "inputs": [
        {
          "internalType": "address",
          "name": "owner",
          "type": "address"
        },
        {
          "internalType": "uint256",
          "name": "index",
          "type": "uint256"
        }
      ],
      "name": "tokenOfOwnerByIndex",
      "outputs": [
        {
          "internalType": "uint256",
          "name": "",
          "type": "uint256"
        }
      ],
      "stateMutability": "view",
      "type": "function",
      "constant": true
    },
    {
      "inputs": [
        {
          "internalType": "uint256",
          "name": "tokenId",
          "type": "uint256"
        }
      ],
      "name": "tokenURI",
      "outputs": [
        {
          "internalType": "string",
          "name": "",
          "type": "string"
        }
      ],
      "stateMutability": "view",
      "type": "function",
      "constant": true
    },
    {
      "inputs": [],
      "name": "totalSupply",
      "outputs": [
        {
          "internalType": "uint256",
          "name": "",
          "type": "uint256"
        }
      ],
      "stateMutability": "view",
      "type": "function",
      "constant": true
    },
    {
      "inputs": [
        {
          "internalType": "address",
          "name": "from",
          "type": "address"
        },
        {
          "internalType": "address",
          "name": "to",
          "type": "address"
        },
        {
          "internalType": "uint256",
          "name": "tokenId",
          "type": "uint256"
        }
      ],
      "name": "transferFrom",
      "outputs": [],
      "stateMutability": "nonpayable",
      "type": "function"
    },
    {
      "inputs": [
        {
          "internalType": "address",
          "name": "newOwner",
          "type": "address"
        }
      ],
      "name": "transferOwnership",
      "outputs": [],
      "stateMutability": "nonpayable",
      "type": "function"
    },
    {
      "inputs": [
        {
          "internalType": "address",
          "name": "manager",
          "type": "address"
        }
      ],
      "name": "setManager",
      "outputs": [],
      "stateMutability": "nonpayable",
      "type": "function"
    },
    {
      "inputs": [
        {
          "internalType": "string",
          "name": "newBaseURI",
          "type": "string"
        }
      ],
      "name": "setBaseURI",
      "outputs": [],
      "stateMutability": "nonpayable",
      "type": "function"
    },
    {
      "inputs": [],
      "name": "totalToken",
      "outputs": [
        {
          "internalType": "uint256",
          "name": "",
          "type": "uint256"
        }
      ],
      "stateMutability": "view",
      "type": "function",
      "constant": true
    },
    {
      "inputs": [],
      "name": "contractBalance",
      "outputs": [
        {
          "internalType": "uint256",
          "name": "",
          "type": "uint256"
        }
      ],
      "stateMutability": "view",
      "type": "function",
      "constant": true
    },
    {
      "inputs": [
        {
          "internalType": "address",
          "name": "_address",
          "type": "address"
        }
      ],
      "name": "addWalletToPreSale",
      "outputs": [],
      "stateMutability": "nonpayable",
      "type": "function"
    },
    {
      "inputs": [
        {
          "internalType": "address",
          "name": "_address",
          "type": "address"
        }
      ],
      "name": "isWalletInPreSale",
      "outputs": [
        {
          "internalType": "bool",
          "name": "",
          "type": "bool"
        }
      ],
      "stateMutability": "view",
      "type": "function",
      "constant": true
    },
    {
      "inputs": [
        {
          "internalType": "address",
          "name": "_address",
          "type": "address"
        }
      ],
      "name": "preSaleMenaceMinted",
      "outputs": [
        {
          "internalType": "uint256",
          "name": "",
          "type": "uint256"
        }
      ],
      "stateMutability": "view",
      "type": "function",
      "constant": true
    },
    {
      "inputs": [],
      "name": "flipSale",
      "outputs": [],
      "stateMutability": "nonpayable",
      "type": "function"
    },
    {
      "inputs": [],
      "name": "stateSail",
      "outputs": [
        {
          "internalType": "bool",
          "name": "",
          "type": "bool"
        }
      ],
      "stateMutability": "view",
      "type": "function",
      "constant": true
    },
    {
      "inputs": [],
      "name": "flipPreSale",
      "outputs": [],
      "stateMutability": "nonpayable",
      "type": "function"
    },
    {
      "inputs": [],
      "name": "statePreSail",
      "outputs": [
        {
          "internalType": "bool",
          "name": "",
          "type": "bool"
        }
      ],
      "stateMutability": "view",
      "type": "function",
      "constant": true
    },
    {
      "inputs": [
        {
          "internalType": "uint256",
          "name": "amount",
          "type": "uint256"
        },
        {
          "internalType": "address payable",
          "name": "to",
          "type": "address"
        }
      ],
      "name": "withdrawForGiveaway",
      "outputs": [],
      "stateMutability": "nonpayable",
      "type": "function"
    },
    {
      "inputs": [
        {
          "internalType": "uint256",
          "name": "amount",
          "type": "uint256"
        }
      ],
      "name": "withdraw",
      "outputs": [],
      "stateMutability": "payable",
      "type": "function",
      "payable": true
    },
    {
      "inputs": [
        {
          "internalType": "uint256",
          "name": "reserveAmount",
          "type": "uint256"
        },
        {
          "internalType": "address",
          "name": "mintAddress",
          "type": "address"
        }
      ],
      "name": "reserveMintMenace",
      "outputs": [],
      "stateMutability": "nonpayable",
      "type": "function"
    },
    {
      "inputs": [
        {
          "internalType": "uint256",
          "name": "numberOfTokens",
          "type": "uint256"
        }
      ],
      "name": "preMintMenace",
      "outputs": [],
      "stateMutability": "payable",
      "type": "function",
      "payable": true
    },
    {
      "inputs": [
        {
          "internalType": "uint256",
          "name": "numberOfTokens",
          "type": "uint256"
        }
      ],
      "name": "mintMenace",
      "outputs": [],
      "stateMutability": "payable",
      "type": "function",
      "payable": true
    },
    {
      "inputs": [],
      "name": "setStartingIndex",
      "outputs": [],
      "stateMutability": "nonpayable",
      "type": "function"
    },
    {
      "inputs": [],
      "name": "emergencySetStartingIndexBlock",
      "outputs": [],
      "stateMutability": "nonpayable",
      "type": "function"
    },
    {
      "inputs": [
        {
          "internalType": "string",
          "name": "provenanceHash",
          "type": "string"
        }
      ],
      "name": "setProvenanceHash",
      "outputs": [],
      "stateMutability": "nonpayable",
      "type": "function"
    },
    {
      "inputs": [
        {
          "internalType": "bytes4",
          "name": "interfaceId",
          "type": "bytes4"
        }
      ],
      "name": "supportsInterface",
      "outputs": [
        {
          "internalType": "bool",
          "name": "",
          "type": "bool"
        }
      ],
      "stateMutability": "view",
      "type": "function",
      "constant": true
    }
  ],
  "bytecode": "0x6080604052612710600c556000600e60006101000a81548160ff0219169083151502179055506000600e60016101000a81548160ff0219169083151502179055503480156200004d57600080fd5b506040518060400160405280600b81526020017f4d656e616365576f726c640000000000000000000000000000000000000000008152506040518060400160405280600681526020017f4d454e41434500000000000000000000000000000000000000000000000000008152508160009080519060200190620000d292919062000326565b508060019080519060200190620000eb92919062000326565b5050506200010e620001026200025860201b60201c565b6200026060201b60201c565b7324209282e198e7a807806f55a3322b98d3c65b29600f6000600381106200013b576200013a620003d6565b5b0160006101000a81548173ffffffffffffffffffffffffffffffffffffffff021916908373ffffffffffffffffffffffffffffffffffffffff16021790555073dfaac748709d31d95d638ddbc2bcb8462dfd2076600f600160038110620001a757620001a6620003d6565b5b0160006101000a81548173ffffffffffffffffffffffffffffffffffffffff021916908373ffffffffffffffffffffffffffffffffffffffff16021790555073c593ee28fc40c256d08d040a12fa1af4d8ef26bb600f600260038110620002135762000212620003d6565b5b0160006101000a81548173ffffffffffffffffffffffffffffffffffffffff021916908373ffffffffffffffffffffffffffffffffffffffff1602179055506200046a565b600033905090565b6000600a60009054906101000a900473ffffffffffffffffffffffffffffffffffffffff16905081600a60006101000a81548173ffffffffffffffffffffffffffffffffffffffff021916908373ffffffffffffffffffffffffffffffffffffffff1602179055508173ffffffffffffffffffffffffffffffffffffffff168173ffffffffffffffffffffffffffffffffffffffff167f8be0079c531659141344cd1fd0a4f28419497f9722a3daafe3b4186f6b6457e060405160405180910390a35050565b828054620003349062000434565b90600052602060002090601f016020900481019282620003585760008555620003a4565b82601f106200037357805160ff1916838001178555620003a4565b82800160010185558215620003a4579182015b82811115620003a357825182559160200191906001019062000386565b5b509050620003b39190620003b7565b5090565b5b80821115620003d2576000816000905550600101620003b8565b5090565b7f4e487b7100000000000000000000000000000000000000000000000000000000600052603260045260246000fd5b7f4e487b7100000000000000000000000000000000000000000000000000000000600052602260045260246000fd5b600060028204905060018216806200044d57607f821691505b6020821081141562000464576200046362000405565b5b50919050565b61569e806200047a6000396000f3fe6080604052600436106102935760003560e01c806370a082311161015a578063b88d4fde116100c1578063e985e9c51161007a578063e985e9c5146109b0578063e9866550146109ed578063eb8d244414610a04578063f2fde38b14610a2f578063fd0b057a14610a58578063ffd9dd1e14610a9557610293565b8063b88d4fde146108a0578063c87b56dd146108c9578063cb774d4714610906578063d0ebdbe714610931578063e36d64981461095a578063e389de171461098557610293565b80638b62f533116101135780638b62f533146107a25780638b7afe2e146107b95780638da5cb5b146107e457806395d89b411461080f578063a22cb4651461083a578063ae8e5ec91461086357610293565b806370a08231146106ca578063715018a6146107075780637ba5e6211461071e5780637d17fcbe1461073557806384f5ef9d1461074c578063874ae97c1461077757610293565b80632e1a7d4d116101fe5780634d7313a4116101b75780634d7313a4146105a85780634f6ccce7146105d157806355f804b31461060e578063626be567146106375780636352211e146106625780636c0360eb1461069f57610293565b80632e1a7d4d146104b65780632f745c59146104d257806342842e0e1461050f57806342966c68146105385780634498009d1461056157806347a7bf5a1461058c57610293565b806313af11eb1161025057806313af11eb146103ba57806318160ddd146103e357806319fad9fa1461040e5780631f0234d814610439578063233f50661461046457806323b872dd1461048d57610293565b806301ffc9a71461029857806306fdde03146102d5578063081812fc14610300578063095ea7b31461033d5780630f7309e8146103665780631096952314610391575b600080fd5b3480156102a457600080fd5b506102bf60048036038101906102ba9190613cb2565b610ab1565b6040516102cc9190613cfa565b60405180910390f35b3480156102e157600080fd5b506102ea610ac3565b6040516102f79190613dae565b60405180910390f35b34801561030c57600080fd5b5061032760048036038101906103229190613e06565b610b55565b6040516103349190613e74565b60405180910390f35b34801561034957600080fd5b50610364600480360381019061035f9190613ebb565b610bda565b005b34801561037257600080fd5b5061037b610cf2565b6040516103889190613dae565b60405180910390f35b34801561039d57600080fd5b506103b860048036038101906103b39190614030565b610d80565b005b3480156103c657600080fd5b506103e160048036038101906103dc9190614079565b610e75565b005b3480156103ef57600080fd5b506103f8610ffa565b60405161040591906140c8565b60405180910390f35b34801561041a57600080fd5b50610423611007565b60405161043091906140c8565b60405180910390f35b34801561044557600080fd5b5061044e61100d565b60405161045b9190613cfa565b60405180910390f35b34801561047057600080fd5b5061048b600480360381019061048691906140e3565b611020565b005b34801561049957600080fd5b506104b460048036038101906104af9190614110565b611156565b005b6104d060048036038101906104cb9190613e06565b6111b6565b005b3480156104de57600080fd5b506104f960048036038101906104f49190613ebb565b6112c5565b60405161050691906140c8565b60405180910390f35b34801561051b57600080fd5b5061053660048036038101906105319190614110565b61136a565b005b34801561054457600080fd5b5061055f600480360381019061055a9190613e06565b61138a565b005b34801561056d57600080fd5b506105766113e6565b60405161058391906140c8565b60405180910390f35b6105a660048036038101906105a19190613e06565b6113f2565b005b3480156105b457600080fd5b506105cf60048036038101906105ca91906141a1565b61161c565b005b3480156105dd57600080fd5b506105f860048036038101906105f39190613e06565b61175b565b60405161060591906140c8565b60405180910390f35b34801561061a57600080fd5b5061063560048036038101906106309190614030565b6117cc565b005b34801561064357600080fd5b5061064c6118c1565b60405161065991906140c8565b60405180910390f35b34801561066e57600080fd5b5061068960048036038101906106849190613e06565b6118d2565b6040516106969190613e74565b60405180910390f35b3480156106ab57600080fd5b506106b4611984565b6040516106c19190613dae565b60405180910390f35b3480156106d657600080fd5b506106f160048036038101906106ec91906140e3565b611a12565b6040516106fe91906140c8565b60405180910390f35b34801561071357600080fd5b5061071c611aca565b005b34801561072a57600080fd5b50610733611b52565b005b34801561074157600080fd5b5061074a611c59565b005b34801561075857600080fd5b50610761611d82565b60405161076e91906140c8565b60405180910390f35b34801561078357600080fd5b5061078c611d87565b6040516107999190613cfa565b60405180910390f35b3480156107ae57600080fd5b506107b7611d9e565b005b3480156107c557600080fd5b506107ce611ea5565b6040516107db91906140c8565b60405180910390f35b3480156107f057600080fd5b506107f9611f88565b6040516108069190613e74565b60405180910390f35b34801561081b57600080fd5b50610824611fb2565b6040516108319190613dae565b60405180910390f35b34801561084657600080fd5b50610861600480360381019061085c919061420d565b612044565b005b34801561086f57600080fd5b5061088a600480360381019061088591906140e3565b6121c5565b6040516108979190613cfa565b60405180910390f35b3480156108ac57600080fd5b506108c760048036038101906108c291906142ee565b61221b565b005b3480156108d557600080fd5b506108f060048036038101906108eb9190613e06565b61227d565b6040516108fd9190613dae565b60405180910390f35b34801561091257600080fd5b5061091b612324565b60405161092891906140c8565b60405180910390f35b34801561093d57600080fd5b50610958600480360381019061095391906140e3565b61232a565b005b34801561096657600080fd5b5061096f6123ea565b60405161097c91906140c8565b60405180910390f35b34801561099157600080fd5b5061099a6123f0565b6040516109a79190613cfa565b60405180910390f35b3480156109bc57600080fd5b506109d760048036038101906109d29190614371565b612407565b6040516109e49190613cfa565b60405180910390f35b3480156109f957600080fd5b50610a0261249b565b005b348015610a1057600080fd5b50610a1961266c565b604051610a269190613cfa565b60405180910390f35b348015610a3b57600080fd5b50610a566004803603810190610a5191906140e3565b61267f565b005b348015610a6457600080fd5b50610a7f6004803603810190610a7a91906140e3565b612777565b604051610a8c91906140c8565b60405180910390f35b610aaf6004803603810190610aaa9190613e06565b6127c0565b005b6000610abc8261290c565b9050919050565b606060008054610ad2906143e0565b80601f0160208091040260200160405190810160405280929190818152602001828054610afe906143e0565b8015610b4b5780601f10610b2057610100808354040283529160200191610b4b565b820191906000526020600020905b815481529060010190602001808311610b2e57829003601f168201915b5050505050905090565b6000610b6082612986565b610b9f576040517f08c379a0000000000000000000000000000000000000000000000000000000008152600401610b9690614484565b60405180910390fd5b6004600083815260200190815260200160002060009054906101000a900473ffffffffffffffffffffffffffffffffffffffff169050919050565b6000610be5826118d2565b90508073ffffffffffffffffffffffffffffffffffffffff168373ffffffffffffffffffffffffffffffffffffffff161415610c56576040517f08c379a0000000000000000000000000000000000000000000000000000000008152600401610c4d90614516565b60405180910390fd5b8073ffffffffffffffffffffffffffffffffffffffff16610c756129f2565b73ffffffffffffffffffffffffffffffffffffffff161480610ca45750610ca381610c9e6129f2565b612407565b5b610ce3576040517f08c379a0000000000000000000000000000000000000000000000000000000008152600401610cda906145a8565b60405180910390fd5b610ced83836129fa565b505050565b60188054610cff906143e0565b80601f0160208091040260200160405190810160405280929190818152602001828054610d2b906143e0565b8015610d785780601f10610d4d57610100808354040283529160200191610d78565b820191906000526020600020905b815481529060010190602001808311610d5b57829003601f168201915b505050505081565b610d886129f2565b73ffffffffffffffffffffffffffffffffffffffff16610da6611f88565b73ffffffffffffffffffffffffffffffffffffffff161480610e1c5750610dcb6129f2565b73ffffffffffffffffffffffffffffffffffffffff16601560009054906101000a900473ffffffffffffffffffffffffffffffffffffffff1673ffffffffffffffffffffffffffffffffffffffff16145b610e5b576040517f08c379a0000000000000000000000000000000000000000000000000000000008152600401610e529061463a565b60405180910390fd5b8060189080519060200190610e71929190613ba3565b5050565b610e7d6129f2565b73ffffffffffffffffffffffffffffffffffffffff16610e9b611f88565b73ffffffffffffffffffffffffffffffffffffffff161480610f115750610ec06129f2565b73ffffffffffffffffffffffffffffffffffffffff16601560009054906101000a900473ffffffffffffffffffffffffffffffffffffffff1673ffffffffffffffffffffffffffffffffffffffff16145b610f50576040517f08c379a0000000000000000000000000000000000000000000000000000000008152600401610f479061463a565b60405180910390fd5b600c54610f5b610ffa565b1115610f9c576040517f08c379a0000000000000000000000000000000000000000000000000000000008152600401610f93906146cc565b60405180910390fd5b6000610fa8600b612ab3565b905060005b83811015610ff457610fcb83600184610fc6919061471b565b612ac1565b610fd5600b612adf565b610fdf600b612ab3565b91508080610fec90614771565b915050610fad565b50505050565b6000600880549050905090565b600c5481565b600e60019054906101000a900460ff1681565b6110286129f2565b73ffffffffffffffffffffffffffffffffffffffff16611046611f88565b73ffffffffffffffffffffffffffffffffffffffff1614806110bc575061106b6129f2565b73ffffffffffffffffffffffffffffffffffffffff16601560009054906101000a900473ffffffffffffffffffffffffffffffffffffffff1673ffffffffffffffffffffffffffffffffffffffff16145b6110fb576040517f08c379a00000000000000000000000000000000000000000000000000000000081526004016110f29061463a565b60405180910390fd5b6001601960008373ffffffffffffffffffffffffffffffffffffffff1673ffffffffffffffffffffffffffffffffffffffff16815260200190815260200160002060006101000a81548160ff02191690831515021790555050565b6111676111616129f2565b82612af5565b6111a6576040517f08c379a000000000000000000000000000000000000000000000000000000000815260040161119d9061482c565b60405180910390fd5b6111b1838383612bd3565b505050565b804710156111f9576040517f08c379a00000000000000000000000000000000000000000000000000000000081526004016111f090614898565b60405180910390fd5b6000600390506000670de0b6b3a76400008361121591906148b8565b905081816112239190614941565b905060005b828110156112bf57600f816003811061124457611243614972565b5b0160009054906101000a900473ffffffffffffffffffffffffffffffffffffffff1673ffffffffffffffffffffffffffffffffffffffff166108fc839081150290604051600060405180830381858888f193505050501580156112ab573d6000803e3d6000fd5b5080806112b790614771565b915050611228565b50505050565b60006112d083611a12565b8210611311576040517f08c379a000000000000000000000000000000000000000000000000000000000815260040161130890614a13565b60405180910390fd5b600660008473ffffffffffffffffffffffffffffffffffffffff1673ffffffffffffffffffffffffffffffffffffffff168152602001908152602001600020600083815260200190815260200160002054905092915050565b6113858383836040518060200160405280600081525061221b565b505050565b61139b6113956129f2565b82612af5565b6113da576040517f08c379a00000000000000000000000000000000000000000000000000000000081526004016113d190614aa5565b60405180910390fd5b6113e381612e2f565b50565b670214e8348c4f000081565b60011515601960003373ffffffffffffffffffffffffffffffffffffffff1673ffffffffffffffffffffffffffffffffffffffff16815260200190815260200160002060009054906101000a900460ff16151514611485576040517f08c379a000000000000000000000000000000000000000000000000000000000815260040161147c90614b37565b60405180910390fd5b600c5481601a60003373ffffffffffffffffffffffffffffffffffffffff1673ffffffffffffffffffffffffffffffffffffffff168152602001908152602001600020546114d3919061471b565b1115611514576040517f08c379a000000000000000000000000000000000000000000000000000000000815260040161150b90614bc9565b60405180910390fd5b3481670214e8348c4f000061152991906148b8565b111561156a576040517f08c379a000000000000000000000000000000000000000000000000000000000815260040161156190614c35565b60405180910390fd5b60005b818110156116185760006001611583600b612ab3565b61158d919061471b565b9050600c548111611604576115a23382612ac1565b6115ac600b612adf565b6001601a60003373ffffffffffffffffffffffffffffffffffffffff1673ffffffffffffffffffffffffffffffffffffffff16815260200190815260200160002060008282546115fc919061471b565b925050819055505b50808061161090614771565b91505061156d565b5050565b6116246129f2565b73ffffffffffffffffffffffffffffffffffffffff16611642611f88565b73ffffffffffffffffffffffffffffffffffffffff1614806116b857506116676129f2565b73ffffffffffffffffffffffffffffffffffffffff16601560009054906101000a900473ffffffffffffffffffffffffffffffffffffffff1673ffffffffffffffffffffffffffffffffffffffff16145b6116f7576040517f08c379a00000000000000000000000000000000000000000000000000000000081526004016116ee9061463a565b60405180910390fd5b6000670de0b6b3a76400008361170d91906148b8565b90508173ffffffffffffffffffffffffffffffffffffffff166108fc829081150290604051600060405180830381858888f19350505050158015611755573d6000803e3d6000fd5b50505050565b6000611765610ffa565b82106117a6576040517f08c379a000000000000000000000000000000000000000000000000000000000815260040161179d90614cc7565b60405180910390fd5b600882815481106117ba576117b9614972565b5b90600052602060002001549050919050565b6117d46129f2565b73ffffffffffffffffffffffffffffffffffffffff166117f2611f88565b73ffffffffffffffffffffffffffffffffffffffff16148061186857506118176129f2565b73ffffffffffffffffffffffffffffffffffffffff16601560009054906101000a900473ffffffffffffffffffffffffffffffffffffffff1673ffffffffffffffffffffffffffffffffffffffff16145b6118a7576040517f08c379a000000000000000000000000000000000000000000000000000000000815260040161189e9061463a565b60405180910390fd5b80600d90805190602001906118bd929190613ba3565b5050565b60006118cd600b612ab3565b905090565b6000806002600084815260200190815260200160002060009054906101000a900473ffffffffffffffffffffffffffffffffffffffff169050600073ffffffffffffffffffffffffffffffffffffffff168173ffffffffffffffffffffffffffffffffffffffff16141561197b576040517f08c379a000000000000000000000000000000000000000000000000000000000815260040161197290614d59565b60405180910390fd5b80915050919050565b600d8054611991906143e0565b80601f01602080910402602001604051908101604052809291908181526020018280546119bd906143e0565b8015611a0a5780601f106119df57610100808354040283529160200191611a0a565b820191906000526020600020905b8154815290600101906020018083116119ed57829003601f168201915b505050505081565b60008073ffffffffffffffffffffffffffffffffffffffff168273ffffffffffffffffffffffffffffffffffffffff161415611a83576040517f08c379a0000000000000000000000000000000000000000000000000000000008152600401611a7a90614deb565b60405180910390fd5b600360008373ffffffffffffffffffffffffffffffffffffffff1673ffffffffffffffffffffffffffffffffffffffff168152602001908152602001600020549050919050565b611ad26129f2565b73ffffffffffffffffffffffffffffffffffffffff16611af0611f88565b73ffffffffffffffffffffffffffffffffffffffff1614611b46576040517f08c379a0000000000000000000000000000000000000000000000000000000008152600401611b3d90614e57565b60405180910390fd5b611b506000612f40565b565b611b5a6129f2565b73ffffffffffffffffffffffffffffffffffffffff16611b78611f88565b73ffffffffffffffffffffffffffffffffffffffff161480611bee5750611b9d6129f2565b73ffffffffffffffffffffffffffffffffffffffff16601560009054906101000a900473ffffffffffffffffffffffffffffffffffffffff1673ffffffffffffffffffffffffffffffffffffffff16145b611c2d576040517f08c379a0000000000000000000000000000000000000000000000000000000008152600401611c249061463a565b60405180910390fd5b600e60009054906101000a900460ff1615600e60006101000a81548160ff021916908315150217905550565b611c616129f2565b73ffffffffffffffffffffffffffffffffffffffff16611c7f611f88565b73ffffffffffffffffffffffffffffffffffffffff161480611cf55750611ca46129f2565b73ffffffffffffffffffffffffffffffffffffffff16601560009054906101000a900473ffffffffffffffffffffffffffffffffffffffff1673ffffffffffffffffffffffffffffffffffffffff16145b611d34576040517f08c379a0000000000000000000000000000000000000000000000000000000008152600401611d2b9061463a565b60405180910390fd5b600060165414611d79576040517f08c379a0000000000000000000000000000000000000000000000000000000008152600401611d7090614ec3565b60405180910390fd5b43601781905550565b600281565b6000600e60019054906101000a900460ff16905090565b611da66129f2565b73ffffffffffffffffffffffffffffffffffffffff16611dc4611f88565b73ffffffffffffffffffffffffffffffffffffffff161480611e3a5750611de96129f2565b73ffffffffffffffffffffffffffffffffffffffff16601560009054906101000a900473ffffffffffffffffffffffffffffffffffffffff1673ffffffffffffffffffffffffffffffffffffffff16145b611e79576040517f08c379a0000000000000000000000000000000000000000000000000000000008152600401611e709061463a565b60405180910390fd5b600e60019054906101000a900460ff1615600e60016101000a81548160ff021916908315150217905550565b6000611eaf6129f2565b73ffffffffffffffffffffffffffffffffffffffff16611ecd611f88565b73ffffffffffffffffffffffffffffffffffffffff161480611f435750611ef26129f2565b73ffffffffffffffffffffffffffffffffffffffff16601560009054906101000a900473ffffffffffffffffffffffffffffffffffffffff1673ffffffffffffffffffffffffffffffffffffffff16145b611f82576040517f08c379a0000000000000000000000000000000000000000000000000000000008152600401611f799061463a565b60405180910390fd5b47905090565b6000600a60009054906101000a900473ffffffffffffffffffffffffffffffffffffffff16905090565b606060018054611fc1906143e0565b80601f0160208091040260200160405190810160405280929190818152602001828054611fed906143e0565b801561203a5780601f1061200f5761010080835404028352916020019161203a565b820191906000526020600020905b81548152906001019060200180831161201d57829003601f168201915b5050505050905090565b61204c6129f2565b73ffffffffffffffffffffffffffffffffffffffff168273ffffffffffffffffffffffffffffffffffffffff1614156120ba576040517f08c379a00000000000000000000000000000000000000000000000000000000081526004016120b190614f2f565b60405180910390fd5b80600560006120c76129f2565b73ffffffffffffffffffffffffffffffffffffffff1673ffffffffffffffffffffffffffffffffffffffff16815260200190815260200160002060008473ffffffffffffffffffffffffffffffffffffffff1673ffffffffffffffffffffffffffffffffffffffff16815260200190815260200160002060006101000a81548160ff0219169083151502179055508173ffffffffffffffffffffffffffffffffffffffff166121746129f2565b73ffffffffffffffffffffffffffffffffffffffff167f17307eab39ab6107e8899845ad3d59bd9653f200f220920489ca2b5937696c31836040516121b99190613cfa565b60405180910390a35050565b6000601960008373ffffffffffffffffffffffffffffffffffffffff1673ffffffffffffffffffffffffffffffffffffffff16815260200190815260200160002060009054906101000a900460ff169050919050565b61222c6122266129f2565b83612af5565b61226b576040517f08c379a00000000000000000000000000000000000000000000000000000000081526004016122629061482c565b60405180910390fd5b61227784848484613006565b50505050565b606061228882612986565b6122c7576040517f08c379a00000000000000000000000000000000000000000000000000000000081526004016122be90614fc1565b60405180910390fd5b60006122d1613062565b905060008151116122f1576040518060200160405280600081525061231c565b806122fb846130f4565b60405160200161230c92919061501d565b6040516020818303038152906040525b915050919050565b60165481565b6123326129f2565b73ffffffffffffffffffffffffffffffffffffffff16612350611f88565b73ffffffffffffffffffffffffffffffffffffffff16146123a6576040517f08c379a000000000000000000000000000000000000000000000000000000000815260040161239d90614e57565b60405180910390fd5b80601560006101000a81548173ffffffffffffffffffffffffffffffffffffffff021916908373ffffffffffffffffffffffffffffffffffffffff16021790555050565b60175481565b6000600e60009054906101000a900460ff16905090565b6000600560008473ffffffffffffffffffffffffffffffffffffffff1673ffffffffffffffffffffffffffffffffffffffff16815260200190815260200160002060008373ffffffffffffffffffffffffffffffffffffffff1673ffffffffffffffffffffffffffffffffffffffff16815260200190815260200160002060009054906101000a900460ff16905092915050565b6124a36129f2565b73ffffffffffffffffffffffffffffffffffffffff166124c1611f88565b73ffffffffffffffffffffffffffffffffffffffff16148061253757506124e66129f2565b73ffffffffffffffffffffffffffffffffffffffff16601560009054906101000a900473ffffffffffffffffffffffffffffffffffffffff1673ffffffffffffffffffffffffffffffffffffffff16145b612576576040517f08c379a000000000000000000000000000000000000000000000000000000000815260040161256d9061463a565b60405180910390fd5b6000601654146125bb576040517f08c379a00000000000000000000000000000000000000000000000000000000081526004016125b290614ec3565b60405180910390fd5b60006017541415612601576040517f08c379a00000000000000000000000000000000000000000000000000000000081526004016125f89061508d565b60405180910390fd5b600c546017544060001c61261591906150ad565b60168190555060ff6017544361262b91906150de565b111561265657600c5460014361264191906150de565b4060001c61264f91906150ad565b6016819055505b6000601654141561266a5760016016819055505b565b600e60009054906101000a900460ff1681565b6126876129f2565b73ffffffffffffffffffffffffffffffffffffffff166126a5611f88565b73ffffffffffffffffffffffffffffffffffffffff16146126fb576040517f08c379a00000000000000000000000000000000000000000000000000000000081526004016126f290614e57565b60405180910390fd5b600073ffffffffffffffffffffffffffffffffffffffff168173ffffffffffffffffffffffffffffffffffffffff16141561276b576040517f08c379a000000000000000000000000000000000000000000000000000000000815260040161276290615184565b60405180910390fd5b61277481612f40565b50565b6000601a60008373ffffffffffffffffffffffffffffffffffffffff1673ffffffffffffffffffffffffffffffffffffffff168152602001908152602001600020549050919050565b6002811115612804576040517f08c379a00000000000000000000000000000000000000000000000000000000081526004016127fb90615216565b60405180910390fd5b600c5481612810610ffa565b61281a919061471b565b111561285b576040517f08c379a0000000000000000000000000000000000000000000000000000000008152600401612852906146cc565b60405180910390fd5b3481670214e8348c4f000061287091906148b8565b11156128b1576040517f08c379a00000000000000000000000000000000000000000000000000000000081526004016128a890614c35565b60405180910390fd5b60005b8181101561290857600060016128ca600b612ab3565b6128d4919061471b565b9050600c5481116128f4576128e93382612ac1565b6128f3600b612adf565b5b50808061290090614771565b9150506128b4565b5050565b60007f780e9d63000000000000000000000000000000000000000000000000000000007bffffffffffffffffffffffffffffffffffffffffffffffffffffffff1916827bffffffffffffffffffffffffffffffffffffffffffffffffffffffff1916148061297f575061297e82613255565b5b9050919050565b60008073ffffffffffffffffffffffffffffffffffffffff166002600084815260200190815260200160002060009054906101000a900473ffffffffffffffffffffffffffffffffffffffff1673ffffffffffffffffffffffffffffffffffffffff1614159050919050565b600033905090565b816004600083815260200190815260200160002060006101000a81548173ffffffffffffffffffffffffffffffffffffffff021916908373ffffffffffffffffffffffffffffffffffffffff160217905550808273ffffffffffffffffffffffffffffffffffffffff16612a6d836118d2565b73ffffffffffffffffffffffffffffffffffffffff167f8c5be1e5ebec7d5bd14f71427d1e84f3dd0314c0f7b2291e5b200ac8c7c3b92560405160405180910390a45050565b600081600001549050919050565b612adb828260405180602001604052806000815250613337565b5050565b6001816000016000828254019250508190555050565b6000612b0082612986565b612b3f576040517f08c379a0000000000000000000000000000000000000000000000000000000008152600401612b36906152a8565b60405180910390fd5b6000612b4a836118d2565b90508073ffffffffffffffffffffffffffffffffffffffff168473ffffffffffffffffffffffffffffffffffffffff161480612bb957508373ffffffffffffffffffffffffffffffffffffffff16612ba184610b55565b73ffffffffffffffffffffffffffffffffffffffff16145b80612bca5750612bc98185612407565b5b91505092915050565b8273ffffffffffffffffffffffffffffffffffffffff16612bf3826118d2565b73ffffffffffffffffffffffffffffffffffffffff1614612c49576040517f08c379a0000000000000000000000000000000000000000000000000000000008152600401612c409061533a565b60405180910390fd5b600073ffffffffffffffffffffffffffffffffffffffff168273ffffffffffffffffffffffffffffffffffffffff161415612cb9576040517f08c379a0000000000000000000000000000000000000000000000000000000008152600401612cb0906153cc565b60405180910390fd5b612cc4838383613392565b612ccf6000826129fa565b6001600360008573ffffffffffffffffffffffffffffffffffffffff1673ffffffffffffffffffffffffffffffffffffffff1681526020019081526020016000206000828254612d1f91906150de565b925050819055506001600360008473ffffffffffffffffffffffffffffffffffffffff1673ffffffffffffffffffffffffffffffffffffffff1681526020019081526020016000206000828254612d76919061471b565b92505081905550816002600083815260200190815260200160002060006101000a81548173ffffffffffffffffffffffffffffffffffffffff021916908373ffffffffffffffffffffffffffffffffffffffff160217905550808273ffffffffffffffffffffffffffffffffffffffff168473ffffffffffffffffffffffffffffffffffffffff167fddf252ad1be2c89b69c2b068fc378daa952ba7f163c4a11628f55a4df523b3ef60405160405180910390a4505050565b6000612e3a826118d2565b9050612e4881600084613392565b612e536000836129fa565b6001600360008373ffffffffffffffffffffffffffffffffffffffff1673ffffffffffffffffffffffffffffffffffffffff1681526020019081526020016000206000828254612ea391906150de565b925050819055506002600083815260200190815260200160002060006101000a81549073ffffffffffffffffffffffffffffffffffffffff021916905581600073ffffffffffffffffffffffffffffffffffffffff168273ffffffffffffffffffffffffffffffffffffffff167fddf252ad1be2c89b69c2b068fc378daa952ba7f163c4a11628f55a4df523b3ef60405160405180910390a45050565b6000600a60009054906101000a900473ffffffffffffffffffffffffffffffffffffffff16905081600a60006101000a81548173ffffffffffffffffffffffffffffffffffffffff021916908373ffffffffffffffffffffffffffffffffffffffff1602179055508173ffffffffffffffffffffffffffffffffffffffff168173ffffffffffffffffffffffffffffffffffffffff167f8be0079c531659141344cd1fd0a4f28419497f9722a3daafe3b4186f6b6457e060405160405180910390a35050565b613011848484612bd3565b61301d848484846133a2565b61305c576040517f08c379a00000000000000000000000000000000000000000000000000000000081526004016130539061545e565b60405180910390fd5b50505050565b6060600d8054613071906143e0565b80601f016020809104026020016040519081016040528092919081815260200182805461309d906143e0565b80156130ea5780601f106130bf576101008083540402835291602001916130ea565b820191906000526020600020905b8154815290600101906020018083116130cd57829003601f168201915b5050505050905090565b6060600082141561313c576040518060400160405280600181526020017f30000000000000000000000000000000000000000000000000000000000000008152509050613250565b600082905060005b6000821461316e57808061315790614771565b915050600a826131679190614941565b9150613144565b60008167ffffffffffffffff81111561318a57613189613f05565b5b6040519080825280601f01601f1916602001820160405280156131bc5781602001600182028036833780820191505090505b5090505b60008514613249576001826131d591906150de565b9150600a856131e491906150ad565b60306131f0919061471b565b60f81b81838151811061320657613205614972565b5b60200101907effffffffffffffffffffffffffffffffffffffffffffffffffffffffffffff1916908160001a905350600a856132429190614941565b94506131c0565b8093505050505b919050565b60007f80ac58cd000000000000000000000000000000000000000000000000000000007bffffffffffffffffffffffffffffffffffffffffffffffffffffffff1916827bffffffffffffffffffffffffffffffffffffffffffffffffffffffff1916148061332057507f5b5e139f000000000000000000000000000000000000000000000000000000007bffffffffffffffffffffffffffffffffffffffffffffffffffffffff1916827bffffffffffffffffffffffffffffffffffffffffffffffffffffffff1916145b80613330575061332f82613539565b5b9050919050565b61334183836135a3565b61334e60008484846133a2565b61338d576040517f08c379a00000000000000000000000000000000000000000000000000000000081526004016133849061545e565b60405180910390fd5b505050565b61339d838383613771565b505050565b60006133c38473ffffffffffffffffffffffffffffffffffffffff16613885565b1561352c578373ffffffffffffffffffffffffffffffffffffffff1663150b7a026133ec6129f2565b8786866040518563ffffffff1660e01b815260040161340e94939291906154d3565b602060405180830381600087803b15801561342857600080fd5b505af192505050801561345957506040513d601f19601f820116820180604052508101906134569190615534565b60015b6134dc573d8060008114613489576040519150601f19603f3d011682016040523d82523d6000602084013e61348e565b606091505b506000815114156134d4576040517f08c379a00000000000000000000000000000000000000000000000000000000081526004016134cb9061545e565b60405180910390fd5b805181602001fd5b63150b7a0260e01b7bffffffffffffffffffffffffffffffffffffffffffffffffffffffff1916817bffffffffffffffffffffffffffffffffffffffffffffffffffffffff191614915050613531565b600190505b949350505050565b60007f01ffc9a7000000000000000000000000000000000000000000000000000000007bffffffffffffffffffffffffffffffffffffffffffffffffffffffff1916827bffffffffffffffffffffffffffffffffffffffffffffffffffffffff1916149050919050565b600073ffffffffffffffffffffffffffffffffffffffff168273ffffffffffffffffffffffffffffffffffffffff161415613613576040517f08c379a000000000000000000000000000000000000000000000000000000000815260040161360a906155ad565b60405180910390fd5b61361c81612986565b1561365c576040517f08c379a000000000000000000000000000000000000000000000000000000000815260040161365390615619565b60405180910390fd5b61366860008383613392565b6001600360008473ffffffffffffffffffffffffffffffffffffffff1673ffffffffffffffffffffffffffffffffffffffff16815260200190815260200160002060008282546136b8919061471b565b92505081905550816002600083815260200190815260200160002060006101000a81548173ffffffffffffffffffffffffffffffffffffffff021916908373ffffffffffffffffffffffffffffffffffffffff160217905550808273ffffffffffffffffffffffffffffffffffffffff16600073ffffffffffffffffffffffffffffffffffffffff167fddf252ad1be2c89b69c2b068fc378daa952ba7f163c4a11628f55a4df523b3ef60405160405180910390a45050565b61377c838383613898565b600073ffffffffffffffffffffffffffffffffffffffff168373ffffffffffffffffffffffffffffffffffffffff1614156137bf576137ba8161389d565b6137fe565b8173ffffffffffffffffffffffffffffffffffffffff168373ffffffffffffffffffffffffffffffffffffffff16146137fd576137fc83826138e6565b5b5b600073ffffffffffffffffffffffffffffffffffffffff168273ffffffffffffffffffffffffffffffffffffffff1614156138415761383c81613a53565b613880565b8273ffffffffffffffffffffffffffffffffffffffff168273ffffffffffffffffffffffffffffffffffffffff161461387f5761387e8282613b24565b5b5b505050565b600080823b905060008111915050919050565b505050565b6008805490506009600083815260200190815260200160002081905550600881908060018154018082558091505060019003906000526020600020016000909190919091505550565b600060016138f384611a12565b6138fd91906150de565b90506000600760008481526020019081526020016000205490508181146139e2576000600660008673ffffffffffffffffffffffffffffffffffffffff1673ffffffffffffffffffffffffffffffffffffffff168152602001908152602001600020600084815260200190815260200160002054905080600660008773ffffffffffffffffffffffffffffffffffffffff1673ffffffffffffffffffffffffffffffffffffffff168152602001908152602001600020600084815260200190815260200160002081905550816007600083815260200190815260200160002081905550505b6007600084815260200190815260200160002060009055600660008573ffffffffffffffffffffffffffffffffffffffff1673ffffffffffffffffffffffffffffffffffffffff16815260200190815260200160002060008381526020019081526020016000206000905550505050565b60006001600880549050613a6791906150de565b9050600060096000848152602001908152602001600020549050600060088381548110613a9757613a96614972565b5b906000526020600020015490508060088381548110613ab957613ab8614972565b5b906000526020600020018190555081600960008381526020019081526020016000208190555060096000858152602001908152602001600020600090556008805480613b0857613b07615639565b5b6001900381819060005260206000200160009055905550505050565b6000613b2f83611a12565b905081600660008573ffffffffffffffffffffffffffffffffffffffff1673ffffffffffffffffffffffffffffffffffffffff168152602001908152602001600020600083815260200190815260200160002081905550806007600084815260200190815260200160002081905550505050565b828054613baf906143e0565b90600052602060002090601f016020900481019282613bd15760008555613c18565b82601f10613bea57805160ff1916838001178555613c18565b82800160010185558215613c18579182015b82811115613c17578251825591602001919060010190613bfc565b5b509050613c259190613c29565b5090565b5b80821115613c42576000816000905550600101613c2a565b5090565b6000604051905090565b600080fd5b600080fd5b60007fffffffff0000000000000000000000000000000000000000000000000000000082169050919050565b613c8f81613c5a565b8114613c9a57600080fd5b50565b600081359050613cac81613c86565b92915050565b600060208284031215613cc857613cc7613c50565b5b6000613cd684828501613c9d565b91505092915050565b60008115159050919050565b613cf481613cdf565b82525050565b6000602082019050613d0f6000830184613ceb565b92915050565b600081519050919050565b600082825260208201905092915050565b60005b83811015613d4f578082015181840152602081019050613d34565b83811115613d5e576000848401525b50505050565b6000601f19601f8301169050919050565b6000613d8082613d15565b613d8a8185613d20565b9350613d9a818560208601613d31565b613da381613d64565b840191505092915050565b60006020820190508181036000830152613dc88184613d75565b905092915050565b6000819050919050565b613de381613dd0565b8114613dee57600080fd5b50565b600081359050613e0081613dda565b92915050565b600060208284031215613e1c57613e1b613c50565b5b6000613e2a84828501613df1565b91505092915050565b600073ffffffffffffffffffffffffffffffffffffffff82169050919050565b6000613e5e82613e33565b9050919050565b613e6e81613e53565b82525050565b6000602082019050613e896000830184613e65565b92915050565b613e9881613e53565b8114613ea357600080fd5b50565b600081359050613eb581613e8f565b92915050565b60008060408385031215613ed257613ed1613c50565b5b6000613ee085828601613ea6565b9250506020613ef185828601613df1565b9150509250929050565b600080fd5b600080fd5b7f4e487b7100000000000000000000000000000000000000000000000000000000600052604160045260246000fd5b613f3d82613d64565b810181811067ffffffffffffffff82111715613f5c57613f5b613f05565b5b80604052505050565b6000613f6f613c46565b9050613f7b8282613f34565b919050565b600067ffffffffffffffff821115613f9b57613f9a613f05565b5b613fa482613d64565b9050602081019050919050565b82818337600083830152505050565b6000613fd3613fce84613f80565b613f65565b905082815260208101848484011115613fef57613fee613f00565b5b613ffa848285613fb1565b509392505050565b600082601f83011261401757614016613efb565b5b8135614027848260208601613fc0565b91505092915050565b60006020828403121561404657614045613c50565b5b600082013567ffffffffffffffff81111561406457614063613c55565b5b61407084828501614002565b91505092915050565b600080604083850312156140905761408f613c50565b5b600061409e85828601613df1565b92505060206140af85828601613ea6565b9150509250929050565b6140c281613dd0565b82525050565b60006020820190506140dd60008301846140b9565b92915050565b6000602082840312156140f9576140f8613c50565b5b600061410784828501613ea6565b91505092915050565b60008060006060848603121561412957614128613c50565b5b600061413786828701613ea6565b935050602061414886828701613ea6565b925050604061415986828701613df1565b9150509250925092565b600061416e82613e33565b9050919050565b61417e81614163565b811461418957600080fd5b50565b60008135905061419b81614175565b92915050565b600080604083850312156141b8576141b7613c50565b5b60006141c685828601613df1565b92505060206141d78582860161418c565b9150509250929050565b6141ea81613cdf565b81146141f557600080fd5b50565b600081359050614207816141e1565b92915050565b6000806040838503121561422457614223613c50565b5b600061423285828601613ea6565b9250506020614243858286016141f8565b9150509250929050565b600067ffffffffffffffff82111561426857614267613f05565b5b61427182613d64565b9050602081019050919050565b600061429161428c8461424d565b613f65565b9050828152602081018484840111156142ad576142ac613f00565b5b6142b8848285613fb1565b509392505050565b600082601f8301126142d5576142d4613efb565b5b81356142e584826020860161427e565b91505092915050565b6000806000806080858703121561430857614307613c50565b5b600061431687828801613ea6565b945050602061432787828801613ea6565b935050604061433887828801613df1565b925050606085013567ffffffffffffffff81111561435957614358613c55565b5b614365878288016142c0565b91505092959194509250565b6000806040838503121561438857614387613c50565b5b600061439685828601613ea6565b92505060206143a785828601613ea6565b9150509250929050565b7f4e487b7100000000000000000000000000000000000000000000000000000000600052602260045260246000fd5b600060028204905060018216806143f857607f821691505b6020821081141561440c5761440b6143b1565b5b50919050565b7f4552433732313a20617070726f76656420717565727920666f72206e6f6e657860008201527f697374656e7420746f6b656e0000000000000000000000000000000000000000602082015250565b600061446e602c83613d20565b915061447982614412565b604082019050919050565b6000602082019050818103600083015261449d81614461565b9050919050565b7f4552433732313a20617070726f76616c20746f2063757272656e74206f776e6560008201527f7200000000000000000000000000000000000000000000000000000000000000602082015250565b6000614500602183613d20565b915061450b826144a4565b604082019050919050565b6000602082019050818103600083015261452f816144f3565b9050919050565b7f4552433732313a20617070726f76652063616c6c6572206973206e6f74206f7760008201527f6e6572206e6f7220617070726f76656420666f7220616c6c0000000000000000602082015250565b6000614592603883613d20565b915061459d82614536565b604082019050919050565b600060208201905081810360008301526145c181614585565b9050919050565b7f43616c6c6572206973206e6f7420746865206f776e6572206f72206d616e616760008201527f6572000000000000000000000000000000000000000000000000000000000000602082015250565b6000614624602283613d20565b915061462f826145c8565b604082019050919050565b6000602082019050818103600083015261465381614617565b9050919050565b7f507572636861736520776f756c6420657863656564206d617820737570706c7960008201527f206f66204d656e61636573000000000000000000000000000000000000000000602082015250565b60006146b6602b83613d20565b91506146c18261465a565b604082019050919050565b600060208201905081810360008301526146e5816146a9565b9050919050565b7f4e487b7100000000000000000000000000000000000000000000000000000000600052601160045260246000fd5b600061472682613dd0565b915061473183613dd0565b9250827fffffffffffffffffffffffffffffffffffffffffffffffffffffffffffffffff03821115614766576147656146ec565b5b828201905092915050565b600061477c82613dd0565b91507fffffffffffffffffffffffffffffffffffffffffffffffffffffffffffffffff8214156147af576147ae6146ec565b5b600182019050919050565b7f4552433732313a207472616e736665722063616c6c6572206973206e6f74206f60008201527f776e6572206e6f7220617070726f766564000000000000000000000000000000602082015250565b6000614816603183613d20565b9150614821826147ba565b604082019050919050565b6000602082019050818103600083015261484581614809565b9050919050565b7f496e737566666963656e742066756e64732e0000000000000000000000000000600082015250565b6000614882601283613d20565b915061488d8261484c565b602082019050919050565b600060208201905081810360008301526148b181614875565b9050919050565b60006148c382613dd0565b91506148ce83613dd0565b9250817fffffffffffffffffffffffffffffffffffffffffffffffffffffffffffffffff0483118215151615614907576149066146ec565b5b828202905092915050565b7f4e487b7100000000000000000000000000000000000000000000000000000000600052601260045260246000fd5b600061494c82613dd0565b915061495783613dd0565b92508261496757614966614912565b5b828204905092915050565b7f4e487b7100000000000000000000000000000000000000000000000000000000600052603260045260246000fd5b7f455243373231456e756d657261626c653a206f776e657220696e646578206f7560008201527f74206f6620626f756e6473000000000000000000000000000000000000000000602082015250565b60006149fd602b83613d20565b9150614a08826149a1565b604082019050919050565b60006020820190508181036000830152614a2c816149f0565b9050919050565b7f4552433732314275726e61626c653a2063616c6c6572206973206e6f74206f7760008201527f6e6572206e6f7220617070726f76656400000000000000000000000000000000602082015250565b6000614a8f603083613d20565b9150614a9a82614a33565b604082019050919050565b60006020820190508181036000830152614abe81614a82565b9050919050565b7f536f7272792c20796f752772652061646472657373206973206e6f742077686960008201527f74656c697374656420666f722070726573616c65000000000000000000000000602082015250565b6000614b21603483613d20565b9150614b2c82614ac5565b604082019050919050565b60006020820190508181036000830152614b5081614b14565b9050919050565b7f507572636861736520776f756c64206578636565642070726573616c65206c6960008201527f6d69740000000000000000000000000000000000000000000000000000000000602082015250565b6000614bb3602383613d20565b9150614bbe82614b57565b604082019050919050565b60006020820190508181036000830152614be281614ba6565b9050919050565b7f45746865722076616c75652073656e74206973206e6f7420636f727265637400600082015250565b6000614c1f601f83613d20565b9150614c2a82614be9565b602082019050919050565b60006020820190508181036000830152614c4e81614c12565b9050919050565b7f455243373231456e756d657261626c653a20676c6f62616c20696e646578206f60008201527f7574206f6620626f756e64730000000000000000000000000000000000000000602082015250565b6000614cb1602c83613d20565b9150614cbc82614c55565b604082019050919050565b60006020820190508181036000830152614ce081614ca4565b9050919050565b7f4552433732313a206f776e657220717565727920666f72206e6f6e657869737460008201527f656e7420746f6b656e0000000000000000000000000000000000000000000000602082015250565b6000614d43602983613d20565b9150614d4e82614ce7565b604082019050919050565b60006020820190508181036000830152614d7281614d36565b9050919050565b7f4552433732313a2062616c616e636520717565727920666f7220746865207a6560008201527f726f206164647265737300000000000000000000000000000000000000000000602082015250565b6000614dd5602a83613d20565b9150614de082614d79565b604082019050919050565b60006020820190508181036000830152614e0481614dc8565b9050919050565b7f4f776e61626c653a2063616c6c6572206973206e6f7420746865206f776e6572600082015250565b6000614e41602083613d20565b9150614e4c82614e0b565b602082019050919050565b60006020820190508181036000830152614e7081614e34565b9050919050565b7f5374617274696e6720696e64657820697320616c726561647920736574000000600082015250565b6000614ead601d83613d20565b9150614eb882614e77565b602082019050919050565b60006020820190508181036000830152614edc81614ea0565b9050919050565b7f4552433732313a20617070726f766520746f2063616c6c657200000000000000600082015250565b6000614f19601983613d20565b9150614f2482614ee3565b602082019050919050565b60006020820190508181036000830152614f4881614f0c565b9050919050565b7f4552433732314d657461646174613a2055524920717565727920666f72206e6f60008201527f6e6578697374656e7420746f6b656e0000000000000000000000000000000000602082015250565b6000614fab602f83613d20565b9150614fb682614f4f565b604082019050919050565b60006020820190508181036000830152614fda81614f9e565b9050919050565b600081905092915050565b6000614ff782613d15565b6150018185614fe1565b9350615011818560208601613d31565b80840191505092915050565b60006150298285614fec565b91506150358284614fec565b91508190509392505050565b7f5374617274696e6720696e64657820626c6f636b206d75737420626520736574600082015250565b6000615077602083613d20565b915061508282615041565b602082019050919050565b600060208201905081810360008301526150a68161506a565b9050919050565b60006150b882613dd0565b91506150c383613dd0565b9250826150d3576150d2614912565b5b828206905092915050565b60006150e982613dd0565b91506150f483613dd0565b925082821015615107576151066146ec565b5b828203905092915050565b7f4f776e61626c653a206e6577206f776e657220697320746865207a65726f206160008201527f6464726573730000000000000000000000000000000000000000000000000000602082015250565b600061516e602683613d20565b915061517982615112565b604082019050919050565b6000602082019050818103600083015261519d81615161565b9050919050565b7f596f752063616e206f6e6c79206d696e742032204d656e61636573206174206160008201527f2074696d65000000000000000000000000000000000000000000000000000000602082015250565b6000615200602583613d20565b915061520b826151a4565b604082019050919050565b6000602082019050818103600083015261522f816151f3565b9050919050565b7f4552433732313a206f70657261746f7220717565727920666f72206e6f6e657860008201527f697374656e7420746f6b656e0000000000000000000000000000000000000000602082015250565b6000615292602c83613d20565b915061529d82615236565b604082019050919050565b600060208201905081810360008301526152c181615285565b9050919050565b7f4552433732313a207472616e73666572206f6620746f6b656e2074686174206960008201527f73206e6f74206f776e0000000000000000000000000000000000000000000000602082015250565b6000615324602983613d20565b915061532f826152c8565b604082019050919050565b6000602082019050818103600083015261535381615317565b9050919050565b7f4552433732313a207472616e7366657220746f20746865207a65726f2061646460008201527f7265737300000000000000000000000000000000000000000000000000000000602082015250565b60006153b6602483613d20565b91506153c18261535a565b604082019050919050565b600060208201905081810360008301526153e5816153a9565b9050919050565b7f4552433732313a207472616e7366657220746f206e6f6e20455243373231526560008201527f63656976657220696d706c656d656e7465720000000000000000000000000000602082015250565b6000615448603283613d20565b9150615453826153ec565b604082019050919050565b600060208201905081810360008301526154778161543b565b9050919050565b600081519050919050565b600082825260208201905092915050565b60006154a58261547e565b6154af8185615489565b93506154bf818560208601613d31565b6154c881613d64565b840191505092915050565b60006080820190506154e86000830187613e65565b6154f56020830186613e65565b61550260408301856140b9565b8181036060830152615514818461549a565b905095945050505050565b60008151905061552e81613c86565b92915050565b60006020828403121561554a57615549613c50565b5b60006155588482850161551f565b91505092915050565b7f4552433732313a206d696e7420746f20746865207a65726f2061646472657373600082015250565b6000615597602083613d20565b91506155a282615561565b602082019050919050565b600060208201905081810360008301526155c68161558a565b9050919050565b7f4552433732313a20746f6b656e20616c7265616479206d696e74656400000000600082015250565b6000615603601c83613d20565b915061560e826155cd565b602082019050919050565b60006020820190508181036000830152615632816155f6565b9050919050565b7f4e487b7100000000000000000000000000000000000000000000000000000000600052603160045260246000fdfea2646970667358221220f143e9bace2ad8d45fb2ec656070d519416e84a5e96171e79f20e6c60a8d034864736f6c63430008090033",
  "immutableReferences": {},
  "source": "//SPDX-License-Identifier: UNLICENSED\r\npragma solidity ^0.8.0;\r\n\r\nimport \"@openzeppelin/contracts/token/ERC721/ERC721.sol\";\r\nimport \"@openzeppelin/contracts/token/ERC721/extensions/ERC721Enumerable.sol\";\r\nimport \"@openzeppelin/contracts/token/ERC721/extensions/ERC721Burnable.sol\";\r\nimport \"@openzeppelin/contracts/access/Ownable.sol\";\r\nimport \"@openzeppelin/contracts/utils/Address.sol\";\r\nimport \"@openzeppelin/contracts/utils/Counters.sol\";\r\n\r\n////////////////////////////////////////////////////////////////////////////////\r\n////////////////////////////////////////////////////////////////////////////////\r\n////////////////////////////////////////////////////////////////////////////////\r\n////////////////////////////////////////////////////////////////////////////////\r\n////////////////////////////////////////////////////////////////////////////////\r\n////////////////////////////////////////////////////////////////////////////////\r\n////////////////////////////////////////////////////////////////////////////////\r\n//////////////////////////////^^^^^^^^-----^^^^^^^^/////////////////////////////\r\n//////////////////////////////(@@@@@@@@@@@@@@@@@@@//////////////////////////////\r\n////////////////////////////////////////////////////////////////////////////////\r\n////////////////////////@@@@@@@@@@@@@//////(@@@@@@@@@@@@@///////////////////////\r\n////////////////////////@@@@@@@@@@@@@@@///@@@@@@@@@@@@@@@///////////////////////\r\n////////////////////////@@@@@@@@@@@@@@@@/@@@@@@@@@@@@@@@@///////////////////////\r\n////////////////////////@@@@@@@@@/@@@@@@@@@@@@@/@@@@@@@@@///////////////////////\r\n////////////////////////@@@@@@@@@//@@@@@@@@@@@//@@@@@@@@@///////////////////////\r\n////////////////////////@@@@@@@@@///////////////@@@@@@@@@///////////////////////\r\n////////////////////////////////////////////////////////////////////////////////\r\n////////////////////////@@@@@@@@@///////////////@@@@@@@@@///////////////////////\r\n////////////////////////@@@@@@@@@//@@@@@@@@@@@//@@@@@@@@@///////////////////////\r\n////////////////////////@@@@@@@@@/@@@@@@@@@@@@@/@@@@@@@@@///////////////////////\r\n////////////////////////@@@@@@@@@@@@@@@@/@@@@@@@@@@@@@@@@///////////////////////\r\n////////////////////////@@@@@@@@@@@@@@@///@@@@@@@@@@@@@@@///////////////////////\r\n////////////////////////@@@@@@@@@@@@@%/////&@@@@@@@@@@@@@///////////////////////\r\n/////////////////////////////////@@@/////////@@@////////////////////////////////\r\n/////////////////////////////////@@///////////@@////////////////////////////////\r\n/////////////////////////////////@/////////////@////////////////////////////////\r\n////////////////////////////////////////////////////////////////////////////////\r\n////////////////////////////////////////////////////////////////////////////////\r\n////////////////////////////////////////////////////////////////////////////////\r\n////////////////////////////////////////////////////////////////////////////////\r\n////////////////////////////////////////////////////////////////////////////////\r\n////////////////////////////////////////////////////////////////////////////////\r\n\r\ncontract Menace_Test is ERC721, ERC721Enumerable, ERC721Burnable, Ownable {\r\n    using Counters for Counters.Counter;\r\n\r\n    // Counter for number of menaces \r\n    Counters.Counter private _menaceCounter;\r\n    // Max token supply\r\n    uint public MAX_MENACE = 10000;\r\n    // Mint Price\r\n    uint256 public constant menacePrice = 150000000000000000; //0.15 ETH\r\n    // Base URI\r\n    string public baseURI;\r\n    // Sale is active\r\n    bool public saleIsActive = false;\r\n    // Presale is active\r\n    bool public preSaleIsActive = false;\r\n    // Max purchchase per txn\r\n    uint public constant maxMenaceTxn = 2;\r\n    // shareholders, shares, and manager\r\n    address[3] private _shareholders;\r\n\r\n    uint[3] private _shares;\r\n\r\n    address private _manager;\r\n    // starting index and block and provenance\r\n    uint256 public startingIndex;\r\n\r\n    uint256 public startingIndexBlock;\r\n\r\n    string public provenance;\r\n\r\n    // Presale\r\n    mapping(address => bool) addressToPreSale;\r\n    mapping(address => uint256) addressToPresaleMintCount;\r\n\r\n    // constructor\r\n    constructor() ERC721(\"MenaceWorld\", \"MENACE\"){\r\n        // shareholders test network\r\n        _shareholders[0] = 0x24209282E198E7A807806F55a3322b98d3C65B29;\r\n        _shareholders[1] = 0xDfaAC748709D31d95D638dDBc2BCb8462dfd2076;\r\n        _shareholders[2] = 0xc593eE28Fc40c256d08D040A12FA1AF4D8ef26Bb;\r\n    }\r\n\r\n    /** Set Manager */\r\n    function setManager(address manager) public onlyOwner {\r\n        _manager = manager;\r\n    }\r\n    \r\n    /**\r\n     * Throws if called by any account other than the owner or manager.\r\n     */\r\n    modifier onlyOwnerOrManager() {\r\n        require(owner() == _msgSender() || _manager == _msgSender(), \"Caller is not the owner or manager\");\r\n        _;\r\n    }\r\n\r\n    /**\r\n     * Set base URI\r\n     */\r\n    function setBaseURI(string memory newBaseURI) public onlyOwnerOrManager {\r\n        baseURI = newBaseURI;\r\n    }\r\n    \r\n    function _baseURI() internal view virtual override returns (string memory){\r\n        return baseURI;\r\n    }\r\n\r\n    function totalToken() public view returns (uint256) {\r\n        return _menaceCounter.current();\r\n    }\r\n    \r\n    function contractBalance() public view onlyOwnerOrManager returns (uint256) {\r\n        return address(this).balance;\r\n    }\r\n\r\n    function addWalletToPreSale(address _address) public onlyOwnerOrManager {\r\n        addressToPreSale[_address] = true;\r\n    }\r\n\r\n    function isWalletInPreSale(address _address) public view returns (bool) {\r\n        return addressToPreSale[_address];\r\n    }\r\n\r\n    function preSaleMenaceMinted(address _address) public view returns (uint256){\r\n        return addressToPresaleMintCount[_address];\r\n    }\r\n\r\n    /*\r\n    * Set Sale\r\n    */\r\n    function flipSale() public onlyOwnerOrManager {\r\n        saleIsActive = !saleIsActive;\r\n    }\r\n\r\n    function stateSail() public view returns (bool){\r\n        return saleIsActive;\r\n    }\r\n\r\n    function flipPreSale() public onlyOwnerOrManager {\r\n        preSaleIsActive = !preSaleIsActive;\r\n    }\r\n\r\n    function statePreSail() public view returns (bool){\r\n        return preSaleIsActive;\r\n    }\r\n\r\n    /**\r\n    *  Grand Prize\r\n     */\r\n    function withdrawForGiveaway(uint256 amount, address payable to) public onlyOwnerOrManager {\r\n        uint256 payment = amount * 10 ** 18;\r\n        to.transfer(payment);\r\n    }\r\n\r\n    /**\r\n     * Withdraw \r\n     */\r\n    function withdraw(uint256 amount) public payable {\r\n        require(address(this).balance >= amount, \"Insufficent funds.\");\r\n        \r\n        uint256 len = _shareholders.length;\r\n        uint256 payment = amount * 10 ** 18;\r\n        payment = payment / len;\r\n        for (uint256 i=0; i<len; i++){\r\n            // send payment to owner wallet\r\n            payable(_shareholders[i]).transfer(payment);\r\n        }\r\n    }\r\n\r\n    /*\r\n    * Mint reserved NFTs for giveaways, devs, etc.\r\n    */\r\n    function reserveMintMenace(uint256 reserveAmount, address mintAddress) public onlyOwnerOrManager {\r\n        require(totalSupply() <= MAX_MENACE, \"Purchase would exceed max supply of Menaces\");\r\n        uint256 supply = _menaceCounter.current();\r\n        for (uint256 i=0; i<reserveAmount; i++){\r\n            _safeMint(mintAddress, supply + 1);\r\n            _menaceCounter.increment();\r\n            supply = _menaceCounter.current();\r\n        }\r\n    }\r\n\r\n    /**\r\n    * Mint for presale\r\n    */\r\n    function preMintMenace(uint256 numberOfTokens) public payable {\r\n        require(addressToPreSale[msg.sender] == true, \"Sorry, you're address is not whitelisted for presale\");\r\n        require(addressToPresaleMintCount[msg.sender] + numberOfTokens <= MAX_MENACE, \"Purchase would exceed presale limit\");\r\n        require(menacePrice * numberOfTokens <= msg.value, \"Ether value sent is not correct\");\r\n\r\n        for (uint256 i=0; i<numberOfTokens; i++){\r\n            uint256 mintIndex = _menaceCounter.current()+1;\r\n            if (mintIndex <= MAX_MENACE){\r\n                _safeMint(msg.sender, mintIndex);\r\n                _menaceCounter.increment();\r\n                addressToPresaleMintCount[msg.sender] += 1;\r\n            }\r\n        }     \r\n    }\r\n\r\n\r\n    /**\r\n     * Mint Menace\r\n    */\r\n    function mintMenace(uint256 numberOfTokens) public payable {\r\n        require(numberOfTokens <= maxMenaceTxn, \"You can only mint 2 Menaces at a time\");\r\n        require(totalSupply() + numberOfTokens <= MAX_MENACE, \"Purchase would exceed max supply of Menaces\");\r\n        require(menacePrice * numberOfTokens <= msg.value, \"Ether value sent is not correct\");\r\n\r\n        for (uint256 i=0; i<numberOfTokens; i++){\r\n            uint256 mintIndex = _menaceCounter.current()+1;\r\n            if (mintIndex <= MAX_MENACE){\r\n                _safeMint(msg.sender, mintIndex);\r\n                _menaceCounter.increment();\r\n            }\r\n        }\r\n    }\r\n\r\n    /**\r\n     * Set the starting index for the collection.\r\n     */\r\n    function setStartingIndex() public onlyOwnerOrManager {\r\n        require(startingIndex == 0, \"Starting index is already set\");\r\n        require(startingIndexBlock != 0, \"Starting index block must be set\");\r\n        \r\n        startingIndex = uint(blockhash(startingIndexBlock)) % MAX_MENACE;\r\n        // Just a sanity case in the worst case if this function is called late (EVM only stores last 256 block hashes).\r\n        if (block.number - startingIndexBlock > 255) {\r\n            startingIndex = uint(blockhash(block.number - 1)) % MAX_MENACE;\r\n        }\r\n        // Prevent default sequence.\r\n        if (startingIndex == 0) {\r\n            startingIndex = 1;\r\n        }\r\n    }\r\n\r\n    /**\r\n     * Set the starting index block for the collection. Usually, this will be set after the first sale mint.\r\n     */\r\n    function emergencySetStartingIndexBlock() public onlyOwnerOrManager {\r\n        require(startingIndex == 0, \"Starting index is already set\");\r\n        \r\n        startingIndexBlock = block.number;\r\n    }\r\n\r\n    /*     \r\n    * Set provenance once it's calculated.\r\n    */\r\n    function setProvenanceHash(string memory provenanceHash) public onlyOwnerOrManager {\r\n        provenance = provenanceHash;\r\n    }\r\n\r\n    /**\r\n     * Required for ERC721Enumerable and ERC721\r\n     */\r\n    function _beforeTokenTransfer(address from, address to, uint256 tokenId) internal override(ERC721, ERC721Enumerable) {\r\n        super._beforeTokenTransfer(from, to, tokenId);\r\n    }\r\n\r\n    function supportsInterface(bytes4 interfaceId) public view override(ERC721, ERC721Enumerable) returns (bool) {\r\n        return super.supportsInterface(interfaceId);\r\n    }\r\n\r\n}",
  "sourcePath": "C:\\Users\\nickn\\Menace\\NFT\\development\\contracts\\Menace_Test.sol",
  "compiler": {
    "name": "solc",
    "version": "0.8.9+commit.e5eed63a.Emscripten.clang"
  },
  "schemaVersion": "3.4.3",
  "updatedAt": "2021-10-23T01:25:27.405Z",
  "networkType": "ethereum",
  "devdoc": {
    "kind": "dev",
    "methods": {
      "approve(address,uint256)": {
        "details": "See {IERC721-approve}."
      },
      "balanceOf(address)": {
        "details": "See {IERC721-balanceOf}."
      },
      "burn(uint256)": {
        "details": "Burns `tokenId`. See {ERC721-_burn}. Requirements: - The caller must own `tokenId` or be an approved operator."
      },
      "getApproved(uint256)": {
        "details": "See {IERC721-getApproved}."
      },
      "isApprovedForAll(address,address)": {
        "details": "See {IERC721-isApprovedForAll}."
      },
      "name()": {
        "details": "See {IERC721Metadata-name}."
      },
      "owner()": {
        "details": "Returns the address of the current owner."
      },
      "ownerOf(uint256)": {
        "details": "See {IERC721-ownerOf}."
      },
      "renounceOwnership()": {
        "details": "Leaves the contract without owner. It will not be possible to call `onlyOwner` functions anymore. Can only be called by the current owner. NOTE: Renouncing ownership will leave the contract without an owner, thereby removing any functionality that is only available to the owner."
      },
      "safeTransferFrom(address,address,uint256)": {
        "details": "See {IERC721-safeTransferFrom}."
      },
      "safeTransferFrom(address,address,uint256,bytes)": {
        "details": "See {IERC721-safeTransferFrom}."
      },
      "setApprovalForAll(address,bool)": {
        "details": "See {IERC721-setApprovalForAll}."
      },
      "symbol()": {
        "details": "See {IERC721Metadata-symbol}."
      },
      "tokenByIndex(uint256)": {
        "details": "See {IERC721Enumerable-tokenByIndex}."
      },
      "tokenOfOwnerByIndex(address,uint256)": {
        "details": "See {IERC721Enumerable-tokenOfOwnerByIndex}."
      },
      "tokenURI(uint256)": {
        "details": "See {IERC721Metadata-tokenURI}."
      },
      "totalSupply()": {
        "details": "See {IERC721Enumerable-totalSupply}."
      },
      "transferFrom(address,address,uint256)": {
        "details": "See {IERC721-transferFrom}."
      },
      "transferOwnership(address)": {
        "details": "Transfers ownership of the contract to a new account (`newOwner`). Can only be called by the current owner."
      }
    },
    "version": 1
  },
  "userdoc": {
    "kind": "user",
    "methods": {
      "emergencySetStartingIndexBlock()": {
        "notice": "Set the starting index block for the collection. Usually, this will be set after the first sale mint."
      },
      "mintMenace(uint256)": {
        "notice": "Mint Menace"
      },
      "preMintMenace(uint256)": {
        "notice": "Mint for presale"
      },
      "setBaseURI(string)": {
        "notice": "Set base URI"
      },
      "setManager(address)": {
        "notice": "Set Manager "
      },
      "setStartingIndex()": {
        "notice": "Set the starting index for the collection."
      },
      "withdraw(uint256)": {
        "notice": "Withdraw "
      },
      "withdrawForGiveaway(uint256,address)": {
        "notice": "Grand Prize"
      }
    },
    "version": 1
  }
}