{
  "contractName": "Menace",
  "abi": [
    {
      "inputs": [],
      "stateMutability": "nonpayable",
      "type": "constructor"
    },
    {
      "anonymous": false,
      "inputs": [
        {
          "indexed": true,
          "internalType": "address",
          "name": "owner",
          "type": "address"
        },
        {
          "indexed": true,
          "internalType": "address",
          "name": "approved",
          "type": "address"
        },
        {
          "indexed": true,
          "internalType": "uint256",
          "name": "tokenId",
          "type": "uint256"
        }
      ],
      "name": "Approval",
      "type": "event"
    },
    {
      "anonymous": false,
      "inputs": [
        {
          "indexed": true,
          "internalType": "address",
          "name": "owner",
          "type": "address"
        },
        {
          "indexed": true,
          "internalType": "address",
          "name": "operator",
          "type": "address"
        },
        {
          "indexed": false,
          "internalType": "bool",
          "name": "approved",
          "type": "bool"
        }
      ],
      "name": "ApprovalForAll",
      "type": "event"
    },
    {
      "anonymous": false,
      "inputs": [
        {
          "indexed": false,
          "internalType": "address",
          "name": "to",
          "type": "address"
        },
        {
          "indexed": false,
          "internalType": "uint256",
          "name": "amount",
          "type": "uint256"
        }
      ],
      "name": "FirstToMenaceWorld",
      "type": "event"
    },
    {
      "anonymous": false,
      "inputs": [
        {
          "indexed": true,
          "internalType": "address",
          "name": "previousOwner",
          "type": "address"
        },
        {
          "indexed": true,
          "internalType": "address",
          "name": "newOwner",
          "type": "address"
        }
      ],
      "name": "OwnershipTransferred",
      "type": "event"
    },
    {
      "anonymous": false,
      "inputs": [
        {
          "indexed": false,
          "internalType": "address",
          "name": "to",
          "type": "address"
        },
        {
          "indexed": false,
          "internalType": "uint256",
          "name": "amount",
          "type": "uint256"
        }
      ],
      "name": "PaymentReleased",
      "type": "event"
    },
    {
      "anonymous": false,
      "inputs": [
        {
          "indexed": false,
          "internalType": "address",
          "name": "to",
          "type": "address"
        }
      ],
      "name": "ReserveMenace",
      "type": "event"
    },
    {
      "anonymous": false,
      "inputs": [
        {
          "indexed": true,
          "internalType": "address",
          "name": "from",
          "type": "address"
        },
        {
          "indexed": true,
          "internalType": "address",
          "name": "to",
          "type": "address"
        },
        {
          "indexed": true,
          "internalType": "uint256",
          "name": "tokenId",
          "type": "uint256"
        }
      ],
      "name": "Transfer",
      "type": "event"
    },
    {
      "anonymous": false,
      "inputs": [
        {
          "indexed": false,
          "internalType": "address",
          "name": "to",
          "type": "address"
        },
        {
          "indexed": false,
          "internalType": "uint256",
          "name": "amount",
          "type": "uint256"
        }
      ],
      "name": "WelcomeToMenaceWorld",
      "type": "event"
    },
    {
      "inputs": [],
      "name": "MAX_MENACE",
      "outputs": [
        {
          "internalType": "uint256",
          "name": "",
          "type": "uint256"
        }
      ],
      "stateMutability": "view",
      "type": "function",
      "constant": true
    },
    {
      "inputs": [
        {
          "internalType": "address",
          "name": "to",
          "type": "address"
        },
        {
          "internalType": "uint256",
          "name": "tokenId",
          "type": "uint256"
        }
      ],
      "name": "approve",
      "outputs": [],
      "stateMutability": "nonpayable",
      "type": "function"
    },
    {
      "inputs": [
        {
          "internalType": "address",
          "name": "owner",
          "type": "address"
        }
      ],
      "name": "balanceOf",
      "outputs": [
        {
          "internalType": "uint256",
          "name": "",
          "type": "uint256"
        }
      ],
      "stateMutability": "view",
      "type": "function",
      "constant": true
    },
    {
      "inputs": [],
      "name": "baseURI",
      "outputs": [
        {
          "internalType": "string",
          "name": "",
          "type": "string"
        }
      ],
      "stateMutability": "view",
      "type": "function",
      "constant": true
    },
    {
      "inputs": [
        {
          "internalType": "uint256",
          "name": "tokenId",
          "type": "uint256"
        }
      ],
      "name": "burn",
      "outputs": [],
      "stateMutability": "nonpayable",
      "type": "function"
    },
    {
      "inputs": [
        {
          "internalType": "uint256",
          "name": "tokenId",
          "type": "uint256"
        }
      ],
      "name": "getApproved",
      "outputs": [
        {
          "internalType": "address",
          "name": "",
          "type": "address"
        }
      ],
      "stateMutability": "view",
      "type": "function",
      "constant": true
    },
    {
      "inputs": [
        {
          "internalType": "address",
          "name": "owner",
          "type": "address"
        },
        {
          "internalType": "address",
          "name": "operator",
          "type": "address"
        }
      ],
      "name": "isApprovedForAll",
      "outputs": [
        {
          "internalType": "bool",
          "name": "",
          "type": "bool"
        }
      ],
      "stateMutability": "view",
      "type": "function",
      "constant": true
    },
    {
      "inputs": [],
      "name": "maxMenaceTxn",
      "outputs": [
        {
          "internalType": "uint256",
          "name": "",
          "type": "uint256"
        }
      ],
      "stateMutability": "view",
      "type": "function",
      "constant": true
    },
    {
      "inputs": [],
      "name": "menacePrice",
      "outputs": [
        {
          "internalType": "uint256",
          "name": "",
          "type": "uint256"
        }
      ],
      "stateMutability": "view",
      "type": "function",
      "constant": true
    },
    {
      "inputs": [],
      "name": "name",
      "outputs": [
        {
          "internalType": "string",
          "name": "",
          "type": "string"
        }
      ],
      "stateMutability": "view",
      "type": "function",
      "constant": true
    },
    {
      "inputs": [],
      "name": "owner",
      "outputs": [
        {
          "internalType": "address",
          "name": "",
          "type": "address"
        }
      ],
      "stateMutability": "view",
      "type": "function",
      "constant": true
    },
    {
      "inputs": [
        {
          "internalType": "uint256",
          "name": "tokenId",
          "type": "uint256"
        }
      ],
      "name": "ownerOf",
      "outputs": [
        {
          "internalType": "address",
          "name": "",
          "type": "address"
        }
      ],
      "stateMutability": "view",
      "type": "function",
      "constant": true
    },
    {
      "inputs": [],
      "name": "preSaleIsActive",
      "outputs": [
        {
          "internalType": "bool",
          "name": "",
          "type": "bool"
        }
      ],
      "stateMutability": "view",
      "type": "function",
      "constant": true
    },
    {
      "inputs": [],
      "name": "provenance",
      "outputs": [
        {
          "internalType": "string",
          "name": "",
          "type": "string"
        }
      ],
      "stateMutability": "view",
      "type": "function",
      "constant": true
    },
    {
      "inputs": [],
      "name": "renounceOwnership",
      "outputs": [],
      "stateMutability": "nonpayable",
      "type": "function"
    },
    {
      "inputs": [
        {
          "internalType": "address",
          "name": "from",
          "type": "address"
        },
        {
          "internalType": "address",
          "name": "to",
          "type": "address"
        },
        {
          "internalType": "uint256",
          "name": "tokenId",
          "type": "uint256"
        }
      ],
      "name": "safeTransferFrom",
      "outputs": [],
      "stateMutability": "nonpayable",
      "type": "function"
    },
    {
      "inputs": [
        {
          "internalType": "address",
          "name": "from",
          "type": "address"
        },
        {
          "internalType": "address",
          "name": "to",
          "type": "address"
        },
        {
          "internalType": "uint256",
          "name": "tokenId",
          "type": "uint256"
        },
        {
          "internalType": "bytes",
          "name": "_data",
          "type": "bytes"
        }
      ],
      "name": "safeTransferFrom",
      "outputs": [],
      "stateMutability": "nonpayable",
      "type": "function"
    },
    {
      "inputs": [],
      "name": "saleIsActive",
      "outputs": [
        {
          "internalType": "bool",
          "name": "",
          "type": "bool"
        }
      ],
      "stateMutability": "view",
      "type": "function",
      "constant": true
    },
    {
      "inputs": [
        {
          "internalType": "address",
          "name": "operator",
          "type": "address"
        },
        {
          "internalType": "bool",
          "name": "approved",
          "type": "bool"
        }
      ],
      "name": "setApprovalForAll",
      "outputs": [],
      "stateMutability": "nonpayable",
      "type": "function"
    },
    {
      "inputs": [],
      "name": "startingIndex",
      "outputs": [
        {
          "internalType": "uint256",
          "name": "",
          "type": "uint256"
        }
      ],
      "stateMutability": "view",
      "type": "function",
      "constant": true
    },
    {
      "inputs": [],
      "name": "startingIndexBlock",
      "outputs": [
        {
          "internalType": "uint256",
          "name": "",
          "type": "uint256"
        }
      ],
      "stateMutability": "view",
      "type": "function",
      "constant": true
    },
    {
      "inputs": [],
      "name": "symbol",
      "outputs": [
        {
          "internalType": "string",
          "name": "",
          "type": "string"
        }
      ],
      "stateMutability": "view",
      "type": "function",
      "constant": true
    },
    {
      "inputs": [
        {
          "internalType": "uint256",
          "name": "index",
          "type": "uint256"
        }
      ],
      "name": "tokenByIndex",
      "outputs": [
        {
          "internalType": "uint256",
          "name": "",
          "type": "uint256"
        }
      ],
      "stateMutability": "view",
      "type": "function",
      "constant": true
    },
    {
      "inputs": [
        {
          "internalType": "address",
          "name": "owner",
          "type": "address"
        },
        {
          "internalType": "uint256",
          "name": "index",
          "type": "uint256"
        }
      ],
      "name": "tokenOfOwnerByIndex",
      "outputs": [
        {
          "internalType": "uint256",
          "name": "",
          "type": "uint256"
        }
      ],
      "stateMutability": "view",
      "type": "function",
      "constant": true
    },
    {
      "inputs": [
        {
          "internalType": "uint256",
          "name": "tokenId",
          "type": "uint256"
        }
      ],
      "name": "tokenURI",
      "outputs": [
        {
          "internalType": "string",
          "name": "",
          "type": "string"
        }
      ],
      "stateMutability": "view",
      "type": "function",
      "constant": true
    },
    {
      "inputs": [],
      "name": "totalSupply",
      "outputs": [
        {
          "internalType": "uint256",
          "name": "",
          "type": "uint256"
        }
      ],
      "stateMutability": "view",
      "type": "function",
      "constant": true
    },
    {
      "inputs": [
        {
          "internalType": "address",
          "name": "from",
          "type": "address"
        },
        {
          "internalType": "address",
          "name": "to",
          "type": "address"
        },
        {
          "internalType": "uint256",
          "name": "tokenId",
          "type": "uint256"
        }
      ],
      "name": "transferFrom",
      "outputs": [],
      "stateMutability": "nonpayable",
      "type": "function"
    },
    {
      "inputs": [
        {
          "internalType": "address",
          "name": "newOwner",
          "type": "address"
        }
      ],
      "name": "transferOwnership",
      "outputs": [],
      "stateMutability": "nonpayable",
      "type": "function"
    },
    {
      "inputs": [
        {
          "internalType": "address",
          "name": "manager",
          "type": "address"
        }
      ],
      "name": "setManager",
      "outputs": [],
      "stateMutability": "nonpayable",
      "type": "function"
    },
    {
      "inputs": [
        {
          "internalType": "string",
          "name": "newBaseURI",
          "type": "string"
        }
      ],
      "name": "setBaseURI",
      "outputs": [],
      "stateMutability": "nonpayable",
      "type": "function"
    },
    {
      "inputs": [],
      "name": "totalToken",
      "outputs": [
        {
          "internalType": "uint256",
          "name": "",
          "type": "uint256"
        }
      ],
      "stateMutability": "view",
      "type": "function",
      "constant": true
    },
    {
      "inputs": [],
      "name": "contractBalance",
      "outputs": [
        {
          "internalType": "uint256",
          "name": "",
          "type": "uint256"
        }
      ],
      "stateMutability": "view",
      "type": "function",
      "constant": true
    },
    {
      "inputs": [
        {
          "internalType": "address",
          "name": "_address",
          "type": "address"
        }
      ],
      "name": "addWalletToPreSale",
      "outputs": [],
      "stateMutability": "nonpayable",
      "type": "function"
    },
    {
      "inputs": [
        {
          "internalType": "address",
          "name": "_address",
          "type": "address"
        }
      ],
      "name": "isWalletInPreSale",
      "outputs": [
        {
          "internalType": "bool",
          "name": "",
          "type": "bool"
        }
      ],
      "stateMutability": "view",
      "type": "function",
      "constant": true
    },
    {
      "inputs": [
        {
          "internalType": "address",
          "name": "_address",
          "type": "address"
        }
      ],
      "name": "preSaleMenaceMinted",
      "outputs": [
        {
          "internalType": "uint256",
          "name": "",
          "type": "uint256"
        }
      ],
      "stateMutability": "view",
      "type": "function",
      "constant": true
    },
    {
      "inputs": [],
      "name": "flipSale",
      "outputs": [],
      "stateMutability": "nonpayable",
      "type": "function"
    },
    {
      "inputs": [],
      "name": "stateSail",
      "outputs": [
        {
          "internalType": "bool",
          "name": "",
          "type": "bool"
        }
      ],
      "stateMutability": "view",
      "type": "function",
      "constant": true
    },
    {
      "inputs": [],
      "name": "flipPreSale",
      "outputs": [],
      "stateMutability": "nonpayable",
      "type": "function"
    },
    {
      "inputs": [],
      "name": "statePreSail",
      "outputs": [
        {
          "internalType": "bool",
          "name": "",
          "type": "bool"
        }
      ],
      "stateMutability": "view",
      "type": "function",
      "constant": true
    },
    {
      "inputs": [
        {
          "internalType": "uint256",
          "name": "amount",
          "type": "uint256"
        },
        {
          "internalType": "address payable",
          "name": "to",
          "type": "address"
        }
      ],
      "name": "withdrawForGiveaway",
      "outputs": [],
      "stateMutability": "nonpayable",
      "type": "function"
    },
    {
      "inputs": [
        {
          "internalType": "uint256",
          "name": "amount",
          "type": "uint256"
        }
      ],
      "name": "withdraw",
      "outputs": [],
      "stateMutability": "payable",
      "type": "function",
      "payable": true
    },
    {
      "inputs": [
        {
          "internalType": "uint256",
          "name": "reserveAmount",
          "type": "uint256"
        },
        {
          "internalType": "address",
          "name": "mintAddress",
          "type": "address"
        }
      ],
      "name": "reserveMintMenace",
      "outputs": [],
      "stateMutability": "nonpayable",
      "type": "function"
    },
    {
      "inputs": [
        {
          "internalType": "uint256",
          "name": "numberOfTokens",
          "type": "uint256"
        }
      ],
      "name": "preMintMenace",
      "outputs": [],
      "stateMutability": "payable",
      "type": "function",
      "payable": true
    },
    {
      "inputs": [
        {
          "internalType": "uint256",
          "name": "numberOfTokens",
          "type": "uint256"
        }
      ],
      "name": "mintMenace",
      "outputs": [],
      "stateMutability": "payable",
      "type": "function",
      "payable": true
    },
    {
      "inputs": [],
      "name": "setStartingIndex",
      "outputs": [],
      "stateMutability": "nonpayable",
      "type": "function"
    },
    {
      "inputs": [],
      "name": "emergencySetStartingIndexBlock",
      "outputs": [],
      "stateMutability": "nonpayable",
      "type": "function"
    },
    {
      "inputs": [
        {
          "internalType": "string",
          "name": "provenanceHash",
          "type": "string"
        }
      ],
      "name": "setProvenanceHash",
      "outputs": [],
      "stateMutability": "nonpayable",
      "type": "function"
    },
    {
      "inputs": [
        {
          "internalType": "bytes4",
          "name": "interfaceId",
          "type": "bytes4"
        }
      ],
      "name": "supportsInterface",
      "outputs": [
        {
          "internalType": "bool",
          "name": "",
          "type": "bool"
        }
      ],
      "stateMutability": "view",
      "type": "function",
      "constant": true
    }
  ],
  "bytecode": "0x6080604052612710600c556000600e60006101000a81548160ff0219169083151502179055506000600e60016101000a81548160ff0219169083151502179055503480156200004d57600080fd5b506040518060400160405280600b81526020017f4d656e616365576f726c640000000000000000000000000000000000000000008152506040518060400160405280600681526020017f4d454e41434500000000000000000000000000000000000000000000000000008152508160009080519060200190620000d292919062000326565b508060019080519060200190620000eb92919062000326565b5050506200010e620001026200025860201b60201c565b6200026060201b60201c565b7324209282e198e7a807806f55a3322b98d3c65b29600f6000600381106200013b576200013a620003d6565b5b0160006101000a81548173ffffffffffffffffffffffffffffffffffffffff021916908373ffffffffffffffffffffffffffffffffffffffff16021790555073dfaac748709d31d95d638ddbc2bcb8462dfd2076600f600160038110620001a757620001a6620003d6565b5b0160006101000a81548173ffffffffffffffffffffffffffffffffffffffff021916908373ffffffffffffffffffffffffffffffffffffffff16021790555073c593ee28fc40c256d08d040a12fa1af4d8ef26bb600f600260038110620002135762000212620003d6565b5b0160006101000a81548173ffffffffffffffffffffffffffffffffffffffff021916908373ffffffffffffffffffffffffffffffffffffffff1602179055506200046a565b600033905090565b6000600a60009054906101000a900473ffffffffffffffffffffffffffffffffffffffff16905081600a60006101000a81548173ffffffffffffffffffffffffffffffffffffffff021916908373ffffffffffffffffffffffffffffffffffffffff1602179055508173ffffffffffffffffffffffffffffffffffffffff168173ffffffffffffffffffffffffffffffffffffffff167f8be0079c531659141344cd1fd0a4f28419497f9722a3daafe3b4186f6b6457e060405160405180910390a35050565b828054620003349062000434565b90600052602060002090601f016020900481019282620003585760008555620003a4565b82601f106200037357805160ff1916838001178555620003a4565b82800160010185558215620003a4579182015b82811115620003a357825182559160200191906001019062000386565b5b509050620003b39190620003b7565b5090565b5b80821115620003d2576000816000905550600101620003b8565b5090565b7f4e487b7100000000000000000000000000000000000000000000000000000000600052603260045260246000fd5b7f4e487b7100000000000000000000000000000000000000000000000000000000600052602260045260246000fd5b600060028204905060018216806200044d57607f821691505b6020821081141562000464576200046362000405565b5b50919050565b615a61806200047a6000396000f3fe6080604052600436106102935760003560e01c806370a082311161015a578063b88d4fde116100c1578063e985e9c51161007a578063e985e9c5146109b0578063e9866550146109ed578063eb8d244414610a04578063f2fde38b14610a2f578063fd0b057a14610a58578063ffd9dd1e14610a9557610293565b8063b88d4fde146108a0578063c87b56dd146108c9578063cb774d4714610906578063d0ebdbe714610931578063e36d64981461095a578063e389de171461098557610293565b80638b62f533116101135780638b62f533146107a25780638b7afe2e146107b95780638da5cb5b146107e457806395d89b411461080f578063a22cb4651461083a578063ae8e5ec91461086357610293565b806370a08231146106ca578063715018a6146107075780637ba5e6211461071e5780637d17fcbe1461073557806384f5ef9d1461074c578063874ae97c1461077757610293565b80632e1a7d4d116101fe5780634d7313a4116101b75780634d7313a4146105a85780634f6ccce7146105d157806355f804b31461060e578063626be567146106375780636352211e146106625780636c0360eb1461069f57610293565b80632e1a7d4d146104b65780632f745c59146104d257806342842e0e1461050f57806342966c68146105385780634498009d1461056157806347a7bf5a1461058c57610293565b806313af11eb1161025057806313af11eb146103ba57806318160ddd146103e357806319fad9fa1461040e5780631f0234d814610439578063233f50661461046457806323b872dd1461048d57610293565b806301ffc9a71461029857806306fdde03146102d5578063081812fc14610300578063095ea7b31461033d5780630f7309e8146103665780631096952314610391575b600080fd5b3480156102a457600080fd5b506102bf60048036038101906102ba9190613ea0565b610ab1565b6040516102cc9190613ee8565b60405180910390f35b3480156102e157600080fd5b506102ea610ac3565b6040516102f79190613f9c565b60405180910390f35b34801561030c57600080fd5b5061032760048036038101906103229190613ff4565b610b55565b6040516103349190614062565b60405180910390f35b34801561034957600080fd5b50610364600480360381019061035f91906140a9565b610bda565b005b34801561037257600080fd5b5061037b610cf2565b6040516103889190613f9c565b60405180910390f35b34801561039d57600080fd5b506103b860048036038101906103b3919061421e565b610d80565b005b3480156103c657600080fd5b506103e160048036038101906103dc9190614267565b610e75565b005b3480156103ef57600080fd5b506103f8611031565b60405161040591906142b6565b60405180910390f35b34801561041a57600080fd5b5061042361103e565b60405161043091906142b6565b60405180910390f35b34801561044557600080fd5b5061044e611044565b60405161045b9190613ee8565b60405180910390f35b34801561047057600080fd5b5061048b600480360381019061048691906142d1565b611057565b005b34801561049957600080fd5b506104b460048036038101906104af91906142fe565b61118d565b005b6104d060048036038101906104cb9190613ff4565b6111ed565b005b3480156104de57600080fd5b506104f960048036038101906104f491906140a9565b61136a565b60405161050691906142b6565b60405180910390f35b34801561051b57600080fd5b50610536600480360381019061053191906142fe565b61140f565b005b34801561054457600080fd5b5061055f600480360381019061055a9190613ff4565b61142f565b005b34801561056d57600080fd5b5061057661148b565b60405161058391906142b6565b60405180910390f35b6105a660048036038101906105a19190613ff4565b611497565b005b3480156105b457600080fd5b506105cf60048036038101906105ca919061438f565b611749565b005b3480156105dd57600080fd5b506105f860048036038101906105f39190613ff4565b6118c1565b60405161060591906142b6565b60405180910390f35b34801561061a57600080fd5b506106356004803603810190610630919061421e565b611932565b005b34801561064357600080fd5b5061064c611a27565b60405161065991906142b6565b60405180910390f35b34801561066e57600080fd5b5061068960048036038101906106849190613ff4565b611a38565b6040516106969190614062565b60405180910390f35b3480156106ab57600080fd5b506106b4611aea565b6040516106c19190613f9c565b60405180910390f35b3480156106d657600080fd5b506106f160048036038101906106ec91906142d1565b611b78565b6040516106fe91906142b6565b60405180910390f35b34801561071357600080fd5b5061071c611c30565b005b34801561072a57600080fd5b50610733611cb8565b005b34801561074157600080fd5b5061074a611dbf565b005b34801561075857600080fd5b50610761611ee8565b60405161076e91906142b6565b60405180910390f35b34801561078357600080fd5b5061078c611eed565b6040516107999190613ee8565b60405180910390f35b3480156107ae57600080fd5b506107b7611f04565b005b3480156107c557600080fd5b506107ce61200b565b6040516107db91906142b6565b60405180910390f35b3480156107f057600080fd5b506107f96120ee565b6040516108069190614062565b60405180910390f35b34801561081b57600080fd5b50610824612118565b6040516108319190613f9c565b60405180910390f35b34801561084657600080fd5b50610861600480360381019061085c91906143fb565b6121aa565b005b34801561086f57600080fd5b5061088a600480360381019061088591906142d1565b61232b565b6040516108979190613ee8565b60405180910390f35b3480156108ac57600080fd5b506108c760048036038101906108c291906144dc565b612381565b005b3480156108d557600080fd5b506108f060048036038101906108eb9190613ff4565b6123e3565b6040516108fd9190613f9c565b60405180910390f35b34801561091257600080fd5b5061091b61248a565b60405161092891906142b6565b60405180910390f35b34801561093d57600080fd5b50610958600480360381019061095391906142d1565b612490565b005b34801561096657600080fd5b5061096f612550565b60405161097c91906142b6565b60405180910390f35b34801561099157600080fd5b5061099a612556565b6040516109a79190613ee8565b60405180910390f35b3480156109bc57600080fd5b506109d760048036038101906109d2919061455f565b61256d565b6040516109e49190613ee8565b60405180910390f35b3480156109f957600080fd5b50610a02612601565b005b348015610a1057600080fd5b50610a196127d2565b604051610a269190613ee8565b60405180910390f35b348015610a3b57600080fd5b50610a566004803603810190610a5191906142d1565b6127e5565b005b348015610a6457600080fd5b50610a7f6004803603810190610a7a91906142d1565b6128dd565b604051610a8c91906142b6565b60405180910390f35b610aaf6004803603810190610aaa9190613ff4565b612926565b005b6000610abc82612afa565b9050919050565b606060008054610ad2906145ce565b80601f0160208091040260200160405190810160405280929190818152602001828054610afe906145ce565b8015610b4b5780601f10610b2057610100808354040283529160200191610b4b565b820191906000526020600020905b815481529060010190602001808311610b2e57829003601f168201915b5050505050905090565b6000610b6082612b74565b610b9f576040517f08c379a0000000000000000000000000000000000000000000000000000000008152600401610b9690614672565b60405180910390fd5b6004600083815260200190815260200160002060009054906101000a900473ffffffffffffffffffffffffffffffffffffffff169050919050565b6000610be582611a38565b90508073ffffffffffffffffffffffffffffffffffffffff168373ffffffffffffffffffffffffffffffffffffffff161415610c56576040517f08c379a0000000000000000000000000000000000000000000000000000000008152600401610c4d90614704565b60405180910390fd5b8073ffffffffffffffffffffffffffffffffffffffff16610c75612be0565b73ffffffffffffffffffffffffffffffffffffffff161480610ca45750610ca381610c9e612be0565b61256d565b5b610ce3576040517f08c379a0000000000000000000000000000000000000000000000000000000008152600401610cda90614796565b60405180910390fd5b610ced8383612be8565b505050565b60188054610cff906145ce565b80601f0160208091040260200160405190810160405280929190818152602001828054610d2b906145ce565b8015610d785780601f10610d4d57610100808354040283529160200191610d78565b820191906000526020600020905b815481529060010190602001808311610d5b57829003601f168201915b505050505081565b610d88612be0565b73ffffffffffffffffffffffffffffffffffffffff16610da66120ee565b73ffffffffffffffffffffffffffffffffffffffff161480610e1c5750610dcb612be0565b73ffffffffffffffffffffffffffffffffffffffff16601560009054906101000a900473ffffffffffffffffffffffffffffffffffffffff1673ffffffffffffffffffffffffffffffffffffffff16145b610e5b576040517f08c379a0000000000000000000000000000000000000000000000000000000008152600401610e5290614828565b60405180910390fd5b8060189080519060200190610e71929190613d91565b5050565b610e7d612be0565b73ffffffffffffffffffffffffffffffffffffffff16610e9b6120ee565b73ffffffffffffffffffffffffffffffffffffffff161480610f115750610ec0612be0565b73ffffffffffffffffffffffffffffffffffffffff16601560009054906101000a900473ffffffffffffffffffffffffffffffffffffffff1673ffffffffffffffffffffffffffffffffffffffff16145b610f50576040517f08c379a0000000000000000000000000000000000000000000000000000000008152600401610f4790614828565b60405180910390fd5b600c54610f5b611031565b1115610f9c576040517f08c379a0000000000000000000000000000000000000000000000000000000008152600401610f93906148ba565b60405180910390fd5b6000610fa8600b612ca1565b905060005b83811015610ff457610fcb83600184610fc69190614909565b612caf565b610fd5600b612ccd565b610fdf600b612ca1565b91508080610fec9061495f565b915050610fad565b507f7ab1cffb1eefb8e5f1d2ef8f17f3b3f29f7bc804ac3306a43c259bce8a70c7dc826040516110249190614062565b60405180910390a1505050565b6000600880549050905090565b600c5481565b600e60019054906101000a900460ff1681565b61105f612be0565b73ffffffffffffffffffffffffffffffffffffffff1661107d6120ee565b73ffffffffffffffffffffffffffffffffffffffff1614806110f357506110a2612be0565b73ffffffffffffffffffffffffffffffffffffffff16601560009054906101000a900473ffffffffffffffffffffffffffffffffffffffff1673ffffffffffffffffffffffffffffffffffffffff16145b611132576040517f08c379a000000000000000000000000000000000000000000000000000000000815260040161112990614828565b60405180910390fd5b6001601960008373ffffffffffffffffffffffffffffffffffffffff1673ffffffffffffffffffffffffffffffffffffffff16815260200190815260200160002060006101000a81548160ff02191690831515021790555050565b61119e611198612be0565b82612ce3565b6111dd576040517f08c379a00000000000000000000000000000000000000000000000000000000081526004016111d490614a1a565b60405180910390fd5b6111e8838383612dc1565b505050565b80471015611230576040517f08c379a000000000000000000000000000000000000000000000000000000000815260040161122790614a86565b60405180910390fd5b6000600390506000670de0b6b3a76400008361124c9190614aa6565b9050818161125a9190614b2f565b905060005b8281101561136457600f816003811061127b5761127a614b60565b5b0160009054906101000a900473ffffffffffffffffffffffffffffffffffffffff1673ffffffffffffffffffffffffffffffffffffffff166108fc839081150290604051600060405180830381858888f193505050501580156112e2573d6000803e3d6000fd5b507fdf20fd1e76bc69d672e4814fafb2c449bba3a5369d8359adf9e05e6fde87b056600f826003811061131857611317614b60565b5b0160009054906101000a900473ffffffffffffffffffffffffffffffffffffffff1683604051611349929190614b8f565b60405180910390a1808061135c9061495f565b91505061125f565b50505050565b600061137583611b78565b82106113b6576040517f08c379a00000000000000000000000000000000000000000000000000000000081526004016113ad90614c2a565b60405180910390fd5b600660008473ffffffffffffffffffffffffffffffffffffffff1673ffffffffffffffffffffffffffffffffffffffff168152602001908152602001600020600083815260200190815260200160002054905092915050565b61142a83838360405180602001604052806000815250612381565b505050565b61144061143a612be0565b82612ce3565b61147f576040517f08c379a000000000000000000000000000000000000000000000000000000000815260040161147690614cbc565b60405180910390fd5b6114888161301d565b50565b670214e8348c4f000081565b600e60019054906101000a900460ff166114e6576040517f08c379a00000000000000000000000000000000000000000000000000000000081526004016114dd90614d4e565b60405180910390fd5b60011515601960003373ffffffffffffffffffffffffffffffffffffffff1673ffffffffffffffffffffffffffffffffffffffff16815260200190815260200160002060009054906101000a900460ff16151514611579576040517f08c379a000000000000000000000000000000000000000000000000000000000815260040161157090614de0565b60405180910390fd5b600c5481601a60003373ffffffffffffffffffffffffffffffffffffffff1673ffffffffffffffffffffffffffffffffffffffff168152602001908152602001600020546115c79190614909565b1115611608576040517f08c379a00000000000000000000000000000000000000000000000000000000081526004016115ff90614e72565b60405180910390fd5b3481670214e8348c4f000061161d9190614aa6565b111561165e576040517f08c379a000000000000000000000000000000000000000000000000000000000815260040161165590614ede565b60405180910390fd5b60005b8181101561170c5760006001611677600b612ca1565b6116819190614909565b9050600c5481116116f8576116963382612caf565b6116a0600b612ccd565b6001601a60003373ffffffffffffffffffffffffffffffffffffffff1673ffffffffffffffffffffffffffffffffffffffff16815260200190815260200160002060008282546116f09190614909565b925050819055505b5080806117049061495f565b915050611661565b507fd796022d8ea0506b00b4bb91534b3d758b62e3d9b2330d3fb3420d18da40ed09338260405161173e929190614b8f565b60405180910390a150565b611751612be0565b73ffffffffffffffffffffffffffffffffffffffff1661176f6120ee565b73ffffffffffffffffffffffffffffffffffffffff1614806117e55750611794612be0565b73ffffffffffffffffffffffffffffffffffffffff16601560009054906101000a900473ffffffffffffffffffffffffffffffffffffffff1673ffffffffffffffffffffffffffffffffffffffff16145b611824576040517f08c379a000000000000000000000000000000000000000000000000000000000815260040161181b90614828565b60405180910390fd5b6000670de0b6b3a76400008361183a9190614aa6565b90508173ffffffffffffffffffffffffffffffffffffffff166108fc829081150290604051600060405180830381858888f19350505050158015611882573d6000803e3d6000fd5b507fdf20fd1e76bc69d672e4814fafb2c449bba3a5369d8359adf9e05e6fde87b05682846040516118b4929190614f5d565b60405180910390a1505050565b60006118cb611031565b821061190c576040517f08c379a000000000000000000000000000000000000000000000000000000000815260040161190390614ff8565b60405180910390fd5b600882815481106119205761191f614b60565b5b90600052602060002001549050919050565b61193a612be0565b73ffffffffffffffffffffffffffffffffffffffff166119586120ee565b73ffffffffffffffffffffffffffffffffffffffff1614806119ce575061197d612be0565b73ffffffffffffffffffffffffffffffffffffffff16601560009054906101000a900473ffffffffffffffffffffffffffffffffffffffff1673ffffffffffffffffffffffffffffffffffffffff16145b611a0d576040517f08c379a0000000000000000000000000000000000000000000000000000000008152600401611a0490614828565b60405180910390fd5b80600d9080519060200190611a23929190613d91565b5050565b6000611a33600b612ca1565b905090565b6000806002600084815260200190815260200160002060009054906101000a900473ffffffffffffffffffffffffffffffffffffffff169050600073ffffffffffffffffffffffffffffffffffffffff168173ffffffffffffffffffffffffffffffffffffffff161415611ae1576040517f08c379a0000000000000000000000000000000000000000000000000000000008152600401611ad89061508a565b60405180910390fd5b80915050919050565b600d8054611af7906145ce565b80601f0160208091040260200160405190810160405280929190818152602001828054611b23906145ce565b8015611b705780601f10611b4557610100808354040283529160200191611b70565b820191906000526020600020905b815481529060010190602001808311611b5357829003601f168201915b505050505081565b60008073ffffffffffffffffffffffffffffffffffffffff168273ffffffffffffffffffffffffffffffffffffffff161415611be9576040517f08c379a0000000000000000000000000000000000000000000000000000000008152600401611be09061511c565b60405180910390fd5b600360008373ffffffffffffffffffffffffffffffffffffffff1673ffffffffffffffffffffffffffffffffffffffff168152602001908152602001600020549050919050565b611c38612be0565b73ffffffffffffffffffffffffffffffffffffffff16611c566120ee565b73ffffffffffffffffffffffffffffffffffffffff1614611cac576040517f08c379a0000000000000000000000000000000000000000000000000000000008152600401611ca390615188565b60405180910390fd5b611cb6600061312e565b565b611cc0612be0565b73ffffffffffffffffffffffffffffffffffffffff16611cde6120ee565b73ffffffffffffffffffffffffffffffffffffffff161480611d545750611d03612be0565b73ffffffffffffffffffffffffffffffffffffffff16601560009054906101000a900473ffffffffffffffffffffffffffffffffffffffff1673ffffffffffffffffffffffffffffffffffffffff16145b611d93576040517f08c379a0000000000000000000000000000000000000000000000000000000008152600401611d8a90614828565b60405180910390fd5b600e60009054906101000a900460ff1615600e60006101000a81548160ff021916908315150217905550565b611dc7612be0565b73ffffffffffffffffffffffffffffffffffffffff16611de56120ee565b73ffffffffffffffffffffffffffffffffffffffff161480611e5b5750611e0a612be0565b73ffffffffffffffffffffffffffffffffffffffff16601560009054906101000a900473ffffffffffffffffffffffffffffffffffffffff1673ffffffffffffffffffffffffffffffffffffffff16145b611e9a576040517f08c379a0000000000000000000000000000000000000000000000000000000008152600401611e9190614828565b60405180910390fd5b600060165414611edf576040517f08c379a0000000000000000000000000000000000000000000000000000000008152600401611ed6906151f4565b60405180910390fd5b43601781905550565b600281565b6000600e60019054906101000a900460ff16905090565b611f0c612be0565b73ffffffffffffffffffffffffffffffffffffffff16611f2a6120ee565b73ffffffffffffffffffffffffffffffffffffffff161480611fa05750611f4f612be0565b73ffffffffffffffffffffffffffffffffffffffff16601560009054906101000a900473ffffffffffffffffffffffffffffffffffffffff1673ffffffffffffffffffffffffffffffffffffffff16145b611fdf576040517f08c379a0000000000000000000000000000000000000000000000000000000008152600401611fd690614828565b60405180910390fd5b600e60019054906101000a900460ff1615600e60016101000a81548160ff021916908315150217905550565b6000612015612be0565b73ffffffffffffffffffffffffffffffffffffffff166120336120ee565b73ffffffffffffffffffffffffffffffffffffffff1614806120a95750612058612be0565b73ffffffffffffffffffffffffffffffffffffffff16601560009054906101000a900473ffffffffffffffffffffffffffffffffffffffff1673ffffffffffffffffffffffffffffffffffffffff16145b6120e8576040517f08c379a00000000000000000000000000000000000000000000000000000000081526004016120df90614828565b60405180910390fd5b47905090565b6000600a60009054906101000a900473ffffffffffffffffffffffffffffffffffffffff16905090565b606060018054612127906145ce565b80601f0160208091040260200160405190810160405280929190818152602001828054612153906145ce565b80156121a05780601f10612175576101008083540402835291602001916121a0565b820191906000526020600020905b81548152906001019060200180831161218357829003601f168201915b5050505050905090565b6121b2612be0565b73ffffffffffffffffffffffffffffffffffffffff168273ffffffffffffffffffffffffffffffffffffffff161415612220576040517f08c379a000000000000000000000000000000000000000000000000000000000815260040161221790615260565b60405180910390fd5b806005600061222d612be0565b73ffffffffffffffffffffffffffffffffffffffff1673ffffffffffffffffffffffffffffffffffffffff16815260200190815260200160002060008473ffffffffffffffffffffffffffffffffffffffff1673ffffffffffffffffffffffffffffffffffffffff16815260200190815260200160002060006101000a81548160ff0219169083151502179055508173ffffffffffffffffffffffffffffffffffffffff166122da612be0565b73ffffffffffffffffffffffffffffffffffffffff167f17307eab39ab6107e8899845ad3d59bd9653f200f220920489ca2b5937696c318360405161231f9190613ee8565b60405180910390a35050565b6000601960008373ffffffffffffffffffffffffffffffffffffffff1673ffffffffffffffffffffffffffffffffffffffff16815260200190815260200160002060009054906101000a900460ff169050919050565b61239261238c612be0565b83612ce3565b6123d1576040517f08c379a00000000000000000000000000000000000000000000000000000000081526004016123c890614a1a565b60405180910390fd5b6123dd848484846131f4565b50505050565b60606123ee82612b74565b61242d576040517f08c379a0000000000000000000000000000000000000000000000000000000008152600401612424906152f2565b60405180910390fd5b6000612437613250565b905060008151116124575760405180602001604052806000815250612482565b80612461846132e2565b60405160200161247292919061534e565b6040516020818303038152906040525b915050919050565b60165481565b612498612be0565b73ffffffffffffffffffffffffffffffffffffffff166124b66120ee565b73ffffffffffffffffffffffffffffffffffffffff161461250c576040517f08c379a000000000000000000000000000000000000000000000000000000000815260040161250390615188565b60405180910390fd5b80601560006101000a81548173ffffffffffffffffffffffffffffffffffffffff021916908373ffffffffffffffffffffffffffffffffffffffff16021790555050565b60175481565b6000600e60009054906101000a900460ff16905090565b6000600560008473ffffffffffffffffffffffffffffffffffffffff1673ffffffffffffffffffffffffffffffffffffffff16815260200190815260200160002060008373ffffffffffffffffffffffffffffffffffffffff1673ffffffffffffffffffffffffffffffffffffffff16815260200190815260200160002060009054906101000a900460ff16905092915050565b612609612be0565b73ffffffffffffffffffffffffffffffffffffffff166126276120ee565b73ffffffffffffffffffffffffffffffffffffffff16148061269d575061264c612be0565b73ffffffffffffffffffffffffffffffffffffffff16601560009054906101000a900473ffffffffffffffffffffffffffffffffffffffff1673ffffffffffffffffffffffffffffffffffffffff16145b6126dc576040517f08c379a00000000000000000000000000000000000000000000000000000000081526004016126d390614828565b60405180910390fd5b600060165414612721576040517f08c379a0000000000000000000000000000000000000000000000000000000008152600401612718906151f4565b60405180910390fd5b60006017541415612767576040517f08c379a000000000000000000000000000000000000000000000000000000000815260040161275e906153be565b60405180910390fd5b600c546017544060001c61277b91906153de565b60168190555060ff60175443612791919061540f565b11156127bc57600c546001436127a7919061540f565b4060001c6127b591906153de565b6016819055505b600060165414156127d05760016016819055505b565b600e60009054906101000a900460ff1681565b6127ed612be0565b73ffffffffffffffffffffffffffffffffffffffff1661280b6120ee565b73ffffffffffffffffffffffffffffffffffffffff1614612861576040517f08c379a000000000000000000000000000000000000000000000000000000000815260040161285890615188565b60405180910390fd5b600073ffffffffffffffffffffffffffffffffffffffff168173ffffffffffffffffffffffffffffffffffffffff1614156128d1576040517f08c379a00000000000000000000000000000000000000000000000000000000081526004016128c8906154b5565b60405180910390fd5b6128da8161312e565b50565b6000601a60008373ffffffffffffffffffffffffffffffffffffffff1673ffffffffffffffffffffffffffffffffffffffff168152602001908152602001600020549050919050565b600e60009054906101000a900460ff16612975576040517f08c379a000000000000000000000000000000000000000000000000000000000815260040161296c90615547565b60405180910390fd5b60028111156129b9576040517f08c379a00000000000000000000000000000000000000000000000000000000081526004016129b0906155d9565b60405180910390fd5b600c54816129c5611031565b6129cf9190614909565b1115612a10576040517f08c379a0000000000000000000000000000000000000000000000000000000008152600401612a07906148ba565b60405180910390fd5b3481670214e8348c4f0000612a259190614aa6565b1115612a66576040517f08c379a0000000000000000000000000000000000000000000000000000000008152600401612a5d90614ede565b60405180910390fd5b60005b81811015612abd5760006001612a7f600b612ca1565b612a899190614909565b9050600c548111612aa957612a9e3382612caf565b612aa8600b612ccd565b5b508080612ab59061495f565b915050612a69565b507f34915836d1729feecf1aeae002366d4fa09bc3819db73eb6bcca5b62a5dd221d3382604051612aef929190614b8f565b60405180910390a150565b60007f780e9d63000000000000000000000000000000000000000000000000000000007bffffffffffffffffffffffffffffffffffffffffffffffffffffffff1916827bffffffffffffffffffffffffffffffffffffffffffffffffffffffff19161480612b6d5750612b6c82613443565b5b9050919050565b60008073ffffffffffffffffffffffffffffffffffffffff166002600084815260200190815260200160002060009054906101000a900473ffffffffffffffffffffffffffffffffffffffff1673ffffffffffffffffffffffffffffffffffffffff1614159050919050565b600033905090565b816004600083815260200190815260200160002060006101000a81548173ffffffffffffffffffffffffffffffffffffffff021916908373ffffffffffffffffffffffffffffffffffffffff160217905550808273ffffffffffffffffffffffffffffffffffffffff16612c5b83611a38565b73ffffffffffffffffffffffffffffffffffffffff167f8c5be1e5ebec7d5bd14f71427d1e84f3dd0314c0f7b2291e5b200ac8c7c3b92560405160405180910390a45050565b600081600001549050919050565b612cc9828260405180602001604052806000815250613525565b5050565b6001816000016000828254019250508190555050565b6000612cee82612b74565b612d2d576040517f08c379a0000000000000000000000000000000000000000000000000000000008152600401612d249061566b565b60405180910390fd5b6000612d3883611a38565b90508073ffffffffffffffffffffffffffffffffffffffff168473ffffffffffffffffffffffffffffffffffffffff161480612da757508373ffffffffffffffffffffffffffffffffffffffff16612d8f84610b55565b73ffffffffffffffffffffffffffffffffffffffff16145b80612db85750612db7818561256d565b5b91505092915050565b8273ffffffffffffffffffffffffffffffffffffffff16612de182611a38565b73ffffffffffffffffffffffffffffffffffffffff1614612e37576040517f08c379a0000000000000000000000000000000000000000000000000000000008152600401612e2e906156fd565b60405180910390fd5b600073ffffffffffffffffffffffffffffffffffffffff168273ffffffffffffffffffffffffffffffffffffffff161415612ea7576040517f08c379a0000000000000000000000000000000000000000000000000000000008152600401612e9e9061578f565b60405180910390fd5b612eb2838383613580565b612ebd600082612be8565b6001600360008573ffffffffffffffffffffffffffffffffffffffff1673ffffffffffffffffffffffffffffffffffffffff1681526020019081526020016000206000828254612f0d919061540f565b925050819055506001600360008473ffffffffffffffffffffffffffffffffffffffff1673ffffffffffffffffffffffffffffffffffffffff1681526020019081526020016000206000828254612f649190614909565b92505081905550816002600083815260200190815260200160002060006101000a81548173ffffffffffffffffffffffffffffffffffffffff021916908373ffffffffffffffffffffffffffffffffffffffff160217905550808273ffffffffffffffffffffffffffffffffffffffff168473ffffffffffffffffffffffffffffffffffffffff167fddf252ad1be2c89b69c2b068fc378daa952ba7f163c4a11628f55a4df523b3ef60405160405180910390a4505050565b600061302882611a38565b905061303681600084613580565b613041600083612be8565b6001600360008373ffffffffffffffffffffffffffffffffffffffff1673ffffffffffffffffffffffffffffffffffffffff1681526020019081526020016000206000828254613091919061540f565b925050819055506002600083815260200190815260200160002060006101000a81549073ffffffffffffffffffffffffffffffffffffffff021916905581600073ffffffffffffffffffffffffffffffffffffffff168273ffffffffffffffffffffffffffffffffffffffff167fddf252ad1be2c89b69c2b068fc378daa952ba7f163c4a11628f55a4df523b3ef60405160405180910390a45050565b6000600a60009054906101000a900473ffffffffffffffffffffffffffffffffffffffff16905081600a60006101000a81548173ffffffffffffffffffffffffffffffffffffffff021916908373ffffffffffffffffffffffffffffffffffffffff1602179055508173ffffffffffffffffffffffffffffffffffffffff168173ffffffffffffffffffffffffffffffffffffffff167f8be0079c531659141344cd1fd0a4f28419497f9722a3daafe3b4186f6b6457e060405160405180910390a35050565b6131ff848484612dc1565b61320b84848484613590565b61324a576040517f08c379a000000000000000000000000000000000000000000000000000000000815260040161324190615821565b60405180910390fd5b50505050565b6060600d805461325f906145ce565b80601f016020809104026020016040519081016040528092919081815260200182805461328b906145ce565b80156132d85780601f106132ad576101008083540402835291602001916132d8565b820191906000526020600020905b8154815290600101906020018083116132bb57829003601f168201915b5050505050905090565b6060600082141561332a576040518060400160405280600181526020017f3000000000000000000000000000000000000000000000000000000000000000815250905061343e565b600082905060005b6000821461335c5780806133459061495f565b915050600a826133559190614b2f565b9150613332565b60008167ffffffffffffffff811115613378576133776140f3565b5b6040519080825280601f01601f1916602001820160405280156133aa5781602001600182028036833780820191505090505b5090505b60008514613437576001826133c3919061540f565b9150600a856133d291906153de565b60306133de9190614909565b60f81b8183815181106133f4576133f3614b60565b5b60200101907effffffffffffffffffffffffffffffffffffffffffffffffffffffffffffff1916908160001a905350600a856134309190614b2f565b94506133ae565b8093505050505b919050565b60007f80ac58cd000000000000000000000000000000000000000000000000000000007bffffffffffffffffffffffffffffffffffffffffffffffffffffffff1916827bffffffffffffffffffffffffffffffffffffffffffffffffffffffff1916148061350e57507f5b5e139f000000000000000000000000000000000000000000000000000000007bffffffffffffffffffffffffffffffffffffffffffffffffffffffff1916827bffffffffffffffffffffffffffffffffffffffffffffffffffffffff1916145b8061351e575061351d82613727565b5b9050919050565b61352f8383613791565b61353c6000848484613590565b61357b576040517f08c379a000000000000000000000000000000000000000000000000000000000815260040161357290615821565b60405180910390fd5b505050565b61358b83838361395f565b505050565b60006135b18473ffffffffffffffffffffffffffffffffffffffff16613a73565b1561371a578373ffffffffffffffffffffffffffffffffffffffff1663150b7a026135da612be0565b8786866040518563ffffffff1660e01b81526004016135fc9493929190615896565b602060405180830381600087803b15801561361657600080fd5b505af192505050801561364757506040513d601f19601f8201168201806040525081019061364491906158f7565b60015b6136ca573d8060008114613677576040519150601f19603f3d011682016040523d82523d6000602084013e61367c565b606091505b506000815114156136c2576040517f08c379a00000000000000000000000000000000000000000000000000000000081526004016136b990615821565b60405180910390fd5b805181602001fd5b63150b7a0260e01b7bffffffffffffffffffffffffffffffffffffffffffffffffffffffff1916817bffffffffffffffffffffffffffffffffffffffffffffffffffffffff19161491505061371f565b600190505b949350505050565b60007f01ffc9a7000000000000000000000000000000000000000000000000000000007bffffffffffffffffffffffffffffffffffffffffffffffffffffffff1916827bffffffffffffffffffffffffffffffffffffffffffffffffffffffff1916149050919050565b600073ffffffffffffffffffffffffffffffffffffffff168273ffffffffffffffffffffffffffffffffffffffff161415613801576040517f08c379a00000000000000000000000000000000000000000000000000000000081526004016137f890615970565b60405180910390fd5b61380a81612b74565b1561384a576040517f08c379a0000000000000000000000000000000000000000000000000000000008152600401613841906159dc565b60405180910390fd5b61385660008383613580565b6001600360008473ffffffffffffffffffffffffffffffffffffffff1673ffffffffffffffffffffffffffffffffffffffff16815260200190815260200160002060008282546138a69190614909565b92505081905550816002600083815260200190815260200160002060006101000a81548173ffffffffffffffffffffffffffffffffffffffff021916908373ffffffffffffffffffffffffffffffffffffffff160217905550808273ffffffffffffffffffffffffffffffffffffffff16600073ffffffffffffffffffffffffffffffffffffffff167fddf252ad1be2c89b69c2b068fc378daa952ba7f163c4a11628f55a4df523b3ef60405160405180910390a45050565b61396a838383613a86565b600073ffffffffffffffffffffffffffffffffffffffff168373ffffffffffffffffffffffffffffffffffffffff1614156139ad576139a881613a8b565b6139ec565b8173ffffffffffffffffffffffffffffffffffffffff168373ffffffffffffffffffffffffffffffffffffffff16146139eb576139ea8382613ad4565b5b5b600073ffffffffffffffffffffffffffffffffffffffff168273ffffffffffffffffffffffffffffffffffffffff161415613a2f57613a2a81613c41565b613a6e565b8273ffffffffffffffffffffffffffffffffffffffff168273ffffffffffffffffffffffffffffffffffffffff1614613a6d57613a6c8282613d12565b5b5b505050565b600080823b905060008111915050919050565b505050565b6008805490506009600083815260200190815260200160002081905550600881908060018154018082558091505060019003906000526020600020016000909190919091505550565b60006001613ae184611b78565b613aeb919061540f565b9050600060076000848152602001908152602001600020549050818114613bd0576000600660008673ffffffffffffffffffffffffffffffffffffffff1673ffffffffffffffffffffffffffffffffffffffff168152602001908152602001600020600084815260200190815260200160002054905080600660008773ffffffffffffffffffffffffffffffffffffffff1673ffffffffffffffffffffffffffffffffffffffff168152602001908152602001600020600084815260200190815260200160002081905550816007600083815260200190815260200160002081905550505b6007600084815260200190815260200160002060009055600660008573ffffffffffffffffffffffffffffffffffffffff1673ffffffffffffffffffffffffffffffffffffffff16815260200190815260200160002060008381526020019081526020016000206000905550505050565b60006001600880549050613c55919061540f565b9050600060096000848152602001908152602001600020549050600060088381548110613c8557613c84614b60565b5b906000526020600020015490508060088381548110613ca757613ca6614b60565b5b906000526020600020018190555081600960008381526020019081526020016000208190555060096000858152602001908152602001600020600090556008805480613cf657613cf56159fc565b5b6001900381819060005260206000200160009055905550505050565b6000613d1d83611b78565b905081600660008573ffffffffffffffffffffffffffffffffffffffff1673ffffffffffffffffffffffffffffffffffffffff168152602001908152602001600020600083815260200190815260200160002081905550806007600084815260200190815260200160002081905550505050565b828054613d9d906145ce565b90600052602060002090601f016020900481019282613dbf5760008555613e06565b82601f10613dd857805160ff1916838001178555613e06565b82800160010185558215613e06579182015b82811115613e05578251825591602001919060010190613dea565b5b509050613e139190613e17565b5090565b5b80821115613e30576000816000905550600101613e18565b5090565b6000604051905090565b600080fd5b600080fd5b60007fffffffff0000000000000000000000000000000000000000000000000000000082169050919050565b613e7d81613e48565b8114613e8857600080fd5b50565b600081359050613e9a81613e74565b92915050565b600060208284031215613eb657613eb5613e3e565b5b6000613ec484828501613e8b565b91505092915050565b60008115159050919050565b613ee281613ecd565b82525050565b6000602082019050613efd6000830184613ed9565b92915050565b600081519050919050565b600082825260208201905092915050565b60005b83811015613f3d578082015181840152602081019050613f22565b83811115613f4c576000848401525b50505050565b6000601f19601f8301169050919050565b6000613f6e82613f03565b613f788185613f0e565b9350613f88818560208601613f1f565b613f9181613f52565b840191505092915050565b60006020820190508181036000830152613fb68184613f63565b905092915050565b6000819050919050565b613fd181613fbe565b8114613fdc57600080fd5b50565b600081359050613fee81613fc8565b92915050565b60006020828403121561400a57614009613e3e565b5b600061401884828501613fdf565b91505092915050565b600073ffffffffffffffffffffffffffffffffffffffff82169050919050565b600061404c82614021565b9050919050565b61405c81614041565b82525050565b60006020820190506140776000830184614053565b92915050565b61408681614041565b811461409157600080fd5b50565b6000813590506140a38161407d565b92915050565b600080604083850312156140c0576140bf613e3e565b5b60006140ce85828601614094565b92505060206140df85828601613fdf565b9150509250929050565b600080fd5b600080fd5b7f4e487b7100000000000000000000000000000000000000000000000000000000600052604160045260246000fd5b61412b82613f52565b810181811067ffffffffffffffff8211171561414a576141496140f3565b5b80604052505050565b600061415d613e34565b90506141698282614122565b919050565b600067ffffffffffffffff821115614189576141886140f3565b5b61419282613f52565b9050602081019050919050565b82818337600083830152505050565b60006141c16141bc8461416e565b614153565b9050828152602081018484840111156141dd576141dc6140ee565b5b6141e884828561419f565b509392505050565b600082601f830112614205576142046140e9565b5b81356142158482602086016141ae565b91505092915050565b60006020828403121561423457614233613e3e565b5b600082013567ffffffffffffffff81111561425257614251613e43565b5b61425e848285016141f0565b91505092915050565b6000806040838503121561427e5761427d613e3e565b5b600061428c85828601613fdf565b925050602061429d85828601614094565b9150509250929050565b6142b081613fbe565b82525050565b60006020820190506142cb60008301846142a7565b92915050565b6000602082840312156142e7576142e6613e3e565b5b60006142f584828501614094565b91505092915050565b60008060006060848603121561431757614316613e3e565b5b600061432586828701614094565b935050602061433686828701614094565b925050604061434786828701613fdf565b9150509250925092565b600061435c82614021565b9050919050565b61436c81614351565b811461437757600080fd5b50565b60008135905061438981614363565b92915050565b600080604083850312156143a6576143a5613e3e565b5b60006143b485828601613fdf565b92505060206143c58582860161437a565b9150509250929050565b6143d881613ecd565b81146143e357600080fd5b50565b6000813590506143f5816143cf565b92915050565b6000806040838503121561441257614411613e3e565b5b600061442085828601614094565b9250506020614431858286016143e6565b9150509250929050565b600067ffffffffffffffff821115614456576144556140f3565b5b61445f82613f52565b9050602081019050919050565b600061447f61447a8461443b565b614153565b90508281526020810184848401111561449b5761449a6140ee565b5b6144a684828561419f565b509392505050565b600082601f8301126144c3576144c26140e9565b5b81356144d384826020860161446c565b91505092915050565b600080600080608085870312156144f6576144f5613e3e565b5b600061450487828801614094565b945050602061451587828801614094565b935050604061452687828801613fdf565b925050606085013567ffffffffffffffff81111561454757614546613e43565b5b614553878288016144ae565b91505092959194509250565b6000806040838503121561457657614575613e3e565b5b600061458485828601614094565b925050602061459585828601614094565b9150509250929050565b7f4e487b7100000000000000000000000000000000000000000000000000000000600052602260045260246000fd5b600060028204905060018216806145e657607f821691505b602082108114156145fa576145f961459f565b5b50919050565b7f4552433732313a20617070726f76656420717565727920666f72206e6f6e657860008201527f697374656e7420746f6b656e0000000000000000000000000000000000000000602082015250565b600061465c602c83613f0e565b915061466782614600565b604082019050919050565b6000602082019050818103600083015261468b8161464f565b9050919050565b7f4552433732313a20617070726f76616c20746f2063757272656e74206f776e6560008201527f7200000000000000000000000000000000000000000000000000000000000000602082015250565b60006146ee602183613f0e565b91506146f982614692565b604082019050919050565b6000602082019050818103600083015261471d816146e1565b9050919050565b7f4552433732313a20617070726f76652063616c6c6572206973206e6f74206f7760008201527f6e6572206e6f7220617070726f76656420666f7220616c6c0000000000000000602082015250565b6000614780603883613f0e565b915061478b82614724565b604082019050919050565b600060208201905081810360008301526147af81614773565b9050919050565b7f43616c6c6572206973206e6f7420746865206f776e6572206f72206d616e616760008201527f6572000000000000000000000000000000000000000000000000000000000000602082015250565b6000614812602283613f0e565b915061481d826147b6565b604082019050919050565b6000602082019050818103600083015261484181614805565b9050919050565b7f507572636861736520776f756c6420657863656564206d617820737570706c7960008201527f206f66204d656e61636573000000000000000000000000000000000000000000602082015250565b60006148a4602b83613f0e565b91506148af82614848565b604082019050919050565b600060208201905081810360008301526148d381614897565b9050919050565b7f4e487b7100000000000000000000000000000000000000000000000000000000600052601160045260246000fd5b600061491482613fbe565b915061491f83613fbe565b9250827fffffffffffffffffffffffffffffffffffffffffffffffffffffffffffffffff03821115614954576149536148da565b5b828201905092915050565b600061496a82613fbe565b91507fffffffffffffffffffffffffffffffffffffffffffffffffffffffffffffffff82141561499d5761499c6148da565b5b600182019050919050565b7f4552433732313a207472616e736665722063616c6c6572206973206e6f74206f60008201527f776e6572206e6f7220617070726f766564000000000000000000000000000000602082015250565b6000614a04603183613f0e565b9150614a0f826149a8565b604082019050919050565b60006020820190508181036000830152614a33816149f7565b9050919050565b7f496e737566666963656e742066756e64732e0000000000000000000000000000600082015250565b6000614a70601283613f0e565b9150614a7b82614a3a565b602082019050919050565b60006020820190508181036000830152614a9f81614a63565b9050919050565b6000614ab182613fbe565b9150614abc83613fbe565b9250817fffffffffffffffffffffffffffffffffffffffffffffffffffffffffffffffff0483118215151615614af557614af46148da565b5b828202905092915050565b7f4e487b7100000000000000000000000000000000000000000000000000000000600052601260045260246000fd5b6000614b3a82613fbe565b9150614b4583613fbe565b925082614b5557614b54614b00565b5b828204905092915050565b7f4e487b7100000000000000000000000000000000000000000000000000000000600052603260045260246000fd5b6000604082019050614ba46000830185614053565b614bb160208301846142a7565b9392505050565b7f455243373231456e756d657261626c653a206f776e657220696e646578206f7560008201527f74206f6620626f756e6473000000000000000000000000000000000000000000602082015250565b6000614c14602b83613f0e565b9150614c1f82614bb8565b604082019050919050565b60006020820190508181036000830152614c4381614c07565b9050919050565b7f4552433732314275726e61626c653a2063616c6c6572206973206e6f74206f7760008201527f6e6572206e6f7220617070726f76656400000000000000000000000000000000602082015250565b6000614ca6603083613f0e565b9150614cb182614c4a565b604082019050919050565b60006020820190508181036000830152614cd581614c99565b9050919050565b7f5072652053616c65206d7573742062652061637469766520746f206d696e742060008201527f4d656e6163657300000000000000000000000000000000000000000000000000602082015250565b6000614d38602783613f0e565b9150614d4382614cdc565b604082019050919050565b60006020820190508181036000830152614d6781614d2b565b9050919050565b7f536f7272792c20796f752772652061646472657373206973206e6f742077686960008201527f74656c697374656420666f722070726573616c65000000000000000000000000602082015250565b6000614dca603483613f0e565b9150614dd582614d6e565b604082019050919050565b60006020820190508181036000830152614df981614dbd565b9050919050565b7f507572636861736520776f756c64206578636565642070726573616c65206c6960008201527f6d69740000000000000000000000000000000000000000000000000000000000602082015250565b6000614e5c602383613f0e565b9150614e6782614e00565b604082019050919050565b60006020820190508181036000830152614e8b81614e4f565b9050919050565b7f45746865722076616c75652073656e74206973206e6f7420636f727265637400600082015250565b6000614ec8601f83613f0e565b9150614ed382614e92565b602082019050919050565b60006020820190508181036000830152614ef781614ebb565b9050919050565b6000819050919050565b6000614f23614f1e614f1984614021565b614efe565b614021565b9050919050565b6000614f3582614f08565b9050919050565b6000614f4782614f2a565b9050919050565b614f5781614f3c565b82525050565b6000604082019050614f726000830185614f4e565b614f7f60208301846142a7565b9392505050565b7f455243373231456e756d657261626c653a20676c6f62616c20696e646578206f60008201527f7574206f6620626f756e64730000000000000000000000000000000000000000602082015250565b6000614fe2602c83613f0e565b9150614fed82614f86565b604082019050919050565b6000602082019050818103600083015261501181614fd5565b9050919050565b7f4552433732313a206f776e657220717565727920666f72206e6f6e657869737460008201527f656e7420746f6b656e0000000000000000000000000000000000000000000000602082015250565b6000615074602983613f0e565b915061507f82615018565b604082019050919050565b600060208201905081810360008301526150a381615067565b9050919050565b7f4552433732313a2062616c616e636520717565727920666f7220746865207a6560008201527f726f206164647265737300000000000000000000000000000000000000000000602082015250565b6000615106602a83613f0e565b9150615111826150aa565b604082019050919050565b60006020820190508181036000830152615135816150f9565b9050919050565b7f4f776e61626c653a2063616c6c6572206973206e6f7420746865206f776e6572600082015250565b6000615172602083613f0e565b915061517d8261513c565b602082019050919050565b600060208201905081810360008301526151a181615165565b9050919050565b7f5374617274696e6720696e64657820697320616c726561647920736574000000600082015250565b60006151de601d83613f0e565b91506151e9826151a8565b602082019050919050565b6000602082019050818103600083015261520d816151d1565b9050919050565b7f4552433732313a20617070726f766520746f2063616c6c657200000000000000600082015250565b600061524a601983613f0e565b915061525582615214565b602082019050919050565b600060208201905081810360008301526152798161523d565b9050919050565b7f4552433732314d657461646174613a2055524920717565727920666f72206e6f60008201527f6e6578697374656e7420746f6b656e0000000000000000000000000000000000602082015250565b60006152dc602f83613f0e565b91506152e782615280565b604082019050919050565b6000602082019050818103600083015261530b816152cf565b9050919050565b600081905092915050565b600061532882613f03565b6153328185615312565b9350615342818560208601613f1f565b80840191505092915050565b600061535a828561531d565b9150615366828461531d565b91508190509392505050565b7f5374617274696e6720696e64657820626c6f636b206d75737420626520736574600082015250565b60006153a8602083613f0e565b91506153b382615372565b602082019050919050565b600060208201905081810360008301526153d78161539b565b9050919050565b60006153e982613fbe565b91506153f483613fbe565b92508261540457615403614b00565b5b828206905092915050565b600061541a82613fbe565b915061542583613fbe565b925082821015615438576154376148da565b5b828203905092915050565b7f4f776e61626c653a206e6577206f776e657220697320746865207a65726f206160008201527f6464726573730000000000000000000000000000000000000000000000000000602082015250565b600061549f602683613f0e565b91506154aa82615443565b604082019050919050565b600060208201905081810360008301526154ce81615492565b9050919050565b7f53616c65206d7573742062652061637469766520746f206d696e74204d656e6160008201527f6365730000000000000000000000000000000000000000000000000000000000602082015250565b6000615531602383613f0e565b915061553c826154d5565b604082019050919050565b6000602082019050818103600083015261556081615524565b9050919050565b7f596f752063616e206f6e6c79206d696e742032204d656e61636573206174206160008201527f2074696d65000000000000000000000000000000000000000000000000000000602082015250565b60006155c3602583613f0e565b91506155ce82615567565b604082019050919050565b600060208201905081810360008301526155f2816155b6565b9050919050565b7f4552433732313a206f70657261746f7220717565727920666f72206e6f6e657860008201527f697374656e7420746f6b656e0000000000000000000000000000000000000000602082015250565b6000615655602c83613f0e565b9150615660826155f9565b604082019050919050565b6000602082019050818103600083015261568481615648565b9050919050565b7f4552433732313a207472616e73666572206f6620746f6b656e2074686174206960008201527f73206e6f74206f776e0000000000000000000000000000000000000000000000602082015250565b60006156e7602983613f0e565b91506156f28261568b565b604082019050919050565b60006020820190508181036000830152615716816156da565b9050919050565b7f4552433732313a207472616e7366657220746f20746865207a65726f2061646460008201527f7265737300000000000000000000000000000000000000000000000000000000602082015250565b6000615779602483613f0e565b91506157848261571d565b604082019050919050565b600060208201905081810360008301526157a88161576c565b9050919050565b7f4552433732313a207472616e7366657220746f206e6f6e20455243373231526560008201527f63656976657220696d706c656d656e7465720000000000000000000000000000602082015250565b600061580b603283613f0e565b9150615816826157af565b604082019050919050565b6000602082019050818103600083015261583a816157fe565b9050919050565b600081519050919050565b600082825260208201905092915050565b600061586882615841565b615872818561584c565b9350615882818560208601613f1f565b61588b81613f52565b840191505092915050565b60006080820190506158ab6000830187614053565b6158b86020830186614053565b6158c560408301856142a7565b81810360608301526158d7818461585d565b905095945050505050565b6000815190506158f181613e74565b92915050565b60006020828403121561590d5761590c613e3e565b5b600061591b848285016158e2565b91505092915050565b7f4552433732313a206d696e7420746f20746865207a65726f2061646472657373600082015250565b600061595a602083613f0e565b915061596582615924565b602082019050919050565b600060208201905081810360008301526159898161594d565b9050919050565b7f4552433732313a20746f6b656e20616c7265616479206d696e74656400000000600082015250565b60006159c6601c83613f0e565b91506159d182615990565b602082019050919050565b600060208201905081810360008301526159f5816159b9565b9050919050565b7f4e487b7100000000000000000000000000000000000000000000000000000000600052603160045260246000fdfea26469706673582212200585f33b0480ae7b726b28d822c6b19150a618517f7f5acb35e891262e5a6a4b64736f6c63430008090033",
  "immutableReferences": {},
  "source": "//SPDX-License-Identifier: UNLICENSED\r\npragma solidity ^0.8.0;\r\n\r\nimport \"@openzeppelin/contracts/token/ERC721/ERC721.sol\";\r\nimport \"@openzeppelin/contracts/token/ERC721/extensions/ERC721Enumerable.sol\";\r\nimport \"@openzeppelin/contracts/token/ERC721/extensions/ERC721Burnable.sol\";\r\nimport \"@openzeppelin/contracts/access/Ownable.sol\";\r\nimport \"@openzeppelin/contracts/utils/Address.sol\";\r\nimport \"@openzeppelin/contracts/utils/Counters.sol\";\r\n\r\n////////////////////////////////////////////////////////////////////////////////\r\n////////////////////////////////////////////////////////////////////////////////\r\n////////////////////////////////////////////////////////////////////////////////\r\n////////////////////////////////////////////////////////////////////////////////\r\n////////////////////////////////////////////////////////////////////////////////\r\n////////////////////////////////////////////////////////////////////////////////\r\n////////////////////////////////////////////////////////////////////////////////\r\n//////////////////////////////^^^^^^^^-----^^^^^^^^/////////////////////////////\r\n//////////////////////////////(@@@@@@@@@@@@@@@@@@@//////////////////////////////\r\n////////////////////////////////////////////////////////////////////////////////\r\n////////////////////////@@@@@@@@@@@@@//////(@@@@@@@@@@@@@///////////////////////\r\n////////////////////////@@@@@@@@@@@@@@@///@@@@@@@@@@@@@@@///////////////////////\r\n////////////////////////@@@@@@@@@@@@@@@@/@@@@@@@@@@@@@@@@///////////////////////\r\n////////////////////////@@@@@@@@@/@@@@@@@@@@@@@/@@@@@@@@@///////////////////////\r\n////////////////////////@@@@@@@@@//@@@@@@@@@@@//@@@@@@@@@///////////////////////\r\n////////////////////////@@@@@@@@@///////////////@@@@@@@@@///////////////////////\r\n////////////////////////////////////////////////////////////////////////////////\r\n////////////////////////@@@@@@@@@///////////////@@@@@@@@@///////////////////////\r\n////////////////////////@@@@@@@@@//@@@@@@@@@@@//@@@@@@@@@///////////////////////\r\n////////////////////////@@@@@@@@@/@@@@@@@@@@@@@/@@@@@@@@@///////////////////////\r\n////////////////////////@@@@@@@@@@@@@@@@/@@@@@@@@@@@@@@@@///////////////////////\r\n////////////////////////@@@@@@@@@@@@@@@///@@@@@@@@@@@@@@@///////////////////////\r\n////////////////////////@@@@@@@@@@@@@%/////&@@@@@@@@@@@@@///////////////////////\r\n/////////////////////////////////@@@/////////@@@////////////////////////////////\r\n/////////////////////////////////@@///////////@@////////////////////////////////\r\n/////////////////////////////////@/////////////@////////////////////////////////\r\n////////////////////////////////////////////////////////////////////////////////\r\n////////////////////////////////////////////////////////////////////////////////\r\n////////////////////////////////////////////////////////////////////////////////\r\n////////////////////////////////////////////////////////////////////////////////\r\n////////////////////////////////////////////////////////////////////////////////\r\n////////////////////////////////////////////////////////////////////////////////\r\n\r\ncontract Menace is ERC721, ERC721Enumerable, ERC721Burnable, Ownable {\r\n    using Counters for Counters.Counter;\r\n\r\n    // Counter for number of menaces \r\n    Counters.Counter private _menaceCounter;\r\n    // Max token supply\r\n    uint public MAX_MENACE = 10000;\r\n    // Mint Price\r\n    uint256 public constant menacePrice = 150000000000000000; //0.15 ETH\r\n    // Base URI\r\n    string public baseURI;\r\n    // Sale is active\r\n    bool public saleIsActive = false;\r\n    // Presale is active\r\n    bool public preSaleIsActive = false;\r\n    // Max purchchase per txn\r\n    uint public constant maxMenaceTxn = 2;\r\n    // shareholders, shares, and manager\r\n    address[3] private _shareholders;\r\n\r\n    uint[3] private _shares;\r\n\r\n    address private _manager;\r\n    // starting index and block and provenance\r\n    uint256 public startingIndex;\r\n\r\n    uint256 public startingIndexBlock;\r\n\r\n    string public provenance;\r\n\r\n    // Presale\r\n    mapping(address => bool) addressToPreSale;\r\n    mapping(address => uint256) addressToPresaleMintCount;\r\n\r\n    // Events\r\n    event PaymentReleased(address to, uint256 amount);\r\n    event ReserveMenace(address to);\r\n    event FirstToMenaceWorld(address to, uint256 amount);\r\n    event WelcomeToMenaceWorld(address to, uint256 amount);\r\n\r\n    // constructor\r\n    constructor() ERC721(\"MenaceWorld\", \"MENACE\"){\r\n        // shareholders test network\r\n        _shareholders[0] = 0x24209282E198E7A807806F55a3322b98d3C65B29;\r\n        _shareholders[1] = 0xDfaAC748709D31d95D638dDBc2BCb8462dfd2076;\r\n        _shareholders[2] = 0xc593eE28Fc40c256d08D040A12FA1AF4D8ef26Bb;\r\n    }\r\n\r\n    /** Set Manager */\r\n    function setManager(address manager) public onlyOwner {\r\n        _manager = manager;\r\n    }\r\n    \r\n    /**\r\n     * Throws if called by any account other than the owner or manager.\r\n     */\r\n    modifier onlyOwnerOrManager() {\r\n        require(owner() == _msgSender() || _manager == _msgSender(), \"Caller is not the owner or manager\");\r\n        _;\r\n    }\r\n\r\n    /**\r\n     * Set base URI\r\n     */\r\n    function setBaseURI(string memory newBaseURI) public onlyOwnerOrManager {\r\n        baseURI = newBaseURI;\r\n    }\r\n    \r\n    function _baseURI() internal view virtual override returns (string memory){\r\n        return baseURI;\r\n    }\r\n\r\n    function totalToken() public view returns (uint256) {\r\n        return _menaceCounter.current();\r\n    }\r\n    \r\n    function contractBalance() public view onlyOwnerOrManager returns (uint256) {\r\n        return address(this).balance;\r\n    }\r\n\r\n    function addWalletToPreSale(address _address) public onlyOwnerOrManager {\r\n        addressToPreSale[_address] = true;\r\n    }\r\n\r\n    function isWalletInPreSale(address _address) public view returns (bool) {\r\n        return addressToPreSale[_address];\r\n    }\r\n\r\n    function preSaleMenaceMinted(address _address) public view returns (uint256){\r\n        return addressToPresaleMintCount[_address];\r\n    }\r\n\r\n    /*\r\n    * Set Sale\r\n    */\r\n    function flipSale() public onlyOwnerOrManager {\r\n        saleIsActive = !saleIsActive;\r\n    }\r\n\r\n    function stateSail() public view returns (bool){\r\n        return saleIsActive;\r\n    }\r\n\r\n    function flipPreSale() public onlyOwnerOrManager {\r\n        preSaleIsActive = !preSaleIsActive;\r\n    }\r\n\r\n    function statePreSail() public view returns (bool){\r\n        return preSaleIsActive;\r\n    }\r\n\r\n    /**\r\n    *  Grand Prize\r\n     */\r\n    function withdrawForGiveaway(uint256 amount, address payable to) public onlyOwnerOrManager {\r\n        uint256 payment = amount * 10 ** 18;\r\n        to.transfer(payment);\r\n        emit PaymentReleased(to, amount);\r\n    }\r\n\r\n    /**\r\n     * Withdraw \r\n     */\r\n    function withdraw(uint256 amount) public payable {\r\n        require(address(this).balance >= amount, \"Insufficent funds.\");\r\n        \r\n        uint256 len = _shareholders.length;\r\n        uint256 payment = amount * 10 ** 18;\r\n        payment = payment / len;\r\n        for (uint256 i=0; i<len; i++){\r\n            // send payment to owner wallet\r\n            payable(_shareholders[i]).transfer(payment);\r\n            emit PaymentReleased(_shareholders[i], payment);\r\n        }\r\n    }\r\n\r\n    /*\r\n    * Mint reserved NFTs for giveaways, devs, etc.\r\n    */\r\n    function reserveMintMenace(uint256 reserveAmount, address mintAddress) public onlyOwnerOrManager {\r\n        require(totalSupply() <= MAX_MENACE, \"Purchase would exceed max supply of Menaces\");\r\n        uint256 supply = _menaceCounter.current();\r\n        for (uint256 i=0; i<reserveAmount; i++){\r\n            _safeMint(mintAddress, supply + 1);\r\n            _menaceCounter.increment();\r\n            supply = _menaceCounter.current();\r\n        }\r\n        emit ReserveMenace(mintAddress);\r\n    }\r\n\r\n    /**\r\n    * Mint for presale\r\n    */\r\n    function preMintMenace(uint256 numberOfTokens) public payable {\r\n        require(preSaleIsActive, \"Pre Sale must be active to mint Menaces\");\r\n        require(addressToPreSale[msg.sender] == true, \"Sorry, you're address is not whitelisted for presale\");\r\n        require(addressToPresaleMintCount[msg.sender] + numberOfTokens <= MAX_MENACE, \"Purchase would exceed presale limit\");\r\n        require(menacePrice * numberOfTokens <= msg.value, \"Ether value sent is not correct\");\r\n\r\n        for (uint256 i=0; i<numberOfTokens; i++){\r\n            uint256 mintIndex = _menaceCounter.current()+1;\r\n            if (mintIndex <= MAX_MENACE){\r\n                _safeMint(msg.sender, mintIndex);\r\n                _menaceCounter.increment();\r\n                addressToPresaleMintCount[msg.sender] += 1;\r\n            }\r\n        }     \r\n        emit FirstToMenaceWorld(msg.sender, numberOfTokens);       \r\n    }\r\n\r\n\r\n    /**\r\n     * Mint Menace\r\n    */\r\n    function mintMenace(uint256 numberOfTokens) public payable {\r\n        require(saleIsActive, \"Sale must be active to mint Menaces\");\r\n        require(numberOfTokens <= maxMenaceTxn, \"You can only mint 2 Menaces at a time\");\r\n        require(totalSupply() + numberOfTokens <= MAX_MENACE, \"Purchase would exceed max supply of Menaces\");\r\n        require(menacePrice * numberOfTokens <= msg.value, \"Ether value sent is not correct\");\r\n\r\n        for (uint256 i=0; i<numberOfTokens; i++){\r\n            uint256 mintIndex = _menaceCounter.current()+1;\r\n            if (mintIndex <= MAX_MENACE){\r\n                _safeMint(msg.sender, mintIndex);\r\n                _menaceCounter.increment();\r\n            }\r\n        }\r\n        emit WelcomeToMenaceWorld(msg.sender, numberOfTokens);\r\n    }\r\n\r\n    /**\r\n     * Set the starting index for the collection.\r\n     */\r\n    function setStartingIndex() public onlyOwnerOrManager {\r\n        require(startingIndex == 0, \"Starting index is already set\");\r\n        require(startingIndexBlock != 0, \"Starting index block must be set\");\r\n        \r\n        startingIndex = uint(blockhash(startingIndexBlock)) % MAX_MENACE;\r\n        // Just a sanity case in the worst case if this function is called late (EVM only stores last 256 block hashes).\r\n        if (block.number - startingIndexBlock > 255) {\r\n            startingIndex = uint(blockhash(block.number - 1)) % MAX_MENACE;\r\n        }\r\n        // Prevent default sequence.\r\n        if (startingIndex == 0) {\r\n            startingIndex = 1;\r\n        }\r\n    }\r\n\r\n    /**\r\n     * Set the starting index block for the collection. Usually, this will be set after the first sale mint.\r\n     */\r\n    function emergencySetStartingIndexBlock() public onlyOwnerOrManager {\r\n        require(startingIndex == 0, \"Starting index is already set\");\r\n        \r\n        startingIndexBlock = block.number;\r\n    }\r\n\r\n    /*     \r\n    * Set provenance once it's calculated.\r\n    */\r\n    function setProvenanceHash(string memory provenanceHash) public onlyOwnerOrManager {\r\n        provenance = provenanceHash;\r\n    }\r\n\r\n    /**\r\n     * Required for ERC721Enumerable and ERC721\r\n     */\r\n    function _beforeTokenTransfer(address from, address to, uint256 tokenId) internal override(ERC721, ERC721Enumerable) {\r\n        super._beforeTokenTransfer(from, to, tokenId);\r\n    }\r\n\r\n    function supportsInterface(bytes4 interfaceId) public view override(ERC721, ERC721Enumerable) returns (bool) {\r\n        return super.supportsInterface(interfaceId);\r\n    }\r\n\r\n}",
  "sourcePath": "C:\\Users\\nickn\\Menace\\NFT\\development\\contracts\\Menace.sol",
  "compiler": {
    "name": "solc",
    "version": "0.8.9+commit.e5eed63a.Emscripten.clang"
  },
  "schemaVersion": "3.4.3",
  "updatedAt": "2021-10-21T04:55:31.259Z",
  "networkType": "ethereum",
  "devdoc": {
    "kind": "dev",
    "methods": {
      "approve(address,uint256)": {
        "details": "See {IERC721-approve}."
      },
      "balanceOf(address)": {
        "details": "See {IERC721-balanceOf}."
      },
      "burn(uint256)": {
        "details": "Burns `tokenId`. See {ERC721-_burn}. Requirements: - The caller must own `tokenId` or be an approved operator."
      },
      "getApproved(uint256)": {
        "details": "See {IERC721-getApproved}."
      },
      "isApprovedForAll(address,address)": {
        "details": "See {IERC721-isApprovedForAll}."
      },
      "name()": {
        "details": "See {IERC721Metadata-name}."
      },
      "owner()": {
        "details": "Returns the address of the current owner."
      },
      "ownerOf(uint256)": {
        "details": "See {IERC721-ownerOf}."
      },
      "renounceOwnership()": {
        "details": "Leaves the contract without owner. It will not be possible to call `onlyOwner` functions anymore. Can only be called by the current owner. NOTE: Renouncing ownership will leave the contract without an owner, thereby removing any functionality that is only available to the owner."
      },
      "safeTransferFrom(address,address,uint256)": {
        "details": "See {IERC721-safeTransferFrom}."
      },
      "safeTransferFrom(address,address,uint256,bytes)": {
        "details": "See {IERC721-safeTransferFrom}."
      },
      "setApprovalForAll(address,bool)": {
        "details": "See {IERC721-setApprovalForAll}."
      },
      "symbol()": {
        "details": "See {IERC721Metadata-symbol}."
      },
      "tokenByIndex(uint256)": {
        "details": "See {IERC721Enumerable-tokenByIndex}."
      },
      "tokenOfOwnerByIndex(address,uint256)": {
        "details": "See {IERC721Enumerable-tokenOfOwnerByIndex}."
      },
      "tokenURI(uint256)": {
        "details": "See {IERC721Metadata-tokenURI}."
      },
      "totalSupply()": {
        "details": "See {IERC721Enumerable-totalSupply}."
      },
      "transferFrom(address,address,uint256)": {
        "details": "See {IERC721-transferFrom}."
      },
      "transferOwnership(address)": {
        "details": "Transfers ownership of the contract to a new account (`newOwner`). Can only be called by the current owner."
      }
    },
    "version": 1
  },
  "userdoc": {
    "kind": "user",
    "methods": {
      "emergencySetStartingIndexBlock()": {
        "notice": "Set the starting index block for the collection. Usually, this will be set after the first sale mint."
      },
      "mintMenace(uint256)": {
        "notice": "Mint Menace"
      },
      "preMintMenace(uint256)": {
        "notice": "Mint for presale"
      },
      "setBaseURI(string)": {
        "notice": "Set base URI"
      },
      "setManager(address)": {
        "notice": "Set Manager "
      },
      "setStartingIndex()": {
        "notice": "Set the starting index for the collection."
      },
      "withdraw(uint256)": {
        "notice": "Withdraw "
      },
      "withdrawForGiveaway(uint256,address)": {
        "notice": "Grand Prize"
      }
    },
    "version": 1
  }
}